:020000040800F2
:100000003006002001010008452400086522000890
:100010004124000849080008592C0008000000008D
:10002000000000000000000000000000B5250008EE
:100030004D0800080000000075240008E9250008AC
:100040001B0100081B0100081B0100081B01000820
:100050001B0100081B0100081B0100081B01000810
:100060001B0100081B0100081B0100081B01000800
:100070001B0100081B0100081B0100081B010008F0
:100080001B0100081B0100081B0100081B010008E0
:100090001B0100081B0100081B0100081B010008D0
:1000A0001B0100081B0100081B0100081B010008C0
:1000B0001B0100081B0100081B0100081B010008B0
:1000C0001B0100081B0100081B0100081B010008A0
:1000D0001B010008492C00081B0100081B01000837
:1000E0001B0100081B0100081B010008DFF80CD0F1
:1000F00000F0F2FA00480047D12C0008300600203A
:100100000648804706480047FEE7FEE7FEE7FEE7B1
:10011000FEE7FEE7FEE7FEE7FEE7FEE76D260008E6
:10012000ED000008D2B201E000F8012B491EFBD21D
:1001300070470022F6E710B513460A4604461946F2
:10014000FFF7F0FF204610BD2DE9FE4F81EA0304C2
:1001500004F0004421F0004100944FF0000B23F024
:10016000004350EA01045ED052EA03045BD0C3F3BB
:100170000A54C1F30A552C44A4F2F3340194A0FBB1
:100180000254C1F3130141F48011C3F3130343F488
:10019000801301FB024400FB034E840A970A44EAE1
:1001A000815447EA8357A4FB076802958D0A05FB33
:1001B00007854FEA932C04FB0C542705029D4FEA58
:1001C000065847EA1637B5EB08056EEB070C870EA5
:1001D000920E47EA811742EA8312A7FB0201B6EBAF
:1001E0000B0164EB00042B0D43EA0C335E1844EB67
:1001F0001C50DA465146E7FB0201C5F313044FEAEF
:100200000B3343EA14534FEA0432019C43EA0603DA
:10021000A4F10C040294009CCDE900B400F036F97E
:1002200003B0BDE8F08F00200146F9E72DE9F04D5D
:1002300081EA030404F0004B21F0004514464FF01E
:10024000000A23F0004150EA050220D054EA0102DE
:100250001DD0C5F30A570246C5F31303C1F31300BB
:10026000C1F30A5640F4801543F48013A7EB060847
:10027000101BD64608F2FD3873EB050002D308F1D7
:10028000010801E092185B41B8F1000F03DA002089
:100290000146BDE8F08D00204FF4801106468446EB
:1002A0000EE0171B73EB050705D3121B63EB050369
:1002B00006434CEA010C49084FEA300092185B41B2
:1002C00050EA0107EDD152EA030012D082EA04009D
:1002D00083EA0501084305D0101BAB4106D2012279
:1002E000002306E000224FF0004302E06FF001021D
:1002F00053101AEB06004CEB085110EB0A0041EBCF
:100300000B01BDE8F04D00F0B2B896230022114673
:1003100000F07FB800F0004230F000400AD0C10D7C
:1003200001F56071C0F3160042EA0151C2084007AE
:100330001143704700200146704701F0004330B47C
:1003400021F0004150EA010206D00A0DA2F56072C8
:10035000C1F31301002A02DC30BC00207047440FB7
:1003600044EAC104C100E01830BC00EBC25000F008
:1003700047B830B50B46014600202022012409E091
:1003800021FA02F59D4205D303FA02F5491B04FA4E
:1003900002F52844151EA2F10102F1DC30BD2DE961
:1003A000F05F0546002092469B46884606468146F9
:1003B00040241BE0284641464746224600F0ADF95E
:1003C00053465A46C01A914110D311461846224648
:1003D00000F094F92D1A67EB01084F4622460120E0
:1003E000002100F08BF917EB00094E41201EA4F10B
:1003F0000104DFDC484631462A464346BDE8F09F0B
:100400000029A8BF7047401C490008BF20F0010028
:10041000704710B4B0FA80FC00FA0CF050EA010406
:1004200004BF10BC704749B1CCF1200421FA04F498
:1004300011FA0CF118BF012121430843A3EB0C0171
:10044000CB1D4FEA00614FEA102042BF002010BCD4
:10045000704700EBC35010440029A4BF10BC704784
:10046000401C490008BF20F0010010BC704710B5C7
:10047000141E73F1000408DA401C41F100019218C7
:100480005B411A4301D120F0010010BD2DE9F04D70
:1004900092469B4611B1B1FA81F202E0B0FA80F2C5
:1004A0002032904600F02AF904460F4640EA0A003E
:1004B00041EA0B0153465A46084313D0114653EA0A
:1004C000010019D0C8F14002504600F026F9054657
:1004D0000E4650465946424600F010F9084305D0F2
:1004E000012004E020463946BDE8F08D0020054398
:1004F00046EAE0762C4337430A986305E40AA0EB0A
:1005000008000022FD0A44EA47540A3002D50020C0
:100510000146E9E7010510196941DDE908450019BF
:100520006941BDE8F04DA2E72DE9FE4F804681EA22
:100530000300C00F0C46009021F0004123F000455D
:10054000B8EB0200A94105D24046214690461C4620
:100550000B46024623F00040104347D0270DC7F357
:100560000A00C3F30A510290401A019040286BDA46
:10057000C3F3130040F4801B0098924620B100237F
:10058000D2EB030A63EB0B0B01985946C0F1400212
:10059000504600F0B3F806460D4650465946019ABB
:1005A00000F0CBF810EB08006141002487EA1152FB
:1005B00084EAE7731A4340D0009A62B3019A012A91
:1005C0004FEA075215DC001B61EB02014FF00042BD
:1005D00002EA0752CDE90042001C41F58011324683
:1005E0002B46FFF753FF03B0BDE8F08F404621468E
:1005F000F9E7001B61EB0201001C41F580130018B4
:100600005B412018A2F5001747EB030140EAD570C3
:10061000B6196D4111E06D084FEA360645EAC0751E
:100620004FEA0752001B61EB0201001C41F58011EB
:1006300049084FEA30000019514132462B4603B0B9
:10064000BDE8F04FFFF713BF0098012240000023E0
:10065000D0EB020263EBE073009821464FEAE074AE
:10066000B8EB000061EB0401E9E783F000435BE7CE
:1006700081F0004158E7C1F30A52C1F3130140F27F
:10068000FF3341F480119A4202DA0020014670479C
:1006900040F233439A42A2F2334202DC524200F06B
:1006A0003CB800F02BB8000030B5041E71F1000416
:1006B00004DB4FF00044404264EB0101141E73F16F
:1006C000000405DB1C464FF00043524263EB040379
:1006D000994208BF904230BD064C074D06E0E068E5
:1006E00040F0010394E8070098471034AC42F6D379
:1006F000FFF700FD7C3600089C360008202A04DB4A
:10070000203A00FA02F1002070479140C2F1200324
:1007100020FA03F3194390407047202A04DB203A63
:1007200021FA02F00021704721FA02F3D040C2F111
:1007300020029140084319467047202A06DBCB1758
:10074000203A41FA02F043EAE07306E041FA02F38C
:10075000D040C2F120029140084319467047000082
:10076000B0B5044600688168C90709D0816821F0E6
:100770000101816000F09CFC21688968C90701D1F2
:100780000020B0BD054603E020688068C007F7D0B0
:1007900000F08EFC401B0328F6D320688068C00759
:1007A000F2D0A06A40F01000A062E06A40F00100C0
:1007B000E0620120B0BD0000B0B582B00446002068
:1007C000019021688A68D2073CD1886840F0010016
:1007D000886040F20000C2F2000000684DF68361BC
:1007E000C4F21B31A0FB0101880C00BF01900198ED
:1007F00010B101980138F9E700F05AFC21688968C6
:10080000C9071BD1054603E020688068C00718D1DE
:1008100000F04EFC401B0328F6D320688068C00718
:10082000F2D1A06A40F01000A062E06A40F001003E
:10083000E06200206062012002B0B0BD002002B082
:10084000B0BD002002B0B0BDFEE700007047000060
:10085000EFF3108072B600BFFEE7000070B581B004
:1008600000220092426A012A01D1022176E04A6800
:100870000123062A436205D803686FF0040C03F1D4
:10088000340E0AE003680C2A87BF03F12C0E6FF0C8
:10089000400C03F1300E6FF0220C02EB8202DEF806
:1008A000005062441F230C68934025EA030304FAB6
:1008B00002F21A43CEF800200E68D0F800E006EBF2
:1008C00046051024092E88BF1E3D88BF0C245EF803
:1008D000042007238968AB409A43A94011434EF88E
:1008E000041026F001014FF0000C10294FF0000118
:1008F00032D142F20041C4F201018E4505D0816A35
:1009000041F020018162012126E08968090222D498
:10091000DEF80810102E41F40001CEF808101AD1AC
:1009200040F20001C2F2000109684DF68362C4F290
:100930001B32A1FB0212910C01EB810149000091D5
:10094000009941B1009901390091009900294FF0B7
:100950000001F7D100E00021C0F824C0084601B032
:1009600070BD00000068C06C70470000002804BF24
:1009700001207047B0B50546044655F8280F28B940
:100980000020E0626062204600F080F82046FFF719
:10099000E7FEA16A01F010010843A06A04D040F00C
:1009A000100101202960B0BD41F2021188430230DC
:1009B000A062E069D4E90131E26840EA030E4B1E0F
:1009C000D4F814C0B3FA83F35809B1F5807F0B460D
:1009D00018BF0302BCF1010F4EEA420E14D142B11E
:1009E000A26A42F02002A262E26A42F00102E262DE
:1009F0000AE0D4F818C04EF20002CFF6FF7202EB04
:100A00004C321A4342F400632268B1F5807F50688B
:100A100020F4694040EA0300506090684FF2FD7393
:100A2000CFF6E17300EA030040EA0E00906001D0C7
:100A3000012906D120690021CFF6F07101EB0051A8
:100A400000E00021D06A20F470000843D062906872
:100A500040F6FE61CFF61F710840704507D10020B7
:100A6000E062A16A012262F301012960B0BDA06ABF
:100A700040F0100020F00200A06254F82C0F40F06B
:100A80000101012025462960B0BD000080B586B077
:100A9000014640F60000C4F20100096800F5E0528A
:100AA00091424FF00001CDE90411CDE9021101D0CE
:100AB00006B080BD41F21801C4F202010A6842F496
:100AC00000720A600A6802F400720192019A0A68D0
:100AD00042F004020A60096801F0040101910199E1
:100AE0000321CDE9021102A900F0D0F906B080BDC2
:100AF0002DE9F04182B000260D460446019600F033
:100B0000D7FA21688A68D2053CD480464868C00577
:100B100003D4C86A10F4700F3DD040F20000C2F256
:100B200000000668022000F04DFB216844F6241303
:100B30000A69B6FBF0F0C2F292431A4206D1CA68C3
:100B400044F62413C0F292031A423ED00A6942F2DC
:100B50009243C1F249231A4206D1CA6842F2924333
:100B6000C0F249031A4242D00A6949F24923C0F24D
:100B700024031A424FF0FC023AD1C968194208BF57
:100B8000542235E0A06A40F02000A0626662012095
:100B900002B0BDE8F08120680068800744D46E1C74
:100BA00008E000BF2068006880075CD52068006806
:100BB000800739D4002EF9D0002DF3D000F078FA58
:100BC000A0EB0800A842EDD8F0E70A6942F2924390
:100BD000C1F249231A424FF0290209D1C96842F2F1
:100BE0009243C0F24903194208BF142200E0542284
:100BF000019902FB00F7B94216D26E1C09E000BF52
:100C00000198B8422FD30198013001900198B84261
:100C10000AD2002EF7D0002DF2D000F049FAA0EB56
:100C20000800A842ECD8EEE720686FF012010160DE
:100C3000A16A41F40071A162806800F46020B0F5FF
:100C4000602F0CD1E06850B9A06A20F48070A062D7
:100C5000A06AC00403D4A06A40F00100A062002092
:100C600002B0BDE8F081A06A40F00400A06200205C
:100C70006062032002B0BDE8F081000010B50446B8
:100C8000406A012804BF022010BD01206062204696
:100C9000FFF792FD10B10021616210BD42F2044CD9
:100CA0002168A26AC4F2010C40F201339A430CF5A8
:100CB0007F7E02F580727145A26207D0A26A22F49B
:100CC0008012A2624A68520519D41DE0DCF80020A7
:100CD00012F4702FF2D0A26A42F60003C4F20103AC
:100CE00042F480129942A26205D042F20042C4F25C
:100CF0000102914208D1DCF80020520504D5A26A15
:100D0000012363F30D32A262A36A0022DB044FF0D9
:100D1000000344BFE36A23F00603E36262626FF0FC
:100D200002020A608A6802F46022B2F5602F0BD1D9
:100D3000714504D08A6842F4A0028A6010BDDCF8D4
:100D4000002012F4702FF5D08A6842F480128A6075
:100D500010BD000010B50446406A012804BF0220FF
:100D600010BD012060622046FFF7FAFC28B9A16A95
:100D700041F2011291430131A1620021616210BD73
:100D80000146406A022812D10868D1E910C30268FE
:100D900022F00E020260026822F0010202600120CD
:100DA00000FA03F2CCF804204862002002E004209C
:100DB000C863012000220A627047000080B5416AC2
:100DC000022923D10268116821F00E0111602F2140
:100DD0001368C4F202018A4240F20401C4F2020123
:100DE00023F00103136016DD3023C4F202039A429C
:100DF0001DD04423C4F202039A421BD05823C4F2EC
:100E000002039A421BD14FF4803320E00421C163D6
:100E10000121084680BD0823C4F202039A420CD087
:100E20001C23C4F202039A4209D110230FE04FF4AD
:100E300080730CE04FF4805309E0012307E001F1D7
:100E4000680C4FF08073624508BF4FF480130B604D
:100E5000826B01230021016243620AB190470021A5
:100E6000084680BDB0B5044600F022F9054640F2C0
:100E70005400C2F200000068611C18BF044400BFA7
:100E800000F016F9401BA042FAD3B0BD2DE9F04F97
:100E900084B00E680290002E00F0018140F20047FD
:100EA00041F2004202984FF6FF7EC4F20107C4F2FD
:100EB0000102042300240125C1F2100E4FF0000AA4
:100EC0004FF00009904208BF032300930AE000BFDF
:100ED00001250E680AF1010A36FA0AF204F1040447
:100EE00000F0DD8005FA0AFB16EA0B08F1D04A682B
:100EF000724511DC122A54D80298DFE802F0350A54
:100F00004347535353535353535353535353534AD6
:100F10004E00D1F80C9045E04FF6FF73C1F221036B
:100F20009A4210DC0023C1F2110302989A421BD0AE
:100F30000023C1F212039A4216D00023C1F221030A
:100F40009A4211D02EE00023C1F2220302989A4265
:100F50000AD00023C1F231039A4205D00023C1F226
:100F600032039A421ED100BF8A6842B1012A14BFDF
:100F7000C0F814B0C0F810B04FF0080912E04FF0FC
:100F800004090FE0CA6802F108090BE04FF00009FC
:100F900008E0CA6802F1040904E0CA6802F10C0919
:100FA00000E0029822460346B8F5807F24BF203A2D
:100FB00004331D684FF00F0C0CFA02F6B54309FA22
:100FC00002F22A431A60CA79D2067FF581AF41F254
:100FD0001803CDF80490C4F202031A68F34642F0F5
:100FE00001021A601A684FEA9A0E02F00102039297
:100FF000039AA7F57E72B94652F82E3004F00C071A
:1010000040F600060CFA07F5C4F20106B04223EAE6
:10101000050C10D040F60043C4F2010398420CD0F6
:1010200041F20003C4F201039842009B4FF0010516
:1010300008BF022303E0002300E001230125BB4099
:1010400043EA0C0342F82E304E684F46F203D9F8BB
:10105000002054BF22EA080242EA0802DDF80490A8
:101060003A607A68B30354BF22EA080242EA0802EF
:101070007A60F302BA6854BF22EA080242EA080220
:10108000B30240F20C43BA60C4F20103DE461A68B0
:1010900054BF22EA080242EA08021A6019E704B0C3
:1010A000BDE8F08F002A08BF090401617047000005
:1010B00040F22020C2F200000068704740F2540065
:1010C00040F22021C2F20000C2F2000100680A686A
:1010D000104408607047000080B542F20000C4F27E
:1010E0000200016841F010010160032000F066F881
:1010F000002000F005F800F02BF8002080BD000073
:10110000B0B540F25402C2F2000240F2000112688F
:10111000C2F200014FF47A730968B3FBF2F204469D
:10112000B1FBF2F1084600F0EBFB0F2C4FF001058C
:101130000CD858B94FF0FF3021460022002500F0AE
:101140002DF840F25800C2F2000004602846B0BDFD
:1011500082B041F21800C4F202000168022241F09C
:1011600001010160016801F00101019101994168EB
:1011700041F080514160406800F08050009000983C
:101180000420C4F20100016862F31A61016002B038
:101190007047000080B501F061FD80BD70B5144658
:1011A0000D46064601F06AFD2946224601F04CF93B
:1011B0000146304601F06AFD70BD000080B501F0C7
:1011C00077FD80BD80B5012818D0022841D01028B5
:1011D0003DD141F20401C4F202010A6851F8040C45
:1011E000C00134D5C2F383402EA3185CD2033FD490
:1011F00040F60012C0F23D02504345E041F20400C7
:10120000C4F20200C16940F202320A40B2F5817FA5
:1012100004BF4FF4004080BD01F44071B1F5407F40
:101220000DD0B1F5007F12D1026A920744BF49F692
:10123000404080BDB1F5407F1CBF002080BD50F80C
:10124000040C4FF22441800301EAE07080BD0020CD
:1012500080BD00F089F941F20401C4F2020109687D
:101260000222C1F3813102EB4101B0FBF1F080BDFC
:101270000A6810A3C2F340429A5C41F20023C0F214
:101280007A03B3FBF2F250430968490248BF80BDBC
:101290004AF6AB214000CAF6AA21A0FB010148088A
:1012A00080BD00BF02030405060708090A0B0C0DE8
:1012B0000E0F1010010200002DE9F04182B004462B
:1012C000007841F21C06C007C4F202064ED0306816
:1012D000C0000BD430684FF0010840F080503060FF
:1012E000306800F080500190019801E04FF0000854
:1012F00047F20007C4F200073868C00512D4386806
:1013000040F480703860FFF7D3FE05463868C005AA
:1013100008D4FFF7CDFE401B6428F7D9032002B0A4
:10132000BDE8F081706810F4407012D0616801F47B
:10133000407188420DD0706840F24042C4F24222AF
:10134000012320F4407113600023C0071360716013
:1013500029D17068616820F440700843B8F1000F2B
:10136000706003D0306820F08050306020688107C2
:1013700007D556F8181CA26821F44041114346F8DD
:10138000181CC00603D4002002B0BDE8F08156F856
:10139000180CE16820F48000084346F8180C00207F
:1013A00002B0BDE8F081FFF783FE054641F28837C1
:1013B00070688007CDD4FFF77BFE401BB8424FF02A
:1013C0000300F5D9ECE700002DE9F04381B00028D7
:1013D00000F0878042F20008C4F202080446D8F800
:1013E00000000D4600F0070088420CD2D8F800003B
:1013F00020F007002843C8F80000D8F8000000F0EB
:101400000700A8426DD1206841F204098107C4F2A7
:10141000020917D5410705D5D9F8001041F4E0615C
:10142000C9F80010010705D5D9F8001041F4605142
:10143000C9F80010D9F80010A26821F0F00111439A
:10144000C9F80010C00745D1D8F8000000F0070027
:10145000A8420CD9D8F8000020F007002843C8F8AB
:101460000000D8F8000000F00700A84239D1206839
:10147000410707D5D9F80010E26821F4E061114373
:10148000C9F80010000708D5D9F80000216920F438
:10149000605040EAC100C9F8000000F077F8D9F8C0
:1014A000001043F25C62C1F30311C0F60002515C0C
:1014B00040F2000220FA01F140F25800C2F20000AE
:1014C0000068C2F200021160FFF71AFE002001B0AE
:1014D000BDE8F0836068012807D159F8041C89032E
:1014E0000CD4012001B0BDE8F08359F8041C022897
:1014F00002D18901F5D501E08907F2D5D9F80010AC
:1015000021F003010843C9F80000FFF7D1FD0646AA
:1015100041F28837D9F80000616800F00C00B0EBA8
:10152000810F91D0FFF7C4FD801BB842F2D9032090
:1015300001B0BDE8F083000040F20000C2F20000FC
:101540000068704780B5FFF7F7FF41F20401C4F26D
:101550000201096843F26C62C1F30221C0F6000285
:10156000515CC84080BD000080B5FFF7E5FF41F247
:101570000401C4F20201096843F26C62C1F3C221A2
:10158000C0F60002515CC84080BD000041F2040C6E
:10159000C4F2020CDCF8003003F00C00082841F221
:1015A0000020C0F27A0018BF7047C3F383420AA13B
:1015B0008A5CD90305D440F60010C0F23D005043C8
:1015C0007047DCF8001008A3C1F34041595C504358
:1015D000B0FBF1F0704700BF0203040506070809DD
:1015E0000A0B0C0D0E0F1010010200002DE9F04146
:1015F00082B0002800F0C4800446007841F2000662
:10160000C007C4F2020643D0706800F00C00042842
:1016100017D0706800F00C00082802D17068C00371
:101620000FD465689DB1B5F5803F06D03068B5F53B
:10163000A02F0DD140F480203060306840F480301D
:101640000CE03068800323D5606808BB98E0306800
:1016500020F480303060306820F480203060FFF764
:1016600027FD002D054610D03068800310D4FFF709
:101670001FFD401B6428F7D908E100BFFFF718FDE4
:10168000401B64284FF0030077D830688003F5D4FE
:101690002078800718D5706810F00C0F07D070689C
:1016A00000F00C00082826D17068C00323D43068ED
:1016B000800702D52069012862D13068616920F075
:1016C000F80040EAC1003060207800073DD5A069ED
:1016D00038B30020C4F242200121C0F88014FFF783
:1016E000E7FC0546706A80072DD4FFF7E1FC401B3C
:1016F0000228F7D9CAE02069002840F20000C4F2AD
:10170000422000F09A8001210160FFF7D1FC0546DC
:1017100030688007D1D4FFF7CBFC401B0228F7D9F3
:10172000B4E00020C4F242200021C0F88014FFF78A
:10173000BFFC0546706A800707D5FFF7B9FC401B60
:101740000228F7D9A2E000F0A9FE207840071BD4B8
:10175000E5698DB1706800F00C0008284CD1012DAE
:101760000ED07068216A00F480328A4208D1616A22
:1017700000F47010884203D1002002B0BDE8F0816F
:10178000012002B0BDE8F081F069C0000BD4F0691F
:101790004FF0010840F08050F061F06900F0805097
:1017A0000190019801E04FF0000847F20007C4F2F1
:1017B00000073868C00510D4386840F4807038607D
:1017C000FFF776FC054600BF3868C00505D4FFF773
:1017D0006FFC401B6428F7D958E0E568002D3DD028
:1017E000012D05D0306A052D39D140F0040030625A
:1017F000306A40F0010038E00027C4F242270020A0
:101800003866FFF755FC022D05460BD13068800184
:1018100054D5FFF74DFC401B02284FF00300F5D9CB
:10182000ABE700BF30688001A6D5FFF741FC401B45
:1018300002284FF00300F5D99FE700210160FFF770
:1018400037FC0546306880077FF53EAFFFF730FC78
:10185000401B02284FF00300F4D98EE7306A20F0D5
:1018600001003062306A20F004003062FFF720FC93
:10187000002D054641F2883714D000BF306A80073A
:1018800013D4FFF715FC401BB842F7D9032002B070
:10189000BDE8F081FFF70CFC401BB8424FF003009D
:1018A0003FF66BAF306A8007F4D4B8F1000F3FF415
:1018B0004FAFF06920F08050F06149E7206AB0F541
:1018C000803F05D17168A26821F400311143716035
:1018D0007168626A21F4741110430843706001203A
:1018E0003866FFF7E5FB0446306880013FF544AFFA
:1018F000FFF7DEFB001B02284FF00300F4D93CE7A2
:1019000080B500F059FE80BD10B5C26B012A4FF0C2
:1019100002022DD00123C36302640268D2F804E0FE
:10192000D2F808C00C682EF07003234340F2FF7415
:10193000C4F20004A242536005DCB2F1804F0ED025
:1019400040F2004307E042F60043C4F201039A422A
:1019500005D040F60003C4F200039A4204D149685E
:101960002CF0800319439160012100220164C263BD
:10197000104610BD002804BF0120704710B5044672
:10198000006C20B90020E063204600F013F802202C
:1019900020642068211D00F06BFE012060666064F9
:1019A000A064E06420656065A065E0652066206451
:1019B000002010BD81B00068B0F1804F01D001B0AF
:1019C000704741F21C00C4F20200016841F00101BD
:1019D0000160006800F001000090009801B07047BD
:1019E00010B50446C06B01284FF0020008BF10BDBF
:1019F0000122E263206420684FF6777382689A437D
:101A000082600A683F2A14DD5F2A18DD602A28D028
:101A1000B2F5005F2DD0702A40D1D1E9012CCB68FE
:101A2000614600F07DFE2068816841F077018160A9
:101A300034E01F2A0FDC92B1102A10D02EE0402A89
:101A400023D0502A2AD14B68CA68194600F03AFFC1
:101A50002068502120E0202A01D0302A1ED11146D2
:101A60001AE04B68CA68194600F03EFF2068602102
:101A700012E0D1E9012CCB68614600F051FE2068EC
:101A8000816841F48041816008E04B68CA6819466A
:101A900000F018FF2068402100F04EFE0120206475
:101AA0000020E06310BD000080B586B00068B0F192
:101AB000804F4FF00000CDE90400CDE9020001D0D5
:101AC00006B080BD41F21800C4F20200016841F086
:101AD00008010160006802A900F008000190019867
:101AE0000820029002200390059040F60040C4F2C6
:101AF0000100FFF7CBF90420C4F2010001684FF6A2
:101B0000FF42CFF6FF02114041F0E06141F48071E5
:101B1000016006B080BD0000B0B50446C06B01286E
:101B200004BF0220B0BD4FEAB2000D4601210328D8
:101B3000E16336D8DFE800F0020A12222068294665
:101B400000F002FE206850F8181F0EE020682946B9
:101B500000F02AFE206850F8181F16E02068294679
:101B600000F056FE206850F81C1F41F0080101608B
:101B7000016821F00401016029690FE0206829460D
:101B800000F07AFE206850F81C1F41F400610160EB
:101B9000016821F48061016029690902026811432A
:101BA00001600020E063B0BD002804BF0120704741
:101BB00010B50446006C20B90020E063204600F018
:101BC00013F8022020642068211D00F051FD01203F
:101BD00060666064A064E06420656065A065E0659F
:101BE00020662064002010BD70470000B0B5044698
:101BF00041B1082909D0042914BF04F1500004F1AF
:101C0000480004E004F1440001E004F14C000068E5
:101C100001281CBF0120B0BD41B1082909D0042909
:101C200014BF04F1500004F1480004E004F1440042
:101C300001E004F14C0002220260206842F64445B3
:101C40000122C4F2010500F059FD2068A5F144010C
:101C5000884203D1296841F40041296040F2FF71B4
:101C6000C4F20001884205DCB0F1804F0ED040F292
:101C7000004107E042F60041C4F20101884205D06C
:101C800040F60001C4F20001884206D1816801F0EB
:101C90000701062904BF0020B0BD016841F0010121
:101CA00001600020B0BD00007047000070470000D8
:101CB00070B582B0016804460868CA684D6900F0D2
:101CC0002F03202B02F0200305D123B1204600F082
:101CD000ABFE02B070BD5FEA007C07D005F0010EDC
:101CE00012F4907F8EF0010526D12DB3236B1040A6
:101CF000C20617D5012B15D100200190086801906C
:101D0000486801900198486940066CD4A08DE28D26
:101D1000E38D002B1CBF801A5FEA004240F09B80DD
:101D200002B070BD010600F185804006F8D520465E
:101D300000F06EFE02B070BDC10718BF12F48071D2
:101D400003D0A16C41F00101A16400F0040601215F
:101D500081EA96062E4303D1A66C46F00206A664DD
:101D600000F0020681EA5601294303D1A16C41F03B
:101D70000401A1645EEA030118BF0121BCF1000F58
:101D800004D519B1A16C41F00801A164A16C00292E
:101D9000C6D01040800602D5204600F045FE2068DF
:101DA0004069A16C00F0400001F0080140184BD0E0
:101DB000204600F017FE2068416949063FD5416979
:101DC00021F040014161A06BC8B342F6D511C0F6C5
:101DD00000018163FEF7F2FF0028A1D0A06B816BA8
:101DE000884702B070BDA06B0268526893B2002BA6
:101DF00096D0A68DB34293D2E2858269202A15D06F
:101E0000CA6822F48072CA604A6922F001024A61FB
:101E10004A6922F040024A61202262640022226361
:101E2000CA6822F01002CA60FEF7AAFFA08DE18DF9
:101E3000401A20E0204600F0AFFE02B070BD204600
:101E4000FFF734FF02B070BD2046FFF72FFF0020E0
:101E5000A06402B070BDCA6822F49072CA604A6978
:101E600022F001024A612022626400222263CA68D1
:101E700022F01002CA6081B22046FFF715FF02B0BF
:101E800070BD0000002804BF0120704710B5044653
:101E9000006C20B90020E063204600F01DF82420EB
:101EA00020642068C16821F40051C160204600F020
:101EB00013FE2068016921F490410161416921F01C
:101EC0002A014161C16841F40051C1600020202114
:101ED000A0642164616410BD70B586B0002640F630
:101EE00000040596CDE90366C4F20104006804F518
:101EF00040518842029601D006B070BD41F21800F0
:101F0000C4F20200016802AD41F480410160016841
:101F100001F4804101910199016841F004010160DF
:101F20000068294600F00400019001984FF4007009
:101F3000029002200390032005902046FEF7A6FFA2
:101F40004FF48060CDE90206204629460496FEF74C
:101F50009DFF252001210022FFF720F92520FFF712
:101F600019F906B070BD000010B5436C202B0AD1E2
:101F700000294FF0010418BF002A01D1204610BDEE
:101F8000C36B012B01D1022010BD01230024C363C8
:101F9000046300F0E9FD204610BD0000B0B540F23A
:101FA000341040F26005C2F20000C2F20005016880
:101FB0002A7840F600440131312AC4F2010401605C
:101FC0000ED140F2D010C2F2000052A10F224FF405
:101FD000967300F0E3F8204610210122FFF762F823
:101FE000287832280ED140F2D010C2F200004DA164
:101FF0000F224FF4967300F0D1F8204620210122E1
:10200000FFF750F8287833280ED140F2D010C2F2F2
:10201000000048A10F224FF4967300F0BFF820464D
:1020200040210122FFF73EF8287861280ED140F2C6
:10203000D010C2F2000043A10E224FF4967300F0BC
:10204000ADF8204610210022FFF72CF828786228EE
:102050000ED140F2D010C2F200003EA10E224FF489
:10206000967300F09BF8204620210022FFF71AF813
:10207000287863280ED140F2D010C2F2000039A1B6
:102080000E224FF4967300F089F82046402100227A
:10209000FFF708F82878302818D140F2D010C2F2A3
:1020A000000034A115224FF4967300F077F8204613
:1020B00010210022FEF7F6FF204620210022FEF725
:1020C000F1FF204640210022FEF7ECFF287870281F
:1020D00013D140F2D014C2F200042CA120460622F3
:1020E0004FF4967300F05AF800F0C6F929A1204683
:1020F00004224FF4967300F051F840F2D01040F2F1
:102100006001C2F20000C2F200010122FFF72CFFC1
:10211000B0BD00BF52656C6179203120646F6E677D
:102120002E0A000052656C6179203220646F6E6760
:102130002E0A000052656C6179203320646F6E674F
:102140002E0A000052656C61792031206361742E83
:102150000A00000052656C61792032206361742EA0
:102160000A00000052656C61792033206361742E8F
:102170000A000000436120332052656C61792063BE
:10218000756E67206361742E0A00000053746172DB
:10219000740A0000456E640A000000002DE9F04357
:1021A00081B00446006C20280AD10E4600294FF069
:1021B000010051D01746002A4ED0E06B012803D110
:1021C000022001B0BDE8F0830120E0634FF0000978
:1021D00021201D46C4F848902064FEF769FFA784BB
:1021E000E784A1680746B1F5805F07D12069002820
:1021F0001CBF30464E46B046064601E04FF0000890
:10220000C4F83C9007E000BF16F8010B2168486055
:10221000E08C0138E084E08C80B1204680213A4691
:102220002B4600F0E1FC80B9002EEDD138F8020B0E
:1022300021686FF35F2048600026E9E720464021CF
:102240003A462B4600F0D0FC18B1032001B0BDE89F
:10225000F08320202064002001B0BDE8F08300005E
:1022600070470000FEE70000B0B584B040F23810BF
:10227000C2F2000042F200414FF460230024C4F295
:1022800001014FF480720125C36102230394CDE95B
:102290000144C0E90014C0E90225C0E90434FEF796
:1022A00065FBD0B90720CDE90145039040F2381015
:1022B000C2F2000001A9FEF7D1FA70B90120019025
:1022C0000220029040F23810C2F2000001A9FEF78D
:1022D000C5FA002804BF04B0B0BDFEF7B9FA00008B
:1022E00070B586B0002541F21800CDE90455CDE95E
:1022F0000255C4F20200016840F6004441F020019A
:1023000001600168C4F2010401F02001019101990A
:102310000168002241F0040101600168702601F0AB
:10232000040101910199016841F008010160006810
:10233000702100F00800019001982046FEF7B2FEDF
:1023400001200296CDE903050220059002A920464E
:10235000FEF79CFD06B070BD10B58EB040F268105F
:102360000021C2F200004FF08042472342F20F7476
:102370000D91CDE90B11CDE90911CDE90711CDE999
:102380000511CDE90311CDE90111C0E90023C0E930
:10239000021401618161FFF7EDFA90BB4FF48050A8
:1023A0000A9040F26810C2F200000AA9FFF718FB79
:1023B00038BB40F26810C2F20000FFF7F5FB00BB2B
:1023C00040F268100024C2F2000008A9CDE90844D8
:1023D000FFF79AFAA8B97020CDE9010440F268101D
:1023E000C2F2000001A9042203940594FFF794FBB4
:1023F00038B940F26810C2F20000FFF755FB0EB08A
:1024000010BDFEF725FA000080B540F2D01043F66B
:102410000001C2F20000C4F2010100234FF00C0CD5
:102420004FF4165280E80E00C0E90333C0E905C33B
:10243000C361FFF727FD002808BF80BDFEF708FA3B
:10244000FEE70000FEE7000000F0070080F0070351
:10245000042B28BF04234FF0FF3C03380CFA03F38E
:1024600038BF0020994381400CFA00F022EA0000B6
:10247000084370477047000010B540F26814C2F27C
:102480000004206841F2883181634FF47A70FEF7CE
:10249000E9FC206842F21071816310BD81B040F206
:1024A0000000C2F20000006844F6D351C1F262019C
:1024B000A0FB0101480A009000BF0098411E0028BF
:1024C0000091F9D101B0704770B582B040F2381474
:1024D000C2F200042046FEF7D1FB20464FF496716D
:1024E000FEF706FB2046FEF73DFAFDF70EFF40F231
:1024F0002421C2F200010860FDF70CFF0023C4F2A2
:1025000016030022FDF720FE4FF60065C4F2AF056A
:1025100000222B46FDF78AFEFDF70FFF40F2640113
:10252000C2F200010860FDF7F5FE43F27666009006
:1025300040F26800C0F600060B46C2F200006321BC
:102540003246019300F0FCFB20464FF49671FEF7F3
:10255000CFFA2046FEF706FAFDF7D7FE40F2282113
:10256000C2F200010860FDF7D5FE46F26663C4F2D0
:102570000A034FF06632FDF7E7FD00222B46FDF718
:1025800055FEFDF7DAFE40F2CC01C2F20001086010
:10259000FDF7C0FE009040F2D0000B46C2F20000F2
:1025A00063213246019300F0CBFB2046FEF7D2FBBD
:1025B00002B070BD70470000B0B501380024B4EB24
:1025C000106F1CBF0120B0BD4EF21005CEF2000509
:1025D00068604FF0FF300F2100F058FB0720AC601F
:1025E00028602046B0BD000080B5FEF767FD80BDC5
:1025F00070B594B00AAC20462821FDF79AFD00255D
:1026000001204FF480310A90CDE90B150E9002267F
:102610004FF4E010CDE91161139020460995CDE902
:102620000755CDE90555CDE90355CDE90155FEF72F
:10263000DDFFC0B90F20CDE905064FF48060079596
:10264000CDE9080505A80221FEF7BEFE58B9022013
:1026500001904FF40040039001A8FEF72DFE0028E2
:1026600004BF14B070BDFEF7F3F80000704700001F
:1026700010B540F2FF7E0368C4F2000E42F6004C33
:102680007045C4F2010C05DCB0F1804F0AD040F275
:10269000004203E0604505D040F60002C4F20002AB
:1026A000904203D14A6823F070031343704505DC60
:1026B000B0F1804F0AD040F2004203E0604505D0FF
:1026C00040F60002C4F20002904203D1CA6823F42B
:1026D0004073134323F080024B69D1F800E08C680B
:1026E0001A4360450260C462C0F828E002D109695B
:1026F000CCF830100121416110BD000080B501F01F
:102700001F014FF0010CD0F820E00CFA01F32EEA83
:1027100003030362036A02FA01F11943016280BDF7
:10272000D0F808C011432CF47F4C41EA032141EA60
:102730000C01816070470000826822F07002114332
:1027400041F007018160704770B5026A42F6004EA1
:1027500022F001020262026A456883690C688E6891
:1027600023F0730322F00202C4F2010E43EA040CC8
:10277000704542EA060208D070450ED04560C0F8A8
:1027800018C049684163026270BDCB6822F00C0238
:1027900023F004031A437045F0D125F44073D1E9C6
:1027A000056533431D43E9E770B5026A42F6004E02
:1027B00022F010020262026A456883690C688E6822
:1027C00023F4E64322F02002C4F2010E43EA042C73
:1027D000704542EA061208D0704510D04560C0F836
:1027E00018C049688163026270BDCB686FF0400415
:1027F00022F0C00204EA03131A437045EED125F417
:102800004063D1E9056543EA860343EA8505E5E7C8
:1028100070B5026A42F6004E22F480720262026AC9
:102820004568C3690C688E6823F0730322F4007254
:10283000C4F2010E43EA040C704542EA062208D0B5
:10284000704510D04560C0F81CC04968C163026281
:1028500070BDCB6840F2FF441B0222F44062A343E8
:102860001A437045EED125F44053D1E9056543EA9A
:10287000061343EA0515E5E7B0B5026A22F4805273
:102880000262046AD0F804E0C2690B6822F4E642EE
:102890008D6842EA032C42F6004324F40052C4F24D
:1028A0000103984242EA053304D14A692EF4804577
:1028B00045EA821EC0F804E0C0F81CC04968016403
:1028C0000362B0BDD0F820C0036A23F001030362A5
:1028D000836923F0F00343EA02122CF00A03194340
:1028E0008261016270470000036A23F010030362F3
:1028F0008369D0F820C023F4704343EA02322CF0FD
:10290000A00343EA0111826101627047B0B5FFF78D
:10291000DBFD40F2D014C2F2000425A120461422AF
:102920004FF49673FFF73AFC40F26801C2F20001DF
:10293000204664224FF49673FFF730FC43F274652F
:10294000C0F600052046294601224FF49673FFF792
:1029500025FC40F2D001C2F20001204664224FF46F
:102960009673FFF71BFC2046294601224FF496730D
:10297000FFF714FC14A120460A224FF49673FFF7C8
:102980000DFC2046294601224FF49673FFF706FC02
:1029900040F21C24C2F2000442F21175FEF788FBDB
:1029A0002168401AA842F9D3FEF782FB2060B0BD2F
:1029B00047696120747269206469656E20617020C6
:1029C0006C613A0A000000004B65742074687563FE
:1029D000210A000080B5806A0021C185C184FFF70B
:1029E00065F980BD0168CA6822F49072CA604A69BC
:1029F00022F001024A61026B012A03D1CA6822F067
:102A00001002CA6020214164002101637047000068
:102A100080B50168CA6822F04002CA6020210164C2
:102A2000FFF71EFC80BD000080B582B0416C2229FA
:102A30001ED18268B2F5805F02D1016900293FD0C2
:102A4000816AB2F5805F07D00AB9026922B10268D3
:102A5000526802F07F0201E0026852680A700121A8
:102A6000826A11448162C18D01390A04C18501D095
:102A700002B080BD0168CA6822F02002CA60CA683C
:102A800022F48072CA604A6922F001024A6120225F
:102A90004264026B012A1BD100220263CB6823F03F
:102AA0001003CB600B68DB0605D501920A68019222
:102AB000496801910199818DFFF7F6F802B080BD58
:102AC0000168826A49686FF35F2111800221C7E7BC
:102AD000FFF764FA02B080BD10B504460068D4E97F
:102AE00002C22369016921F4405111430161616906
:102AF00043EA0C021143C26841F20C639A4311434A
:102B0000C1604169A26921F44071114343F600029A
:102B1000C4F201029042416102D0FEF713FD01E0D0
:102B2000FEF722FD6268192148439100B0FBF1F0E5
:102B300048F21F51C5F2EB11A0FB01235A096FF0B7
:102B4000630302FB0300322303EB0010A0FB01012F
:102B5000F02303EA5113206803EB0212C1F343117F
:102B60001144816010BD000081628285C285002110
:102B70002222816442640268C163D06840F480709C
:102B8000D060506940F001005061D06840F02001F1
:102B90000020D16070470000016C212923D1816899
:102BA000B1F5805F01D1016931B1016A02684B1C46
:102BB00003620978516007E0016A036831F8022B6B
:102BC0006FF35F225A600162C18C01390A04C1842B
:102BD00018BF70470068C16821F08001C160C168FA
:102BE00041F04001C16070472DE9F04104460068A2
:102BF00000680840884202D10020BDE8F0811D46EF
:102C00000E4690465F1C04E0206800683040B042E9
:102C1000F2D0002FF8D02DB1FEF74AFAA0EB080051
:102C2000A842F1D92068C16821F4D071C16041691E
:102C300021F0010141612020206460640020E063F4
:102C40000320BDE8F081000080B540F2D010C2F250
:102C50000000FFF72DF880BDFEE70000002848BF08
:102C6000704700F01F01012202FA01F14EF200123A
:102C70004009CEF2000242F8201070474EF60C5088
:102C8000CEF200000068C0F3022070474EF61453E5
:102C900000F00F02CEF2000309011A4400F1604374
:102CA000B0F1FF3FC8BF03F56442117070470000E8
:102CB0004EF60C51CEF200010A684FF6FF031A409F
:102CC00060F30A2242F0806040F0FD7008607047B7
:102CD000FEF702FAFFF78CFCFFF702FBFFF794FB0D
:102CE000FFF7C2FAFFF738FB40F2D014C2F200043B
:102CF00040F20401C2F20001204627224FF49673ED
:102D0000FFF74CFA40F22B01C2F2000120462622C6
:102D10004FF49673FFF742FA40F26001C2F20001ED
:102D200020460122FFF720F940F26810C2F20000AD
:102D30000421FEF75BFF00BFFFF7E8FDFCE70000A2
:102D40000FB47CB50C0009AD01D0611E00E000217C
:102D5000CDE90001064B6A462946089800F0DCF8E8
:102D6000002C02D0009A002111707CBC5DF814FB8D
:102D70004736000802E008C8121F08C1002AFAD12D
:102D800070477047002001E001C1121F002AFBD1EB
:102D9000704700002DE9FF5F82B00021DDE90430BB
:102DA000020DDDF840B0034318D044F61050A2F2F3
:102DB000FF3242431514119801281FD0A5EB0B00D8
:102DC000401C5FEA000A4FF000064E4FDFF83891D2
:102DD000B046504615D5CAF1000413E011980124FD
:102DE0004AA3012801D16FEA0B010298119AC0E9A8
:102DF0000031C0E9024206B0BDE8F09FCBF100000F
:102E0000DFE704460021404A491842EB0450CDE96F
:102E1000001012E0E00707D032463B4640464946E4
:102E2000FDF792F98046894632463B4610461946E0
:102E3000FDF78AF906460F466410002CEAD1DDE959
:102E40000401DDE90023BAF1000F06DAFDF77CF991
:102E500042464B46FDF778F905E0FDF7E7F94246B3
:102E60004B46FDF7E3F904460E460022284BFDF7DA
:102E70001BFC03D84FF0FF30014607E00022254B32
:102E800020463146FDF750FBFDF7F5FB102409E025
:102E9000002C0ADB0A220023FDF781FA039B303263
:102EA0001A55641E50EA0102F2D1641C039AC4F15F
:102EB00011031444119A012A03D0012208430DD1B1
:102EC0000AE0084304D000204FF0110B119072E784
:102ED000A3EB0B056D1E0DE05B4504DD4FF000021A
:102EE00005F1010504E003DA4FF00002A5F1010548
:102EF000002AECD002981199C0E90231C0E90045DE
:102F000079E70000000014400000F03F30000000AE
:102F10000000F0430000E03F2DE9FF4F95B09B46D5
:102F20008946064600250FE2252877D1002427464A
:102F3000F84A0121059400E0044316F8013F203BC4
:102F400001FA03F01042F7D130782A2811D06FF03F
:102F50002F033078A0F13002092A16D8059A44F0E0
:102F6000020402EB820203EB42021044761C05903D
:102F7000EFE759F8042B0592002A03DA504244F493
:102F80000054059044F00204761C30782E2816D1A7
:102F900016F8010F44F004042A280DD06FF02F0218
:102FA0003078A0F13003092B09D807EB870302EB37
:102FB0004303C718761CF3E759F8047B761C307876
:102FC0006C280FD006DC4C2817D068280DD06A2852
:102FD00014D104E0742810D07A280FD10DE044F405
:102FE00000140AE044F4801401E044F440147278C0
:102FF000824202D104F58014761C761C3078662853
:103000000BD013DC582877D009DC002875D0452870
:10301000F6D04628F4D047281AD19DE118E063285D
:1030200035D0642879D0652812D195E1702873D005
:1030300008DC6728F1D069286FD06E280DD06F2882
:1030400006D1B5E073282CD0752875D0782874D0B7
:103050005A46179990476D1C75E1C4F30250022837
:1030600009D003280DD0D9F8001004280DD00D6028
:1030700009F1040967E1D9F80010EA17C1E9005223
:10308000F6E7D9F800100D80F2E70D70F0E719F8B7
:10309000041B8DF8001000208DF80100EA46012085
:1030A00003E059F804AB4FF0FF3061074FF0000127
:1030B00002D40DE008F101018846B9420FDA8045DB
:1030C000F8DB1AF808100029F4D108E008F1010132
:1030D00088468142FADB1AF808100029F6D10598D3
:1030E0005B46A0EB080721463846179A00F094FA91
:1030F000284400EB080507E04DE029E10DE01AF84F
:10310000010B5A4617999047B8F10108F7D25B4670
:1031100021463846179A13E142E00A220092C4F38E
:1031200002524FF0000A022A08D059F804CB032AB1
:103130004FEAEC710AD00DE029E02AE009F107011D
:1031400021F00702F2E802C1914609E00FFA8CFC77
:103150004FEAEC71042A03D14FFA8CFC4FEAEC7170
:10316000002907DA0A460021DCF1000C61EB0201BC
:103170002D2202E0220504D52B228DF80420012205
:1031800003E0E20701D02022F7E7904659E00A2148
:1031900002E010220DE010214FF0000A00910BE038
:1031A00010224FF0000A44F004040827009203E0C4
:1031B00008224FF0000A0092C4F30252022A05D0FE
:1031C00059F804CB0021032A08D009E009F10701CE
:1031D00021F00702F2E802C1914605E01FFA8CFCDB
:1031E000042A01D10CF0FF0C4FF00008220728D56B
:1031F000702806D0009B83F0100353EA0A0305D021
:103200000EE040228DF80420012208E05CEA010271
:1032100006D030228DF804208DF805000222904659
:10322000009B83F0080353EA0A030AD15CEA010217
:1032300001D1620705D530228DF804204FF0010836
:103240007F1E582804D034A003900EA802900DE0F1
:1032500036A0F9E753466046009AFDF7A0F8844689
:103260000398825C0298401E029002705CEA0100A2
:10327000F0D1029806A9081A00F1200A600702D5C9
:1032800024F4803400E00127574502DDA7EB0A0053
:1032900000E0002000EB0A01009005984144401A2C
:1032A0000590E00306D45B462146179A059800F086
:1032B000B3F90544002706E001A85A46C05D1799F6
:1032C00090476D1C7F1C4745F6DBE0030CD55B4641
:1032D0002146179A059800F09FF9054404E0302034
:1032E0005A46179990476D1C0099481E0090002976
:1032F000F5DC08E0029802995A460078491C0291D0
:10330000179990476D1CBAF10001AAF1010AF1DC8E
:1033100065E1000009280100303132333435363799
:103320003839616263646566000000003031323311
:1033300034353637383941424344454600000000B1
:1033400000F058F90544761C307800287FF4ECAD85
:1033500019B02846BDE8F08F620700D4062709F1AE
:10336000070222F0070CFCE80223E14603F00048C4
:103370005FEA080C02D00FF2702C0DE05FEA045CEB
:1033800002D50FF2682C07E05FEAC47C02D00FF28E
:10339000602C01E0AFF2700C4FF0FF3823F00043D7
:1033A000CDF850C065280CD006DC452809D0462849
:1033B0001DD047283DD13DE0662818D067287ED132
:1033C00038E00021112F01DB112000E0781CCDE94D
:1033D000000106A90EA8FFF7DDFCDDE90F010E9A3A
:1033E00003910021009207F1010A04914DE04FF092
:1033F00000400097CDE9011006A90EA8FFF7CAFC0E
:10340000DDE90F0203920E9B11990022DDF80CA05A
:103410000093049211B9791C00EB010AB7EB0A0082
:1034200004D4C0F1FF3007F1010A0490AAEB0700B1
:10343000019044E0012F00DA01270021112F01DD66
:10344000112000E03846CDE9000106A90EA8FFF7DB
:10345000A1FCDDE90F010E9A039100210491009275
:10346000BA4621070CD40399514500DA8A46BAF1CD
:10347000010F05DD009AAAF10101515C302908D045
:10348000B84202DA10F1040F06DA0121CDE9011089
:1034900015E0AAF10101E9E7002805DC04990144DF
:1034A0000491AAEB000102E0411C514500DD8A466F
:1034B0000499401A401C01904FF0004002902007F0
:1034C00004D40198504501DBCDF8048000208DF82C
:1034D0004F0002980DF14F07B0F1004F25D02B207F
:1034E0000E9002984FF0020800280CDA4042029039
:1034F0002D200E9007E00A210298FCF73AFF3031A8
:10350000029007F8011DB8F10001A8F10108F2DCF2
:1035100002980028EFD1791E0E980870307800F0DC
:10352000200040F0450007F8020D12A8C01B00F172
:1035300007081498007800B1012000EB0A010198F7
:1035400001EBE07105984144401A401E0590E003EC
:1035500006D45B462146179A059800F05DF80544AD
:103560001498007818B15A46179990476D1CE003DB
:1035700024D55B462146179A059800F04DF805447E
:103580001CE00498002807DBDDE90301884203DD25
:103590000098405C179901E0179930205A469047EF
:1035A000049805F10105401C04900198401E01900B
:1035B00004D12E205A46179990476D1CBAF100018C
:1035C000AAF1010ADDDC05E017F8010B5A4617994C
:1035D00090476D1CB8F10001A8F10108F4DC5B46CE
:1035E0002146179A0598ABE62D0000002B0000003D
:1035F000200000002DE9F041044600251E46174634
:10360000880404D405E039462020B0476D1C641EB0
:10361000F9D52846BDE8F0812DE9F04104460025A2
:103620001E469046C80301D5302700E020278804B5
:1036300004D505E041463846B0476D1C641EF9D5F7
:103640002846BDE8F0814A68002A06D00A68531C63
:103650000B6010704868401E486070470000000012
:103660000000000001020304060708090000000032
:10367000010203040A00256600000000A0360008CD
:103680000000002060000000742D000800370008D2
:1036900060000020D0050000842D0008000000001C
:1036A0000024F4005461736B312E20446965752049
:1036B0006B6869656E20646F6E6720636F2062615E
:1036C0006E672072656C61792E0A005461736B32EB
:1036D0002E2044756E672041444320646F63206749
:1036E000696120747269206469656E2061702E0AB8
:1036F00000000000010000001000000000000000B9
:04000005080000ED02
:00000001FF
