:020000040800F2
:100000008804002001010008051100084D100008B7
:10001000011100086D0100088914000800000000AB
:100020000000000000000000000000006511000852
:100030007101000800000000351100089911000846
:100040001B0100081B0100081B0100081B01000820
:100050001B0100081B0100081B0100081B01000810
:100060001B0100081B0100081B0100081B01000800
:100070001B0100081B0100081B0100081B010008F0
:100080001B0100081B0100081B0100081B010008E0
:100090001B0100081B0100081B0100081B010008D0
:1000A0001B0100081B0100081B0100081B010008C0
:1000B0001B0100081B0100081B0100081B010008B0
:1000C0001B0100081B0100081B0100081B010008A0
:1000D0001B010008791400081B0100081B0100081F
:1000E0001B0100081B0100081B010008DFF80CD0F1
:1000F00000F02AF800480047011500088804002095
:100100000648804706480047FEE7FEE7FEE7FEE7B1
:10011000FEE7FEE7FEE7FEE7FEE7FEE70112000866
:10012000ED000008D2B201E000F8012B491EFBD21D
:1001300070470022F6E710B513460A4604461946F2
:10014000FFF7F0FF204610BD064C074D06E0E068C3
:1001500040F0010394E8070098471034AC42F6D30E
:10016000FFF7C8FF7415000894150008FEE70000AB
:1001700070470000EFF3108072B600BFFEE700008A
:100180000146406A022812D10868D1E910C302680A
:1001900022F00E020260026822F0010202600120D9
:1001A00000FA03F2CCF804204862002002E00420A8
:1001B000C863012000220A627047000080B5416ACE
:1001C000022923D10268116821F00E0111602F214C
:1001D0001368C4F202018A4240F20401C4F202012F
:1001E00023F00103136016DD3023C4F202039A42A8
:1001F0001DD04423C4F202039A421BD05823C4F2F8
:1002000002039A421BD14FF4803320E00421C163E2
:100210000121084680BD0823C4F202039A420CD093
:100220001C23C4F202039A4209D110230FE04FF4B9
:1002300080730CE04FF4805309E0012307E001F1E3
:10024000680C4FF08073624508BF4FF480130B6059
:10025000826B01230021016243620AB190470021B1
:10026000084680BD2DE9F04F84B00E680290002E44
:1002700000F0018140F2004741F2004202984FF63F
:10028000FF7EC4F20107C4F2010204230024012509
:10029000C1F2100E4FF0000A4FF00009904208BF63
:1002A000032300930AE000BF01250E680AF1010A4A
:1002B00036FA0AF204F1040400F0DD8005FA0AFBC4
:1002C00016EA0B08F1D04A68724511DC122A54D89C
:1002D0000298DFE802F0350A434753535353535310
:1002E000535353535353534A4E00D1F80C9045E0A7
:1002F0004FF6FF73C1F221039A4210DC0023C1F2D2
:10030000110302989A421BD00023C1F212039A42B1
:1003100016D00023C1F221039A4211D02EE000230F
:10032000C1F2220302989A420AD00023C1F231039B
:100330009A4205D00023C1F232039A421ED100BF77
:100340008A6842B1012A14BFC0F814B0C0F810B0D6
:100350004FF0080912E04FF004090FE0CA6802F1FB
:1003600008090BE04FF0000908E0CA6802F104092F
:1003700004E0CA6802F10C0900E002982246034634
:10038000B8F5807F24BF203A04331D684FF00F0C6E
:100390000CFA02F6B54309FA02F22A431A60CA7946
:1003A000D2067FF581AF41F21803CDF80490C4F274
:1003B00002031A68F34642F001021A601A684FEA13
:1003C0009A0E02F001020392039AA7F57E72B946D3
:1003D00052F82E3004F00C0740F600060CFA07F530
:1003E000C4F20106B04223EA050C10D040F60043E7
:1003F000C4F2010398420CD041F20003C4F201039D
:100400009842009B4FF0010508BF022303E0002340
:1004100000E001230125BB4043EA0C0342F82E30E3
:100420004E684F46F203D9F8002054BF22EA080272
:1004300042EA0802DDF804903A607A68B30354BFD8
:1004400022EA080242EA08027A60F302BA6854BF5C
:1004500022EA080242EA0802B30240F20C43BA6000
:10046000C4F20103DE461A6854BF22EA080242EAD7
:1004700008021A6019E704B0BDE8F08F002A08BF2F
:10048000090401617047000040F28000C2F20000E0
:100490000068704740F2240040F28001C2F2000080
:1004A000C2F2000100680A6810440860704700004A
:1004B00080B542F20000C4F20200016841F0100170
:1004C0000160032000F066F8002000F005F800F05D
:1004D0002BF8002080BD0000B0B540F22402C2F22B
:1004E000000240F200011268C2F200014FF47A7378
:1004F0000968B3FBF2F20446B1FBF2F1084600F0E2
:10050000E9FA0F2C4FF001050CD858B94FF0FF3025
:1005100021460022002500F02DF840F22800C2F20A
:10052000000004602846B0BD82B041F21800C4F259
:1005300002000168022241F001010160016801F03E
:10054000010101910199416841F080514160406889
:1005500000F08050009000980420C4F2010001686F
:1005600062F31A61016002B07047000080B500F0CC
:100570008DFF80BD70B514460D46064600F096FF0F
:100580002946224600F0C0FD0146304600F096FFA5
:1005900070BD000080B500F0A3FF80BD2DE9F043E1
:1005A00081B0002800F0878042F20008C4F20208FF
:1005B0000446D8F800000D4600F0070088420CD22F
:1005C000D8F8000020F007002843C8F80000D8F849
:1005D000000000F00700A8426DD1206841F2040934
:1005E0008107C4F2020917D5410705D5D9F80010D3
:1005F00041F4E061C9F80010010705D5D9F80010F1
:1006000041F46051C9F80010D9F80010A26821F037
:10061000F0011143C9F80010C00745D1D8F8000017
:1006200000F00700A8420CD9D8F8000020F007001D
:100630002843C8F80000D8F8000000F00700A842DE
:1006400039D12068410707D5D9F80010E26821F4B4
:10065000E0611143C9F80010000708D5D9F800007F
:10066000216920F4605040EAC100C9F8000000F0A0
:1006700077F8D9F8001041F25C52C1F30311C0F6CB
:100680000002515C40F2000220FA01F140F2280021
:10069000C2F200000068C2F200021160FFF71CFF06
:1006A000002001B0BDE8F0836068012807D159F847
:1006B000041C89030CD4012001B0BDE8F08359F873
:1006C000041C022802D18901F5D501E08907F2D581
:1006D000D9F8001021F003010843C9F80000FFF722
:1006E000D3FE064641F28837D9F80000616800F071
:1006F0000C00B0EB810F91D0FFF7C6FE801BB84213
:10070000F2D9032001B0BDE8F083000040F2000000
:10071000C2F200000068704780B5FFF7F7FF41F2B2
:100720000401C4F20201096841F26C52C1F30221D2
:10073000C0F60002515CC84080BD000080B5FFF7E4
:10074000E5FF41F20401C4F20201096841F26C5272
:10075000C1F3C221C0F60002515CC84080BD000058
:1007600041F2040CC4F2020CDCF8003003F00C007F
:10077000082841F20020C0F27A0018BF7047C3F386
:1007800083420AA18A5CD90305D440F60010C0F266
:100790003D0050437047DCF8001008A3C1F340410E
:1007A000595C5043B0FBF1F0704700BF02030405F1
:1007B000060708090A0B0C0D0E0F101001020000AD
:1007C0002DE9F04182B0002800F0C4800446007892
:1007D00041F20006C007C4F2020643D0706800F080
:1007E0000C00042817D0706800F00C00082802D113
:1007F0007068C0030FD465689DB1B5F5803F06D021
:100800003068B5F5A02F0DD140F4802030603068FD
:1008100040F480300CE03068800323D5606808BB6A
:1008200098E0306820F480303060306820F4802018
:100830003060FFF729FE002D054610D03068800398
:1008400010D4FFF721FE401B6428F7D908E100BF50
:10085000FFF71AFE401B64284FF0030077D830687A
:100860008003F5D42078800718D5706810F00C0F3D
:1008700007D0706800F00C00082826D17068C0030B
:1008800023D43068800702D52069012862D13068FE
:10089000616920F0F80040EAC1003060207800076C
:1008A0003DD5A06938B30020C4F242200121C0F830
:1008B0008014FFF7E9FD0546706A80072DD4FFF725
:1008C000E3FD401B0228F7D9CAE02069002840F266
:1008D0000000C4F2422000F09A8001210160FFF77D
:1008E000D3FD054630688007D1D4FFF7CDFD401B0E
:1008F0000228F7D9B4E00020C4F242200021C0F859
:100900008014FFF7C1FD0546706A800707D5FFF721
:10091000BBFD401B0228F7D9A2E000F00DFC2078B7
:1009200040071BD4E5698DB1706800F00C00082801
:100930004CD1012D0ED07068216A00F480328A42B9
:1009400008D1616A00F47010884203D1002002B01F
:10095000BDE8F081012002B0BDE8F081F069C0007F
:100960000BD4F0694FF0010840F08050F061F0695D
:1009700000F080500190019801E04FF0000847F22C
:100980000007C4F200073868C00510D4386840F486
:1009900080703860FFF778FD054600BF3868C005F5
:1009A00005D4FFF771FD401B6428F7D958E0E568CE
:1009B000002D3DD0012D05D0306A052D39D140F0F4
:1009C00004003062306A40F0010038E00027C4F2D1
:1009D000422700203866FFF757FD022D05460BD150
:1009E0003068800154D5FFF74FFD401B02284FF0BF
:1009F0000300F5D9ABE700BF30688001A6D5FFF74B
:100A000043FD401B02284FF00300F5D99FE700216A
:100A10000160FFF739FD0546306880077FF53EAF7E
:100A2000FFF732FD401B02284FF00300F4D98EE798
:100A3000306A20F001003062306A20F00400306239
:100A4000FFF722FD002D054641F2883714D000BF84
:100A5000306A800713D4FFF717FD401BB842F7D95F
:100A6000032002B0BDE8F081FFF70EFD401BB84245
:100A70004FF003003FF66BAF306A8007F4D4B8F153
:100A8000000F3FF44FAFF06920F08050F06149E76C
:100A9000206AB0F5803F05D17168A26821F4003169
:100AA000114371607168626A21F474111043084344
:100AB000706001203866FFF7E7FC0446306880016B
:100AC0003FF544AFFFF7E0FC001B02284FF00300A6
:100AD000F4D93CE780B500F047FB80BD70470000CB
:100AE0007047000070B582B0016804460868CA68A3
:100AF0004D6900F02F03202B02F0200305D123B114
:100B0000204600F0A9FB02B070BD5FEA007C07D070
:100B100005F0010E12F4907F8EF0010526D12DB361
:100B2000236B1040C20617D5012B15D10020019070
:100B300008680190486801900198486940066CD4A3
:100B4000A08DE28DE38D002B1CBF801A5FEA00426E
:100B500040F09B8002B070BD010600F18580400628
:100B6000F8D5204600F06CFB02B070BDC10718BF7D
:100B700012F4807103D0A16C41F00101A16400F076
:100B80000406012181EA96062E4303D1A66C46F0A5
:100B90000206A66400F0020681EA5601294303D149
:100BA000A16C41F00401A1645EEA030118BF0121B8
:100BB000BCF1000F04D519B1A16C41F00801A1648A
:100BC000A16C0029C6D01040800602D5204600F056
:100BD00043FB20684069A16C00F0400001F008016F
:100BE00040184BD0204600F015FB206841694906AB
:100BF0003FD5416921F040014161A06BC8B341F28A
:100C00000521C0F600018163FFF7D8FA0028A1D0C2
:100C1000A06B816B884702B070BDA06B0268526800
:100C200093B2002B96D0A68DB34293D2E28582690F
:100C3000202A15D0CA6822F48072CA604A6922F05C
:100C400001024A614A6922F040024A61202262643C
:100C500000222263CA6822F01002CA60FFF790FAED
:100C6000A08DE18D401A20E0204600F0ADFB02B0DF
:100C700070BD2046FFF734FF02B070BD2046FFF77D
:100C80002FFF0020A06402B070BDCA6822F49072E9
:100C9000CA604A6922F001024A612022626400228D
:100CA0002263CA6822F01002CA6081B22046FFF7B0
:100CB00015FF02B070BD0000002804BF012070477E
:100CC00010B50446006C20B90020E063204600F017
:100CD0001DF8242020642068C16821F40051C160FF
:100CE000204600F011FB2068016921F49041016168
:100CF000416921F02A014161C16841F40051C1609C
:100D000000202021A0642164616410BD70B586B00C
:100D1000002640F600040596CDE90366C4F20104FE
:100D2000006804F540518842029601D006B070BDBB
:100D300041F21800C4F20200016802AD41F48041A2
:100D40000160016801F4804101910199016841F05D
:100D5000040101600068294600F004000190019838
:100D60004FF400700290022003900320059020466B
:100D7000FFF778FA4FF48060CDE902062046294655
:100D80000496FFF76FFA252001210022FFF7F2FBFE
:100D90002520FFF7EBFB06B070BD000010B5436CDB
:100DA000202B0AD100294FF0010418BF002A01D1DD
:100DB000204610BDC36B012B01D1022010BD0123C1
:100DC0000024C363046300F0E7FA204610BD00006E
:100DD000B0B540F23005C2F20005287840F6004474
:100DE0003128C4F201040ED140F23400C2F20000F6
:100DF00046A10F224FF4967300F0C4F8204610214C
:100E00000122FFF73BFB287832280ED140F2340054
:100E1000C2F2000041A10F224FF4967300F0B2F825
:100E2000204620210122FFF729FB287833280ED104
:100E300040F23400C2F200003CA10F224FF496733E
:100E400000F0A0F8204640210122FFF717FB287888
:100E500061280ED140F23400C2F2000037A10E2208
:100E60004FF4967300F08EF8204610210022FFF711
:100E700005FB287862280ED140F23400C2F200004F
:100E800032A10E224FF4967300F07CF82046202108
:100E90000022FFF7F3FA287863280ED140F23400DD
:100EA000C2F200002DA10E224FF4967300F06AF8F2
:100EB000204640210022FFF7E1FA2878302818D197
:100EC00040F23400C2F2000028A115224FF49673BC
:100ED00000F058F8204610210022FFF7CFFA2046F4
:100EE00020210022FFF7CAFA204640210022FFF706
:100EF000C5FA40F2340040F23001C2F20000C2F202
:100F000000010122FFF74AFFB0BD00BF52656C61CE
:100F100079203120646F6E672E0A000052656C6183
:100F200079203220646F6E672E0A000052656C6172
:100F300079203320646F6E672E0A000052656C6161
:100F4000792031206361742E0A00000052656C61C3
:100F5000792032206361742E0A00000052656C61B2
:100F6000792033206361742E0A000000436120332E
:100F70002052656C61792063756E67206361742E01
:100F80000A0000002DE9F04381B00446006C2028DF
:100F90000AD10E4600294FF0010051D01746002A11
:100FA0004ED0E06B012803D1022001B0BDE8F083F0
:100FB0000120E0634FF0000921201D46C4F848904D
:100FC0002064FFF761FAA784E784A1680746B1F5BA
:100FD000805F07D1206900281CBF30464E46B046CE
:100FE000064601E04FF00008C4F83C9007E000BF5F
:100FF00016F8010B21684860E08C0138E084E08C31
:1010000080B1204680213A462B4600F005FA80B98F
:10101000002EEDD138F8020B21686FF35F20486095
:101020000026E9E7204640213A462B4600F0F4F935
:1010300018B1032001B0BDE8F08320202064002017
:1010400001B0BDE8F083000070470000FEE700003B
:1010500070B586B0002541F21800CDE90455CDE900
:101060000255C4F20200016840F6004441F020013C
:1010700001600168C4F2010401F0200101910199AD
:101080000168002241F0040101600168702601F04E
:10109000040101910199016841F0080101600068B3
:1010A000702100F00800019001982046FFF7E6F952
:1010B00001200296CDE903050220059002A92046F1
:1010C000FFF7D0F806B070BD80B540F2340043F6AB
:1010D0000001C2F20000C4F2010100234FF00C0C29
:1010E0004FF4165280E80E00C0E90333C0E905C38F
:1010F000C361FFF7E1FD002808BF80BDFFF73AF8A4
:10110000FEE70000FEE7000000F0070080F00703A4
:10111000042B28BF04234FF0FF3C03380CFA03F3E1
:1011200038BF0020994381400CFA00F022EA000009
:10113000084370477047000081B040F20000C2F2DF
:101140000000006844F6D351C1F26201A0FB010126
:10115000480A009000BF0098411E00280091F9D174
:1011600001B0704770470000B0B501380024B4EBFF
:10117000106F1CBF0120B0BD4EF21005CEF200056D
:1011800068604FF0FF300F2100F098F90720AC6045
:1011900028602046B0BD000080B5FFF77BF980BD18
:1011A00070B590B006AC20462821FEF7C2FF00259E
:1011B00001204FF480310690CDE907150A900226F0
:1011C0004FF4E010CDE90D610F9020460595CDE973
:1011D0000355CDE90155FFF7F3FA78B90F20CDE9B2
:1011E00001064FF480600395CDE9040501A80221B2
:1011F000FFF7D4F9002804BF10B070BDFEF7BAFFA6
:101200007047000080B5806A0021C185C184FFF766
:1012100067FC80BD0168CA6822F49072CA604A699E
:1012200022F001024A61026B012A03D1CA6822F04E
:101230001002CA6020214164002101637047000050
:1012400080B50168CA6822F04002CA6020210164AA
:10125000FFF7FAFE80BD000080B582B0416C222904
:101260001ED18268B2F5805F02D1016900293FD0AA
:10127000816AB2F5805F07D00AB9026922B10268BB
:10128000526802F07F0201E0026852680A70012190
:10129000826A11448162C18D01390A04C18501D07D
:1012A00002B080BD0168CA6822F02002CA60CA6824
:1012B00022F48072CA604A6922F001024A61202247
:1012C0004264026B012A1BD100220263CB6823F027
:1012D0001003CB600B68DB0605D501920A6801920A
:1012E000496801910199818DFFF7F8FB02B080BD3B
:1012F0000168826A49686FF35F2111800221C7E7A4
:10130000FFF766FD02B080BD10B504460068D4E961
:1013100002C22369016921F44051114301616169ED
:1013200043EA0C021143C26841F20C639A43114331
:10133000C1604169A26921F44071114343F6000282
:10134000C4F201029042416102D0FFF7E5F901E0E9
:10135000FFF7F4F96268192148439100B0FBF1F0FE
:1013600048F21F51C5F2EB11A0FB01235A096FF09F
:10137000630302FB0300322303EB0010A0FB010117
:10138000F02303EA5113206803EB0212C1F3431167
:101390001144816010BD000081628285C2850021F8
:1013A0002222816442640268C163D06840F4807084
:1013B000D060506940F001005061D06840F02001D9
:1013C0000020D16070470000016C212923D1816881
:1013D000B1F5805F01D1016931B1016A02684B1C2E
:1013E00003620978516007E0016A036831F8022B53
:1013F0006FF35F225A600162C18C01390A04C18413
:1014000018BF70470068C16821F08001C160C168E1
:1014100041F04001C16070472DE9F0410446006889
:1014200000680840884202D10020BDE8F0811D46D6
:101430000E4690465F1C04E0206800683040B042D1
:10144000F2D0002FF8D02DB1FFF71EF8A0EB080066
:10145000A842F1D92068C16821F4D071C160416906
:1014600021F0010141612020206460640020E063DC
:101470000320BDE8F081000080B540F23400C2F2E4
:101480000000FFF72FFB80BDFEE70000002848BFEB
:10149000704700F01F01012202FA01F14EF2001222
:1014A0004009CEF2000242F8201070474EF60C5070
:1014B000CEF200000068C0F3022070474EF61453CD
:1014C00000F00F02CEF2000309011A4400F160435C
:1014D000B0F1FF3FC8BF03F56442117070470000D0
:1014E0004EF60C51CEF200010A684FF6FF031A4087
:1014F00060F30A2242F0806040F0FD70086070479F
:10150000FEF7D6FFFFF74CFEFFF7A2FDFFF7DCFD6D
:1015100040F23404C2F2000440F20401C2F20001BD
:1015200020461E224FF49673FFF72CFD40F2300147
:10153000C2F2000120460122FFF730FCFEE702E084
:1015400008C8121F08C1002AFAD17047704700204E
:1015500001E001C1121F002AFBD17047000000000A
:101560000000000001020304060708090000000053
:10157000010203049815000800000020300000005C
:101580003E150008C815000830000020580400006F
:101590004E150008000000000024F4004469657541
:1015A000206B6869656E20646F6E6720636F2062D0
:1015B000616E672072656C61790A000001000000AD
:0815C000100000000000000013
:04000005080000ED02
:00000001FF
