:020000040800F2
:100000005816002099010008B12E0008652C000840
:10001000AD2E000859090008F9370008000000005B
:1000200000000000000000000000000001010008C6
:100030005D09000800000000450100084530000887
:10004000B3010008B3010008B3010008B3010008C0
:10005000B3010008B3010008B3010008B3010008B0
:10006000B3010008B3010008B3010008B3010008A0
:10007000B3010008B3010008B3010008B301000890
:10008000B3010008B3010008B3010008B301000880
:10009000B3010008B3010008B3010008B301000870
:1000A000B3010008B3010008B3010008B301000860
:1000B000B3010008B301000801310008B3010008D2
:1000C000B3010008B3010008B3010008B301000840
:1000D000B3010008E9370008B3010008B3010008C4
:1000E000B3010008B3010008B3010008DFF80CD029
:1000F00000F060FB00480047A541000858160020AA
:10010000224B19680868B0E8F00F80F30988BFF344
:100110006F8F4FF0000080F311884EF00D0E704786
:100120000000000006480068006880F3088862B696
:1001300061B6BFF34F8FBFF36F8F00DF00BF00BF0B
:1001400008ED00E0EFF30980BFF36F8F0F4B1A68E3
:1001500020E9F00F106008B54FF0500080F31188CF
:10016000BFF34F8FBFF36F8F04F09AFC4FF0000086
:1001700080F31188BDE8084019680868B0E8F00FFE
:1001800080F30988BFF36F8F704700BF7C000020A9
:10019000EFF3058070470000064880470648004797
:1001A000FEE7FEE7FEE7FEE7FEE7FEE7FEE7FEE727
:1001B000FEE7FEE7FD300008ED000008202A04DB22
:1001C000203A21FA02F00021704721FA02F3D040D0
:1001D000C2F12002914008431946704740EA0103EA
:1001E0009B0703D009E008C9121F08C0042AFAD2ED
:1001F00003E011F8013B00F8013B521EF9D27047B1
:10020000D2B201E000F8012B491EFBD27047002258
:10021000F6E710B513460A4604461946FFF7F0FF05
:10022000204610BD2DE9FE4F81EA030404F000448E
:1002300021F0004100944FF0000B23F0004350EAFE
:1002400001045ED052EA03045BD0C3F30A54C1F345
:100250000A552C44A4F2F3340194A0FB0254C1F3D8
:10026000130141F48011C3F3130343F4801301FB22
:10027000024400FB034E840A970A44EA815447EA89
:100280008357A4FB076802958D0A05FB07854FEA93
:10029000932C04FB0C542705029D4FEA065847EAAD
:1002A0001637B5EB08056EEB070C870E920E47EA82
:1002B000811742EA8312A7FB0201B6EB0B0164EB44
:1002C00000042B0D43EA0C335E1844EB1C50DA4655
:1002D0005146E7FB0201C5F313044FEA0B3343EA2F
:1002E00014534FEA0432019C43EA0603A4F10C04C0
:1002F0000294009CCDE900B400F036F903B0BDE8EB
:10030000F08F00200146F9E72DE9F04D81EA030462
:1003100004F0004B21F0004514464FF0000A23F092
:10032000004150EA050220D054EA01021DD0C5F375
:100330000A570246C5F31303C1F31300C1F30A566B
:1003400040F4801543F48013A7EB0608101BD64633
:1003500008F2FD3873EB050002D308F1010801E053
:1003600092185B41B8F1000F03DA00200146BDE8A6
:10037000F08D00204FF48011064684460EE0171BD6
:1003800073EB050705D3121B63EB050306434CEA29
:10039000010C49084FEA300092185B4150EA01070E
:1003A000EDD152EA030012D082EA040083EA05018B
:1003B000084305D0101BAB4106D20122002306E002
:1003C00000224FF0004302E06FF0010253101AEBDD
:1003D00006004CEB085110EB0A0041EB0B01BDE8A5
:1003E000F04D00F0B2B896230022114600F07FB81D
:1003F00000F0004230F000400AD0C10D01F56071FC
:10040000C0F3160042EA0151C20840071143704789
:1004100000200146704701F0004330B421F0004154
:1004200050EA010206D00A0DA2F56072C1F3130171
:10043000002A02DC30BC00207047440F44EAC104AB
:10044000C100E01830BC00EBC25000F047B830B536
:100450000B46014600202022012409E021FA02F582
:100460009D4205D303FA02F5491B04FA02F528441C
:10047000151EA2F10102F1DC30BD2DE9F05F054649
:10048000002092469B4688460646814640241BE053
:100490002846414647462246FFF790FE53465A46B5
:1004A000C01A914110D311461846224600F094F923
:1004B0002D1A67EB01084F4622460120002100F06B
:1004C0008BF917EB00094E41201EA4F10104DFDC7B
:1004D000484631462A464346BDE8F09F0029A8BF5A
:1004E0007047401C490008BF20F00100704710B45D
:1004F000B0FA80FC00FA0CF050EA010404BF10BC12
:10050000704749B1CCF1200421FA04F411FA0CF13E
:1005100018BF012121430843A3EB0C01CB1D4FEA77
:1005200000614FEA102042BF002010BC704700EB72
:10053000C35010440029A4BF10BC7047401C4900A0
:1005400008BF20F0010010BC704710B5141E73F1F5
:10055000000408DA401C41F1000192185B411A4383
:1005600001D120F0010010BD2DE9F04D92469B46CF
:1005700011B1B1FA81F202E0B0FA80F22032904675
:1005800000F02AF904460F4640EA0A0041EA0B014E
:1005900053465A46084313D0114653EA010019D076
:1005A000C8F140025046FFF709FE05460E46504688
:1005B0005946424600F010F9084305D0012004E0F6
:1005C00020463946BDE8F08D0020054346EAE07636
:1005D0002C4337430A986305E40AA0EB0800002285
:1005E000FD0A44EA47540A3002D500200146E9E7F3
:1005F000010510196941DDE9084500196941BDE8A7
:10060000F04DA2E72DE9FE4F804681EA0300C00FBE
:100610000C46009021F0004123F00045B8EB0200A9
:10062000A94105D24046214690461C460B4602464B
:1006300023F00040104347D0270DC7F30A00C3F34F
:100640000A510290401A019040286BDAC3F313005C
:1006500040F4801B0098924620B10023D2EB030A9D
:1006600063EB0B0B01985946C0F14002504600F075
:10067000B3F806460D4650465946019A00F0BBF8BD
:1006800010EB08006141002487EA115284EAE77305
:100690001A4340D0009A62B3019A012A4FEA0752E6
:1006A00015DC001B61EB02014FF0004202EA075229
:1006B000CDE90042001C41F5801132462B46FFF780
:1006C00053FF03B0BDE8F08F40462146F9E7001B19
:1006D00061EB0201001C41F5801300185B412018FA
:1006E000A2F5001747EB030140EAD570B6196D413A
:1006F00011E06D084FEA360645EAC0754FEA075229
:10070000001B61EB0201001C41F5801149084FEA12
:1007100030000019514132462B4603B0BDE8F04F7E
:10072000FFF713BF0098012240000023D0EB020224
:1007300063EBE073009821464FEAE074B8EB0000E9
:1007400061EB0401E9E783F000435BE781F00041DE
:1007500058E7C1F30A52C1F3130140F2FF3341F4E9
:1007600080119A4202DA00200146704740F233437A
:100770009A42A2F2334202DC5242FFF71FBD00F060
:100780002BB8000030B5041E71F1000404DB4FF0FB
:100790000044404264EB0101141E73F1000405DBC8
:1007A0001C464FF00043524263EB0403994208BFDA
:1007B000904230BD064C074D06E0E06840F0010372
:1007C00094E8070098471034AC42F6D3FFF792FC48
:1007D0002050000840500008202A04DB203A00FA8C
:1007E00002F1002070479140C2F1200320FA03F388
:1007F000194390407047202A06DBCB17203A41FA74
:1008000002F043EAE07306E041FA02F3D040C2F19D
:100810002002914008431946704770B504460025F0
:100820002068806800F0010018B32068806820F01C
:1008300001002168886000F0C1FD054613E000F06A
:10084000BDFD401B02280ED92068806800F0010021
:1008500048B1A06A40F01000A062E06A40F00100D8
:10086000E062012070BD2068806800F0010000286F
:10087000E5D10020F6E7000038B504460025002049
:1008800000902068806800F0010078BB20688068D4
:1008900040F0010021688860194800681949B0FBE0
:1008A000F1F0009002E00098401E009000980028AF
:1008B000F9D100F083FD054619E000F07FFD401BF3
:1008C000022814D92068806800F0010078B9A06A75
:1008D00040F01000A062E06A40F00100E06200BF5A
:1008E000002084F8240000BF012038BD05E0206806
:1008F000806800F001000028DFD00020F5E700004C
:100900007800002040420F000EB5002000900190BA
:100910000290009001200190072002906946034850
:1009200000F02EF808B100F027F80EBDDC00002022
:100930000EB50020009001900290012000900190DF
:10094000072002906946034800F01AF808B100F049
:1009500013F80EBDDC00002000BFFEE7704770B545
:100960000446002505E04FF47A7003F0F9FB681C9B
:1009700085B2A542F7DB70BD72B600BFFEE700008E
:1009800038B5024600230020009000BF92F82400F2
:10099000012801D1022038BD012082F8240000BFC7
:1009A0004868072812D21068406B0C79641E04EB6B
:1009B00084051F24AC40A0430D796D1E05EB850511
:1009C0000C68AC4020431468606327E048680D2839
:1009D00012D21068006B0C79E41F04EB84051F240D
:1009E000AC40A0430D79ED1F05EB85050C68AC40CC
:1009F00020431468206311E01068C06A0C790D3C34
:100A000004EB84051F24AC40A0430D790D3D05EB9C
:100A100085050C68AC4020431468E06208680A2829
:100A200012D31068C0680C780A3C04EB4405072414
:100A3000AC40A0430D780A3D05EB45058C68AC4001
:100A400020431468E0600FE0106800690C7804EB44
:100A500044050724AC40A0430D7805EB45058C68A0
:100A6000AC402043146820610868102802D0086850
:100A7000112827D1174C1068A0421ED11068806839
:100A800000F40000F0B91068806840F400001468B9
:100A9000A0600868102815D10F4800680F4CB0FB03
:100AA000F4F000EB80004000009002E00098401E4F
:100AB000009000980028F9D104E0906A40F02000EE
:100AC0009062012300BF002082F8240000BF184676
:100AD00061E70000002401407800002040420F0040
:100AE00001460868C06C70472DE9F04104460027B4
:100AF00000250026A84614B90120BDE8F081A068B1
:100B000010B1207D00B100BFA06A30B90020E062C2
:100B100084F82400204600F089F82046FFF77DFE87
:100B20000746A06A00F01000002873D1002F71D191
:100B3000A06A20F4885040F00200A062E169606879
:100B40000843217B40EA41000643A068B0F5807F5E
:100B500002D0A068012802D14FF4807000E000208C
:100B60000543207D012811D1207B38B9A069401EA2
:100B70004FF4006141EA4030054307E0A06A40F0CD
:100B80002000A062E06A40F00100E0622068406856
:100B900020F4694028432168486020688068214922
:100BA0000840304321688860A068B0F5807F02D09B
:100BB000A068012802D14FF4807000E00020B0F559
:100BC000807F03D1208A401E4FEA00582068C06A07
:100BD00020F4700040EA08002168C862206880683C
:100BE00011490840B04208D10020E062A06A20F01C
:100BF000020040F00100A06211E0A06A20F00200B3
:100C000040F01000A062E06A40F00100E0620127BD
:100C100005E0FFE7A06A40F01000A0620127384617
:100C20006BE70000FDF7E1FFFE0E1FFF10B586B079
:100C30000446002002900390049005901349206818
:100C4000884221D100BF1248806940F400701049E9
:100C500088610846806900F40070019000BF00BF01
:100C600000BF0846806940F004008861084680693A
:100C700000F00400019000BF00BF03200290039029
:100C800002A9044800F004FA06B010BD0024014097
:100C90000010024000080140F8B504460D46002649
:100CA00000200090002700F089FB0646206880683D
:100CB00000F4807050B1A06A40F02000A06200BF34
:100CC000002084F8240000BF0120F8BD206840689F
:100CD00000F4807020BB2068C06A00F47000F8B98E
:100CE00017E0681CA8B125B100F068FB801BA84282
:100CF0000FD92068006800F0020050B9A06A40F0E7
:100D00000400A06200BF002084F8240000BF03207C
:100D1000DBE72068006800F002000028E1D053E023
:100D2000022000F047FC38490968B1FBF0F0216867
:100D30000969364A114091B92168C9689211114078
:100D400069B921680969324A114031B92168C96815
:100D50009211114009B9142117E0292115E02168E9
:100D600009692B4A114021B92168C96892111140C3
:100D700041B121680969274A114029B92168C96828
:100D8000114009B9542100E0FC2100FB01F718E0F3
:100D9000681C98B125B100F011FB801BA8420DD949
:100DA0000098B8420AD2A06A40F00400A06200BFD6
:100DB000002084F8240000BF032086E70098401C30
:100DC00000900098B842E3D36FF0120021680860E9
:100DD000A06A40F40070A0622068806800F460207F
:100DE000B0F5602F0DD1207B58B9A06A20F4807037
:100DF000A062A06A00F4805018B9A06A40F0010017
:100E0000A062002061E700007800002024499224BD
:100E1000922449124992240070B50446002500BF6F
:100E200094F82400012801D1022070BD012084F82B
:100E3000240000BF2046FFF71FFD0546002D77D197
:100E4000A06A40F20121884340F48070A0623C49CE
:100E50002068884208D13B48006800F4702008B937
:100E6000012002E0002000E0012078B1A06A20F417
:100E70008010A0622068406800F4806000B3A06A1F
:100E800020F4005040F48050A06219E0A06A40F4C1
:100E90008010A0622B49091F2068884203D028498E
:100EA0002068884204D12748006800F4806000E090
:100EB000002028B1A06A20F4005040F48050A062C5
:100EC000A06A00F4805020B1E06A20F00600E062E1
:100ED00001E00020E06200BF002084F8240000BF91
:100EE000C01E216808602068806800F46020B0F5AA
:100EF000602F16D112492068884208D11148006835
:100F000000F4702008B9012002E0002000E0012078
:100F100038B12068806840F4A000216888600CE047
:100F200006E02068806840F480102168886004E052
:100F300000BF002084F8240000BF284675E70000A9
:100F4000002801400424014070B50446002500BF7C
:100F500094F82400012801D1022070BD012084F8FA
:100F6000240000BF2046FFF758FC05462DB9A06AB3
:100F700020F4885040F00100A06200BF002084F8F7
:100F8000240000BF2846E8E70146002291F821002E
:100F9000022808D00420886300BF002081F82000C8
:100FA00000BF012070470868006820F00E000B6841
:100FB00018600868006820F001000B68186091F85C
:100FC000403001209840CB6B5860012081F821000F
:100FD00000BF002081F8200000BF1046E2E70000BB
:100FE00070B50446002594F82100022803D004209F
:100FF000A063012548E02068006820F00E00216809
:1010000008602068006820F00100216808601F491E
:101010002068884201D1012026E01C491431206853
:10102000884201D110201FE01849283120688842E9
:1010300001D1801518E015493C312068884201D162
:10104000801411E0114950312068884202D14FF4D8
:10105000803009E00D4964312068884202D14FF4A4
:10106000801001E04FF08070084908394860012085
:1010700084F8210000BF002084F8200000BF606BCE
:1010800010B12046616B8847284670BD08000240B9
:101090002DE9F8470346002294466EE14FF001081F
:1010A00008FA02F4D1F8008008EA0400A0427DD1D9
:1010B000DFF8DCA2D1F80480A8EB0A09D0453AD0C9
:1010C00014DCB8F1030F50D009DCB8F1000F31D0B7
:1010D000B8F1010F1CD0B8F1020F49D120E0B8F1EE
:1010E000110F18D0B8F1120F42D11EE0B9F5881FC8
:1010F00025D006DCB9F5803F20D0B9F5801F37D167
:101100001AE0B9F5001F18D0B9F5041F30D117E067
:10111000D1F80CC02DE0D1F80C8008F1040C28E0C7
:10112000D1F80C8008F1080C23E0D1F80C8008F10C
:101130000C0C1EE000BF00BF00BF00BF00BF00BF1F
:10114000D1F80880B8F1000F02D14FF0040C0BE089
:10115000D1F80880B8F1010F03D14FF0080C1C61E1
:1011600002E04FF0080C5C6103E04FF0000C00E07F
:1011700000BF00BFFF2801D8984601E003F1040832
:101180004646FF2802D84FEA820803E0A2F1080889
:101190004FEA88084746D6F800804FF00F0909FA51
:1011A00007F928EA09080CFA07F900E088E048EA9C
:1011B0000908C6F80080D1F8048008F08058B8F11A
:1011C000805F7DD100BFDFF8CC81D8F8188048F06F
:1011D0000108DFF8C091C9F81880C846D8F818800F
:1011E00008F00108CDF8008000BF00BF4FEAB93811
:1011F0004FEA920958F829504FEA82784FEA187955
:101200004FF00F0808FA09F825EA0805DFF8888189
:10121000434502D14FF0000816E0DFF880814345D6
:1012200002D14FF001080FE0DFF87481434502D18D
:101230004FF0020808E0DFF86C81434502D14FF01F
:10124000030801E04FF004084FEA82794FEA197968
:1012500008FA09F848EA0505DFF84C814FEA9209D7
:1012600048F82950D1F8048008F48038B8F5803F58
:101270000AD1DFF83881D8F8008048EA0008DFF8A2
:101280002C91C9F8008009E0DFF82081D8F80080AF
:1012900028EA0008DFF81491C9F80080D1F804802A
:1012A00008F40038B8F5003F10D1DFF8008108F1EC
:1012B0000408D8F8008048EA0008DFF8F09000E061
:1012C0005AE009F10409C9F800800DE0DFF8DC807C
:1012D00008F10408D8F8008028EA0008DFF8CC906C
:1012E00009F10409C9F80080D1F8048008F48018D5
:1012F000B8F5801F0ED1DFF8B48008F10808D8F8DF
:10130000008048EA0008DFF8A49009F10809C9F84C
:1013100000800DE0DFF8948008F10808D8F800801C
:1013200028EA0008DFF8849009F10809C9F800806C
:10133000D1F8048008F40018B8F5001F0ED1DFF8CA
:101340006C8008F10C08D8F8008048EA0008DFF843
:101350005C9009F10C09C9F800800DE0DFF84C80C1
:1013600008F10C08D8F8008028EA0008DFF83C9063
:1013700009F10C09C9F80080521CD1F8008028FA44
:1013800002F8B8F1000F7FF489AEBDE8F8870000DD
:10139000000011100010024000080140000C014044
:1013A0000010014000140140080001400004014009
:1013B0000AB1016101E00B04036170470148006854
:1013C000704700006C00002003480068034909785A
:1013D00008440149086070476C0000207400002038
:1013E00010B50848006840F0100006490860032066
:1013F00000F0CCF8002000F007F800F049F80020D9
:1014000010BD00000020024070B588B004460025E1
:101410000026002221461E2000F07AF81E2000F04F
:1014200067F800BF1648C06940F004001449C8615D
:101430000846C06900F00400019000BF00BF02A987
:1014400003A800F0A1FA00F0C7FA45000D48B5FB6B
:10145000F0F0461E0C480D49086040F2E7310B4899
:10146000C160466000210161816000F095FD20B9F6
:10147000064800F0EFFD08B070BD0120FBE700005A
:101480000010024040420F00000800401C050020F0
:1014900008B500BF1448806940F001001249886116
:1014A0000846806900F00100009000BF00BF00BF47
:1014B0000846C06940F08050C8610846C06900F025
:1014C0008050009000BF00BF00220F21901E00F04E
:1014D0001FF800BF0549486820F0E06040F0007048
:1014E000486000BF08BD000000100240000001403D
:1014F00001460846002809DB00F01F0301229A403C
:1015000043099B0003F1E023C3F8002100BF7047AB
:101510002DE9F05F80460D461646002702F090F94F
:10152000074639462A46334601F00700C0F1070A4C
:10153000BAF1040F02D94FF0040A01E0C0F1070A22
:10154000D14600F1040ABAF1070F02D24FF0000AA7
:1015500001E0A0F1030AD4464FF0010A0AFA09FAA1
:10156000AAF1010A0AEA020A0AFA0CFA4FF0010B80
:101570000BFA0CFBABF1010B0BEA030B4AEA0B0471
:101580002146404602F064F9BDE8F09F00BF00F03C
:101590000702064B19684FF6FF031940044B0B4333
:1015A00043EA0221014B196000BF70470CED00E0D7
:1015B0000000FA052DE9F04385B006463BA30FCBAA
:1015C00001AC0FC43DA0006800904FF0000800255A
:1015D00000270024A146012E30D0022E55D0102E17
:1015E0005ED137484468006800F0807000B301A8FD
:1015F000C4F38341475C04F4803070B130484068E4
:10160000C0F340401DF8008004F4803040B12D4804
:10161000B0FBF8F000FB07F502E02B4807FB00F5F4
:101620002748406800F48000B0F5800F01D1A9463A
:1016300003E068000321B0FBF1F932E02048046ABE
:1016400004F44070B0F5807F05D104F0020010B1C1
:101650004FF4004918E004F44070B0F5007F07D162
:101660001748406A00F0020010B149F640490BE00B
:1016700004F44070B0F5407F06D11148006800F4D2
:10168000003008B14FF224490BE000F0B5F90C49E5
:101690004968C1F38131491C4900B0FBF1F900E010
:1016A00000BF00BF484605B0BDE8F0830203040553
:1016B000060708090A0B0C0D0E0F1010010200009E
:1016C0000010024000127A0000093D00F8B50446FF
:1016D00000260025207800F0010000286BD00027AC
:1016E0004348C06900F0805070B900BF4048C069ED
:1016F00040F080503E49C8610846C06900F0805003
:10170000009000BF00BF01273A48006800F48070D5
:10171000B0B93848006840F4807036490860FFF777
:101720004DFE064606E0FFF749FE801B642801D9FE
:101730000320F8BD2F48006800F480700028F2D024
:101740002B48006A00F440752DB3A08800F4407067
:10175000A84220D02648006A20F44075012026497E
:101760000860002008602248056205F0010090B181
:10177000FFF724FE064608E0FFF720FE801B41F23B
:101780008831884201D90320D3E71948006A00F064
:1017900002000028F0D01648006A20F4407061680A
:1017A000084313490862012F04D10846C06920F09C
:1017B0008050C86100BF207800F00200022807D1E5
:1017C0000B48406820F44040A1680843084948603D
:1017D000207800F01000102807D10548406820F458
:1017E0008000E1680843024948600020A1E700004A
:1017F00000100240007000404004424270B50446B0
:101800000D460CB9012070BD5A48006800F0070071
:10181000A8420ED25748006820F0070028435549D7
:1018200008600846006800F00700A84201D00120C7
:10183000E9E7207800F0020002281DD1207800F0AE
:101840000400042805D14C48406840F4E0604A494F
:101850004860207800F00800082805D14648406814
:1018600040F46050444948604348406820F0F0002C
:10187000A168084340494860207800F0010078B32F
:101880006068012806D13C48006800F4003090B937
:101890000120B8E76068022806D13748006800F0E8
:1018A000007040B90120AEE73348006800F0020044
:1018B00008B90120A7E73048406820F003006168BC
:1018C00008432D494860FFF779FD064609E0FFF718
:1018D00075FD801B41F28831884202D9032092E7CE
:1018E00007E02548406800F00C006168B0EB810F0C
:1018F000EDD12048006800F00700A8420ED91D482D
:10190000006820F0070028431A490860084600686C
:1019100000F00700A84201D0012074E7207800F011
:101920000400042807D11448406820F4E060E1680E
:10193000084311494860207800F00800082808D1C1
:101940000D48406820F46050216940EAC1000A490E
:10195000486000F061F808494968C1F30311074A7B
:10196000515CC8400649086006480068FFF74CFD16
:10197000002048E70020024000100240E04F00082D
:1019800078000020700000200F2202600D4A52688B
:1019900002F0030242600B4A526802F0F0028260D9
:1019A000084A526802F4E062C260064A526802F4D1
:1019B0006052D2080261044A126802F007020A600B
:1019C00070470000001002400020024001480068FB
:1019D000704700007800002000B5FFF7F7FF0449CA
:1019E0004968C1F30221034A515CC84000BD0000B0
:1019F00000100240F04F000800B5FFF7E7FF044970
:101A00004968C1F3C221034A515CC84000BD0000CF
:101A100000100240F04F0008F0B585B00FF26C0CDA
:101A20009CE8E01001A8A0E8E0101CA52D68009536
:101A300000210022002300240020194D696801F0D4
:101A40000C05F5B1042D02D0082D19D101E015487F
:101A500019E001ADC1F38346AC5D01F4803555B1A9
:101A60000F4D6D68C5F340451DF805200D4D6543CC
:101A7000B5FBF2F302E00C4D04FB05F3184602E05F
:101A800000BF084800BF00BF05B0F0BD0203040559
:101A9000060708090A0B0C0D0E0F101001020000BA
:101AA0000010024000127A0000093D00F8B504461B
:101AB0000CB90120F8BD207800F00100002878D092
:101AC000F848406800F00C0004280CD0F548406845
:101AD00000F00C00082811D1F248406800F4803072
:101AE000B0F5803F0AD1EF48006800F400300028CC
:101AF0005FD0606800285CD10120DBE700BF606830
:101B0000B0F5803F06D1E748006840F48030E549F1
:101B1000086028E0606858B9E248006820F4803026
:101B2000E04908600846006820F4802008601AE058
:101B30006068B0F5A02F0BD1DA48006840F480202F
:101B4000D84908600846006840F4803008600AE020
:101B5000D448006820F48030D24908600846006804
:101B600020F48020086000BF606888B1FFF726FC81
:101B7000054606E0FFF722FC401B642801D903203C
:101B800098E7C848006800F400300028F2D010E060
:101B9000FFF714FC054606E0FFF710FC401B642825
:101BA00001D9032086E7BF48006800F40030002810
:101BB000F2D1207800F00200022857D1B9484068DD
:101BC00000F00C0050B1B748406800F00C00082845
:101BD00018D1B448406800F4803098B9B148006822
:101BE00000F0020020B12069012801D0012061E746
:101BF000AC48006820F0F800616940EAC100A949DA
:101C0000086033E02069E8B10120A7490860FFF7C8
:101C1000D5FB054606E0FFF7D1FB401B022801D9A2
:101C2000032047E79F48006800F002000028F2D038
:101C30009C48006820F0F800616940EAC1009949B9
:101C4000086013E0002098490860FFF7B7FB0546DD
:101C500006E0FFF7B3FB401B022801D9032029E768
:101C60009048006800F002000028F2D1207800F0CF
:101C7000080008282DD1A069B8B101208B4908605F
:101C8000FFF79CFB054606E0FFF798FB401B022888
:101C900001D903200EE78348406A00F002000028C3
:101CA000F2D0012001F02EF913E000207F490860F6
:101CB000FFF784FB054606E0FFF780FB401B022888
:101CC00001D90320F6E67748406A00F002000028B8
:101CD000F2D1207800F00400042873D10027714865
:101CE000C06900F0805070B900BF6E48C06940F014
:101CF00080506C49C8610846C06900F0805000906F
:101D000000BF00BF01276A48006800F48070B0B9C6
:101D10006748006840F4807065490860FFF74EFB33
:101D2000054606E0FFF74AFB401B642801D9032063
:101D3000C0E65F48006800F480700028F2D000BF61
:101D4000E068012806D15748006A40F00100554973
:101D5000086227E0E06858B95248006A20F00100A4
:101D6000504908620846006A20F00400086219E041
:101D7000E06805280BD14B48006A40F0040049494F
:101D800008620846006A40F0010008620AE045481F
:101D9000006A20F00100434908620846006A20F00A
:101DA0000400086200BFE068A0B1FFF707FB05462A
:101DB00009E0FFF703FB401B41F28831884202D95A
:101DC000032077E622E03748006A00F0020000288E
:101DD000EFD012E0FFF7F2FA054608E0FFF7EEFA5F
:101DE000401B41F28831884201D9032062E62D4828
:101DF000006A00F002000028F0D1012F05D1294827
:101E0000C06920F080502749C86100BFE069C8B3AD
:101E10002448406800F00C00082860D0E0690228DF
:101E200048D1002020490866FFF7C8FA054606E0B9
:101E3000FFF7C4FA401B022801D903203AE61948EB
:101E4000006800F000700028F2D1206AB0F5803FF1
:101E500007D11448406820F40030A16808431149B4
:101E60004860D4E9080108430E49496821F4741117
:101E700008430C49486001200B490866FFF79EFAA9
:101E8000054607E03DE0FFF799FA401B022801D91B
:101E900003200FE60348006800F000700028F2D02D
:101EA0002FE0000000100240000042428004424245
:101EB00000700040002014490866FFF77FFA0546CD
:101EC00006E0FFF77BFA401B022801D90320F1E569
:101ED0000E48006800F000700028F2D111E0E069BF
:101EE000012800D1E6E50948466806F48031206AF9
:101EF000814204D106F47011606A814201D0012050
:101F0000D8E50020D6E50000000042420010024063
:101F10007047704730B502460B4600BF92F83C0050
:101F2000012801D1022030BD012082F83C0000BF11
:101F3000022082F83D00106844681068816824F02F
:101F400070041868044310684460104D1068A8427B
:101F50000BD01068B0F1804F07D00D4D1068A8422B
:101F600003D00C4D1068A84205D121F080015868BB
:101F7000014310688160012082F83D0000BF00200D
:101F800082F83C0000BF00BFCDE70000002C0140FC
:101F9000000400400008004010B504460CB90120C0
:101FA00010BD94F83D0028B9002084F83C0020467C
:101FB00000F026F8022084F83D00211D206801F081
:101FC000A7F8012084F8460000BF84F83E000121F4
:101FD0003F200155402001554120015500BF00BF61
:101FE000012084F84200432001554420015545203A
:101FF000015500BF012084F83D000020D0E700001B
:1020000008B50168B1F1804F0DD100BF0F49C96912
:1020100041F001010D4AD1611146C96901F0010188
:10202000009100BF11E00A4A016891420DD100BF42
:102030000649C96941F00201044AD1611146C969E2
:1020400001F00201009100BF00BF08BD0010024076
:1020500000040040014691F83D00012801D0012014
:102060007047022081F83D000868C06840F0010018
:102070000B68D860124B086898420BD00868B0F122
:10208000804F07D00F4B0868984203D00E4B08686A
:1020900098420CD10868806800F00702062A0CD02C
:1020A0000868006840F001000B68186005E00868E7
:1020B000006840F001000B6818600020D0E70000C5
:1020C000002C014000040040000800402DE9F041D0
:1020D00004460D4600BF94F83C00012802D10220BE
:1020E000BDE8F081012084F83C0000BF022084F8A4
:1020F0003D002068866826F0770626F47F46206833
:1021000086602868502833D00CDC202850D004DCAE
:1021100000284BD0102851D149E0302849D0402820
:102120004CD139E060282DD0702807D0B0F5805F01
:1021300003D0B0F5005F41D10DE040E0D5E90213D6
:102140006A68206801F02FF82068866846F07706F4
:102150002068866033E0D5E902136A68206801F0E0
:1021600022F82068806840F480402168886026E07A
:10217000EA686968206801F0E7F85021206801F0FA
:102180001DF81CE0EA686968206801F0F0F8602139
:10219000206801F013F812E0EA686968206801F02D
:1021A000D3F84021206801F009F808E000BF00BF23
:1021B00000BF2968206801F001F800E000BF00BFFF
:1021C000012084F83D0000BF002084F83C0000BFDF
:1021D00000BF85E7704710B5044620680069C0F36A
:1021E0004000D8B12068C068C0F34000B0B16FF0C3
:1021F000020021680861012020772068806900F0D2
:10220000030018B12046FFF7E5FF05E0204600F087
:10221000E3F8204600F093F9002020772068006959
:10222000C0F38000D8B12068C068C0F38000B0B1AE
:102230006FF004002168086102202077206880691F
:1022400000F4407018B12046FFF7C4FF05E02046B7
:1022500000F0C2F8204600F072F9002020772068D4
:102260000069C0F3C000D8B12068C068C0F3C000E6
:10227000B0B16FF008002168086104202077206861
:10228000C06900F0030018B12046FFF7A3FF05E086
:10229000204600F0A1F8204600F051F900202077F8
:1022A00020680069C0F30010D8B12068C068C0F38E
:1022B0000010B0B16FF0100021680861082020778D
:1022C0002068C06900F4407018B12046FFF782FF13
:1022D00005E0204600F080F8204600F030F90020AC
:1022E00020772068006900F0010058B12068C068BC
:1022F00000F0010030B16FF0010021680861204654
:1023000000F088F920680069C0F3C01058B1206857
:10231000C068C0F3C01030B16FF080002168086160
:102320002046FFF7F5FD20680069C0F3801058B122
:102330002068C068C0F3801030B16FF040002168A1
:102340000861204600F072F920680069C0F340106F
:1023500058B12068C068C0F3401030B16FF0200061
:10236000216808612046FFF7D4FD10BD10B586B086
:102370000446002002900390049005902068B0F17C
:10238000804F21D100BF1148806940F008000F49FB
:1023900088610846806900F00800019000BF00BF16
:1023A0000820029002200390059002A90848FEF739
:1023B0006FFE00BF0749486820F4407040F0E060BD
:1023C00040F48070486000BF06B010BD00100240AD
:1023D000000C014000000140704770B504460D46F6
:1023E000164600BF94F83C00012801D1022070BDC0
:1023F000012084F83C0000BF36B1042E1BD0082E0B
:1024000031D00C2E5ED145E02946206800F0E0FE78
:102410002068806940F00800216888612068806930
:1024200020F00400216888612068806929690843D8
:102430002168886147E02946206800F0F9FE20689D
:10244000806940F40060216888612068806920F418
:1024500080602168886120688069296940EA0120DC
:10246000216888612FE02946206800F015FF206868
:10247000C06940F008002168C8612068C06920F088
:1024800004002168C8612068C0692969084321687F
:10249000C86118E02946206800F032FF2068C06952
:1024A00040F400602168C8612068C06920F4806041
:1024B0002168C8612068C069296940EA0120216853
:1024C000C86100E000BF00BF00BF002084F83C00EE
:1024D00000BF00BF8BE710B504460CB9012010BD4A
:1024E00094F83D0028B9002084F83C00204600F014
:1024F00025F8022084F83D00211D206800F008FE28
:10250000012084F8460000BF84F83E0001213F20EE
:102510000155402001554120015500BF00BF012059
:1025200084F84200432001554420015545200155BF
:1025300000BF012084F83D000020D0E770477047BD
:1025400070B504460D4615B994F83E000BE0042D15
:1025500002D13F20005D06E0082D02D14020005D41
:1025600001E04120005D012801D0012070BD1DB9AE
:10257000022084F83E000EE0042D03D102213F200A
:10258000015508E0082D03D102214020015502E049
:1025900002214120015501222946206800F0F2FD68
:1025A00019492068884201D1012000E0002028B1AB
:1025B0002068406C40F4004021684864124920685B
:1025C00088420BD02068B0F1804F07D00F492068B7
:1025D000884203D00E49206888420CD12068806868
:1025E00000F00706062E0CD02068006840F00100BD
:1025F0002168086005E02068006840F0010021685B
:1026000008600020B2E70000002C014000040040F8
:102610000008004010B5044603492068884201D1F3
:10262000FEF7D2FE10BD0000000800407047704762
:10263000704700002DE9F84F0446206805682068BF
:10264000C668206847694FF00009CA4605F00F09BF
:10265000B9F1000F0AD105F0200038B106F02000D2
:1026600020B1204600F045FFBDE8F88FB9F1000F1A
:1026700071D007F0010018B906F4907000286AD0F4
:1026800005F0010030B106F4807018B1206C40F004
:102690000100206405F0040030B107F0010018B11A
:1026A000206C40F00200206405F0020030B107F019
:1026B000010018B1206C40F00400206405F008000F
:1026C00048B106F0200010B907F0010018B1206CE5
:1026D00040F008002064206C68B305F0200028B1A9
:1026E00006F0200010B1204600F003FF206840698A
:1026F000C0F3801A206C00F0080010B9BAF1000F86
:1027000022D0204600F0CAFE2068406900F0400058
:10271000B0B12068406920F0400021684861A06B9A
:1027200050B15648A16B4863A06BFEF759FC10B13D
:10273000A06B416B88470CE02046FFF779FF08E06B
:102740002046FFF775FF04E02046FFF771FF0020E9
:10275000206489E7FFE7206B012878D105F010009D
:10276000002874D006F01000002870D000BF0020B0
:10277000009020680068009020684068009000BFCA
:1027800000BF2068406900F04000C0B3A06B006843
:1027900040681FFA80F8B8F1000F2FD0A08D404597
:1027A0002CDDA4F82E80A06B806920281FD0206823
:1027B000C06820F480702168C8602068406920F0FB
:1027C0000100216848612068406920F040002168CC
:1027D0004861202084F83E00002020632068C06803
:1027E00020F010002168C860A06BFEF7CDFBA08D23
:1027F000E28D801A81B22046FFF719FF34E7FFE728
:10280000A08DE18D401A1FFA80F8E08DE8B1B8F193
:10281000000F1AD02068C06820F490702168C8604A
:102820002068406920F0010021684861202084F878
:102830003E00002020632068C06820F0100021685E
:10284000C86041462046FFF7F2FE0DE7FFE705F0BE
:10285000800030B106F0800018B1204600F05DFF26
:1028600002E705F0400030B106F0400018B1204604
:1028700000F02FFEF8E600BFF6E6000089340008FD
:1028800010B504460CB9012010BDA06900B100E0EC
:1028900000BF94F83D0028B9002084F83C00204691
:1028A00000F028F8242084F83D002068C06820F457
:1028B00000502168C860204600F08EFE2068006944
:1028C00020F49040216808612068406920F02A00C7
:1028D000216848612068C06840F400502168C860E1
:1028E00000202064202084F83D0084F83E00002071
:1028F000CAE7000010B586B004460020029003909D
:10290000049005901E492068884236D100BF1D48BA
:10291000806940F480401B4988610846806900F462
:102920008040019000BF00BF00BF0846806940F0B2
:10293000040088610846806900F00400019000BF2F
:1029400000BF48150290022003900320059002A9C1
:102950000D48FEF79DFB4FF480600290002003902D
:10296000049002A90848FEF793FB002205212520C8
:10297000FEF7CEFD2520FEF7BBFD06B010BD000022
:1029800000380140001002400008014070B50446C4
:102990000D46164694F83E00202816D105B10EB912
:1029A000012070BD00BF94F83C00012801D1022035
:1029B000F7E7012084F83C0000BF00202063324686
:1029C0002946204600F086FEEBE70220E9E70000FA
:1029D00010B504464948007831280BD14FF496735E
:1029E0000F2247A14A4800F0D3F80122102149489C
:1029F000FEF7DEFC4148007832280BD14FF4967385
:102A00000F2245A1424800F0C3F80122202141488D
:102A1000FEF7CEFC3948007833280BD14FF496737B
:102A20000F2241A13A4800F0B3F801224021394871
:102A3000FEF7BEFC3148007861280BD14FF4967345
:102A40000E223DA1324800F0A3F8002210213148A7
:102A5000FEF7AEFC2948007862280BD14FF496733C
:102A60000E2239A12A4800F093F80022202129489B
:102A7000FEF79EFC2148007863280BD14FF4967333
:102A80000E2235A1224800F083F80022402121487F
:102A9000FEF78EFC19480078302815D14FF4967354
:102AA000152231A11A4800F073F8002210211948AC
:102AB000FEF77EFC002220211648FEF779FC00225A
:102AC00040211448FEF774FC0C48007870280FD1A0
:102AD0004FF4967306222AA10D4800F059F800F031
:102AE000E9F94FF49673042227A1094800F050F841
:102AF000012202490648FFF749FF10BD33000020BC
:102B000052656C6179203120646F6E672E0A000077
:102B10009C010020000C014052656C61792032203C
:102B2000646F6E672E0A000052656C617920332055
:102B3000646F6E672E0A000052656C617920312047
:102B40006361742E0A00000052656C6179203220A6
:102B50006361742E0A00000052656C617920332095
:102B60006361742E0A000000436120332052656CBB
:102B700061792063756E67206361742E0A0000001E
:102B800053746172740A0000456E640A000000000C
:102B90002DE9F84F04460E46174699464FF0000AB5
:102BA00094F83D0020285AD106B117B90120BDE89C
:102BB000F88F00BF94F83C00012801D10220F6E70D
:102BC000012084F83C0000BF00202064212084F80C
:102BD0003D00FEF7F3FB8246A784E784A068B0F5CA
:102BE000805F04D1206910B90025B04602E0354667
:102BF0004FF0000800BF002084F83C0000BF1BE03D
:102C00005346002280212046CDF8009000F0B5FD0B
:102C100008B10320CBE745B9B8F80000C0F30800BD
:102C20002168486008F1020803E0287821684860BC
:102C30006D1CE08C401EE084E08C0028E0D15346FF
:102C4000002240212046CDF8009000F096FD08B10A
:102C50000320ACE7202084F83D000020A7E70220F5
:102C6000A5E7704700BFFEE70EB500200090019079
:102C700002901848184908608115174881600121A1
:102C80000173002101754FF46021C16100201249D8
:102C90004860022110480161FDF726FF08B1FDF7E9
:102CA0006BFE0020009001200190072002906946F1
:102CB0000948FDF765FE08B1FDF75EFE01200090B2
:102CC0000220019069460448FDF75AFE08B1FDF75D
:102CD00053FE0EBD00240140DC00002000B585B08D
:102CE0000020019002900390049000BF1C4880696E
:102CF00040F020001A4988610846806900F02000F1
:102D0000009000BF00BF00BF0846806940F004008B
:102D100088610846806900F00400009000BF00BF91
:102D200000BF0846806940F0080088610846806955
:102D300000F00800009000BF00BF00227021094889
:102D4000FEF736FB702001900120029000200390D6
:102D50000220049001A90348FEF79AF905B000BDCE
:102D600000100240000C014000B58DB00020099019
:102D70000A900B900C90079008901C216846FDF774
:102D800046FA4FF080401F49086047204860002104
:102D90001C48816042F20F71C160002101618161B4
:102DA000FFF7FAF808B1FDF7E7FD4FF480500990FE
:102DB00009A91448FFF78AF908B1FDF7DDFD1148AC
:102DC000FFF789FB08B1FDF7D7FD002007900890B9
:102DD00007A90C48FFF79EF808B1FDF7CDFD70205C
:102DE000009000200190029004900422694605485A
:102DF000FFF7F3FA08B1FDF7BFFD0248FFF7B6FA97
:102E00000DB000BD0C01002000B587B0002003907C
:102E100004900590069001900290144814490860AF
:102E2000472048600021124881604FF6FF71C16061
:102E3000002101618161FFF7AFF808B1FDF79CFD4A
:102E40004FF48050039003A90948FFF73FF908B1F8
:102E5000FDF792FD00200190029001A90448FFF7C0
:102E600059F808B1FDF788FD07B000BD0004004027
:102E70005401002010B50B480B4908604FF4165060
:102E80004860002108488160C16001610C214161F6
:102E900000218161C161FFF7F3FC08B1FDF76CFD12
:102EA00010BD0000003801409C01002000BFFEE77B
:102EB00000BFFEE710B541F2883006490968886313
:102EC0004000FDF74CFD42F210700249096888632A
:102ED00010BD00000C01002000BF4FF496731122BA
:102EE00002A10748FFF754FEF7E7000052656C6146
:102EF000792031303020646F6E672E0A00000000A8
:102F00009C01002008B508490968C9084FF47A7285
:102F1000B1FBF2F14143009100BF00BF00994A1E8E
:102F200000920029F9D108BD780000202DE9FC4766
:102F3000FDF7EAFC1948FDF76FFF4FF4967117484B
:102F4000FDF7AAFE1548FDF7CBFD0446FDF74BFA49
:102F50001349086008460068FDF74AFA0646002251
:102F6000104BFDF75FF9044600220F4BFDF7CCF93B
:102F70008046FDF750FA0D49086008460068FDF7E5
:102F800037FA0BA2CDE9000163210A4800F040FCAA
:102F90000248FDF7D9FFBDE8FC870000DC000020F7
:102FA0005C0000200000164000FEAF4064000020DE
:102FB00025660000FE0100202DE9FC47FDF7B8FC66
:102FC0001948FDF729FF4FF496711748FDF764FE85
:102FD0001548FDF785FD0446FDF705FA134908601D
:102FE00008460068FDF704FA06464FF06632104BBB
:102FF000FDF718F9044600220E4BFDF785F98046CF
:10300000FDF709FA0C49086008460068FDF7F0F979
:103010000AA2CDE900016321094800F0F9FB02484A
:10302000FDF792FFBDE8FC87DC0000206000002077
:1030300066660A4000FEAF4068000020256600007A
:103040006202002010B500BF502080F31188BFF34A
:103050004F8FBFF36F8F00BF01F072FE18B14FF0BA
:1030600080500449086000BF002080F3118800BF31
:1030700010BD000004ED00E000B593B0282109A8C0
:10308000FDF7C5F8142104A8FDF7C1F80020009051
:103090000190029003900120099000040A90002002
:1030A0000B9001200D9002201090C10311914FF45C
:1030B000E011129109A8FEF7F9FC08B1FDF75CFCDC
:1030C0000F20049002200590002006904FF48060AD
:1030D000079000200890022104A8FEF78FFB08B19A
:1030E000FDF74AFC02200090800302906846FEF73C
:1030F000EDFA08B1FDF740FC13B000BD70470000C9
:1031000010B50248FFF767F810BD00001C0500204D
:1031100010B50268184B984208D0B0F1804F05D026
:10312000164B984202D0164B984203D122F07002FF
:103130004B681A43104B984208D0B0F1804F05D02D
:103140000E4B984202D00E4B984203D122F44072AB
:10315000CB681A4322F080034C6943EA0402026000
:103160008B68C3620B688362034B984201D10B6981
:1031700003630123436110BD002C014000040040A3
:103180000008004030B501F01F05012404FA05F3E2
:10319000046A9C430462046A01F01F0502FA05F503
:1031A0002C43046230BD30B50C46816821F47F4168
:1031B00042EA032525432943816030BD0A468168E0
:1031C00021F0700142F0070319438160704700004D
:1031D00030B5056A25F001050562026A4368846915
:1031E00024F0700424F003040D682C4322F0020242
:1031F0008D682A430D4DA84206D100BF22F0080277
:10320000CD682A4322F00402084DA84207D123F4D6
:10321000807323F400734D692B438D692B43436006
:1032200084614D684563026230BD0000002C01409E
:1032300030B5056A25F010050562026A43688469A5
:1032400024F4E04424F440740D6844EA052422F098
:1032500020028D6842EA05120E4DA84207D100BF38
:1032600022F08002CD6842EA051222F04002094DA8
:10327000A84209D123F4806323F400634D6943EA33
:1032800085038D6943EA8503436084614D688563E6
:10329000026230BD002C014030B5056A25F480750E
:1032A0000562026A4368C46924F0700424F00304D0
:1032B0000D682C4322F400728D6842EA05220F4DFE
:1032C000A84207D100BF22F40062CD6842EA05227D
:1032D00022F48062094DA84209D123F4805323F4DB
:1032E00000534D6943EA05138D6943EA05134360B2
:1032F000C4614D68C563026230BD0000002C01400E
:1033000030B5056A25F480550562036A4468C269D0
:1033100022F4E04222F440720D6842EA052223F4CE
:1033200000538D6843EA0533064DA84204D124F4C6
:1033300080444D6944EA85144460C2614D68056467
:10334000036230BD002C014030B50B461446026AC2
:10335000056A25F001050562816921F0F00141EA65
:10336000041122F00A021A438161026230BD30B5B5
:103370000B461446056A25F0100505628169026A4C
:1033800021F4704141EA043122F0A00242EA031222
:103390008161026230BD000010B5FFF7C7FD4FF438
:1033A0009673232209A11248FFF7F2FB4FF496739C
:1033B000642210490E48FFF7EBFB4FF4967301228D
:1033C0000DA10B48FFF7E4FB10BD00004769612029
:1033D000747269206469656E20617020746169206F
:1033E0006368616E20504130206C613A200000001B
:1033F0009C010020FE0100200A00000010B5FFF72C
:10340000DBFD4FF49673232209A11248FFF7C0FB9E
:103410004FF49673642210490E48FFF7B9FB4FF43E
:10342000967301220DA10B48FFF7B2FB10BD0000FF
:1034300047696120747269206469656E206170203B
:10344000746169206368616E20504131206C613A7B
:10345000200000009C010020620200200A00000001
:1034600000BF4FF49673102202A10648FFF790FBAD
:10347000F7E7000052656C617920313020646F6E8F
:10348000672E0A009C01002070B505466C6A00207A
:10349000E085E0842046FFF7CBF870BD0168C9687D
:1034A00021F490710268D1600168496921F001013D
:1034B00002685161016B012905D10168C96821F0D9
:1034C00010010268D160202180F83E1000210163C4
:1034D000704710B504462068C06820F0400021689D
:1034E000C860202084F83D002046FFF7BAFB00208A
:1034F00010BDF8B5044694F83E00222869D1A068B2
:10350000B0F5805F0CD1206950B90025A66A20680B
:103510004068C0F308003080A06A801CA06215E0FB
:10352000A56A0026A068B0F5805F03D0A06828B91E
:10353000206918B920684068287004E02068406855
:1035400000F07F002870A06A401CA062E08D401E41
:1035500080B2E085A8BB2068C06820F02000216808
:10356000C8602068C06820F480702168C860206846
:10357000406920F0010021684861202084F83E0065
:10358000206B01281ED1002020632068C06820F035
:1035900010002168C8602068006800F01000102842
:1035A0000AD100BF002000902068006800902068C9
:1035B0004068009000BF00BFA18D2046FFF737F89C
:1035C00003E004E02046FFF703FA0020F8BD0020E6
:1035D000FCE70220FAE7000070B50446216809699B
:1035E00021F44051E2681143226811612269A16807
:1035F0001143626941EA02052168C96841F20C621F
:10360000914329432268D1602168496921F44071BE
:10361000A2691143226851612D4A2168914202D169
:10362000FEF7EAF901E0FEF7D7F900EBC00101EB84
:10363000001162689200B1FBF2F100EBC00202EBF4
:10364000001263689B00B2FBF3F26423B2FBF3F257
:1036500002EBC20303EB0212A1EB8201322202EB66
:1036600001116422B1FBF2F101F0F00100EBC002A4
:1036700002EB001263689B00B2FBF3F26423B2FB1F
:10368000F3F201EB021200EBC00101EB00116368E1
:103690009B00B1FBF3F100EBC00303EB0013666882
:1036A000B600B3FBF6F36426B3FBF6F303EBC306F5
:1036B00006EB0313A1EB8301322303EB0111642317
:1036C000B1FBF3F101F00F0111442268916070BD6C
:1036D0000038014010B5034699629A85DA850020CA
:1036E0001864222083F83E0000BF002083F83C00CD
:1036F00000BF1868C06840F480701C68E0601868FB
:10370000406940F001001C6860611868C06840F0C2
:1037100020001C68E060002010BD014691F83D00CB
:10372000212828D18868B0F5805F0BD1086948B995
:103730000A6A1088C0F308000B685860086A801C89
:10374000086205E00B6A581C086218780B6858601C
:10375000C88C401E80B2C88458B90868C06820F080
:1037600080000B68D8600868C06840F040000B68B3
:10377000D860002070470220FCE72DE9F0410446A4
:103780000D4617469846069E21E0701CF8B12EB1F2
:10379000FDF714FEA0EB0800B04218D92068C068FD
:1037A00020F4D0702168C8602068406920F00100D2
:1037B00021684861202084F83D0084F83E0000BF65
:1037C000002084F83C0000BF0320BDE8F0812068A1
:1037D00000682840A84201D1012000E00020B84242
:1037E000D3D00020F1E7000010B50248FEF722FF19
:1037F00010BD00009C01002000BFFEE700BFFFF7E6
:10380000CBFDFFF7FBFD41F28830FDF7A8F8F6E7A6
:103810000FB41CB50246002007AC00290BD0491E8E
:10382000CDE90021054B6A462146069800F0F6F8DE
:10383000009A002111701CBC5DF814FB4B4100087C
:1038400002480068C0F30220704700000CED00E061
:1038500010B5002804DB0A07130E054A135406E0CE
:103860000A07140E034A00F00F031B1FD45410BDA7
:1038700000E400E018ED00E002E008C8121F08C1F3
:10388000002AFAD170477047002001E001C1121FE1
:10389000002AFBD1704700002DE9FF5F82B00021B4
:1038A000DDE90430020DDDF840B0034318D044F6E2
:1038B0001050A2F2FF3242431514119801281FD074
:1038C000A5EB0B00401C5FEA000A4FF000064E4FCC
:1038D000DFF83891B046504615D5CAF1000413E020
:1038E000119801244AA3012801D16FEA0B01029823
:1038F000119AC0E90031C0E9024206B0BDE8F09F6C
:10390000CBF10000DFE704460021404A491842EBB2
:103910000450CDE9001012E0E00707D032463B46E4
:1039200040464946FCF77EFC8046894632463B4687
:1039300010461946FCF776FC06460F466410002C2C
:10394000EAD1DDE90401DDE90023BAF1000F06DA6E
:10395000FCF768FC42464B46FCF764FC05E0FCF7CC
:10396000D3FC42464B46FCF7CFFC04460E460022F1
:10397000284BFCF707FF03D84FF0FF30014607E064
:103980000022254B20463146FCF73CFEFCF7E1FEC9
:10399000102409E0002C0ADB0A220023FCF76DFD4D
:1039A000039B30321A55641E50EA0102F2D1641CA6
:1039B000039AC4F111031444119A012A03D001227D
:1039C00008430DD10AE0084304D000204FF0110B4A
:1039D000119072E7A3EB0B056D1E0DE05B4504DD56
:1039E0004FF0000205F1010504E003DA4FF0000298
:1039F000A5F10105002AECD002981199C0E9023125
:103A0000C0E9004579E70000000014400000F03FE5
:103A1000300000000000F0430000E03F2DE9FF4FC0
:103A200095B09B468946064600250FE2252877D1AA
:103A300000242746F84A0121059400E0044316F8C3
:103A4000013F203B01FA03F01042F7D130782A28D9
:103A500011D06FF02F033078A0F13002092A16D868
:103A6000059A44F0020402EB820203EB4202104486
:103A7000761C0590EFE759F8042B0592002A03DA2B
:103A8000504244F40054059044F00204761C30780F
:103A90002E2816D116F8010F44F004042A280DD060
:103AA0006FF02F023078A0F13003092B09D807EB13
:103AB000870302EB4303C718761CF3E759F8047B2E
:103AC000761C30786C280FD006DC4C2817D068287C
:103AD0000DD06A2814D104E0742810D07A280FD1B0
:103AE0000DE044F400140AE044F4801401E044F4CE
:103AF00040147278824202D104F58014761C761C40
:103B0000307866280BD013DC582877D009DC0028E1
:103B100075D04528F6D04628F4D047281AD19DE123
:103B200018E0632835D0642879D0652812D195E152
:103B3000702873D008DC6728F1D069286FD06E2810
:103B40000DD06F2806D1B5E073282CD0752875D01C
:103B5000782874D05A46179990476D1C75E1C4F3C4
:103B60000250022809D003280DD0D9F800100428EB
:103B70000DD00D6009F1040967E1D9F80010EA17CA
:103B8000C1E90052F6E7D9F800100D80F2E70D7098
:103B9000F0E719F8041B8DF8001000208DF80100E3
:103BA000EA46012003E059F804AB4FF0FF3061070B
:103BB0004FF0000102D40DE008F101018846B9423E
:103BC0000FDA8045F8DB1AF808100029F4D108E074
:103BD00008F1010188468142FADB1AF80810002931
:103BE000F6D105985B46A0EB080721463846179AA0
:103BF00000F094FA284400EB080507E04DE029E1C5
:103C00000DE01AF8010B5A4617999047B8F10108D0
:103C1000F7D25B4621463846179A13E142E00A2262
:103C20000092C4F302524FF0000A022A08D059F859
:103C300004CB032A4FEAEC710AD00DE029E02AE018
:103C400009F1070121F00702F2E802C1914609E0FB
:103C50000FFA8CFC4FEAEC71042A03D14FFA8CFC6A
:103C60004FEAEC71002907DA0A460021DCF1000C6A
:103C700061EB02012D2202E0220504D52B228DF8F2
:103C80000420012203E0E20701D02022F7E790465A
:103C900059E00A2102E010220DE010214FF0000A45
:103CA00000910BE010224FF0000A44F004040827B2
:103CB000009203E008224FF0000A0092C4F302527F
:103CC000022A05D059F804CB0021032A08D009E0C4
:103CD00009F1070121F00702F2E802C1914605E06F
:103CE0001FFA8CFC042A01D10CF0FF0C4FF00008E5
:103CF000220728D5702806D0009B83F0100353EAD2
:103D00000A0305D00EE040228DF80420012208E0CD
:103D10005CEA010206D030228DF804208DF80500FF
:103D200002229046009B83F0080353EA0A030AD15B
:103D30005CEA010201D1620705D530228DF804202A
:103D40004FF001087F1E582804D034A003900EA81D
:103D500002900DE036A0F9E753466046009AFCF762
:103D60008CFB84460398825C0298401E029002708D
:103D70005CEA0100F0D1029806A9081A00F1200AB5
:103D8000600702D524F4803400E00127574502DDA6
:103D9000A7EB0A0000E0002000EB0A010090059864
:103DA0004144401A0590E00306D45B462146179A29
:103DB000059800F0B3F90544002706E001A85A462B
:103DC000C05D179990476D1C7F1C4745F6DBE003EB
:103DD0000CD55B462146179A059800F09FF90544DB
:103DE00004E030205A46179990476D1C0099481EF0
:103DF00000900029F5DC08E0029802995A46007804
:103E0000491C0291179990476D1CBAF10001AAF163
:103E1000010AF1DC65E1000009280100303132338C
:103E200034353637383961626364656600000000F6
:103E300030313233343536373839414243444546E0
:103E40000000000000F058F90544761C3078002886
:103E50007FF4ECAD19B02846BDE8F08F620700D4BE
:103E6000062709F1070222F0070CFCE80223E146CD
:103E700003F000485FEA080C02D00FF2702C0DE04E
:103E80005FEA045C02D50FF2682C07E05FEAC47CAD
:103E900002D00FF2602C01E0AFF2700C4FF0FF384F
:103EA00023F00043CDF850C065280CD006DC45282F
:103EB00009D046281DD047283DD13DE0662818D0BE
:103EC00067287ED138E00021112F01DB112000E0AE
:103ED000781CCDE9000106A90EA8FFF7DDFCDDE99D
:103EE0000F010E9A03910021009207F1010A04913B
:103EF0004DE04FF000400097CDE9011006A90EA853
:103F0000FFF7CAFCDDE90F0203920E9B1199002214
:103F1000DDF80CA00093049211B9791C00EB010AA2
:103F2000B7EB0A0004D4C0F1FF3007F1010A049096
:103F3000AAEB0700019044E0012F00DA01270021DD
:103F4000112F01DD112000E03846CDE9000106A95E
:103F50000EA8FFF7A1FCDDE90F010E9A03910021E5
:103F600004910092BA4621070CD40399514500DA16
:103F70008A46BAF1010F05DD009AAAF10101515CF0
:103F8000302908D0B84202DA10F1040F06DA012114
:103F9000CDE9011015E0AAF10101E9E7002805DCEF
:103FA000049901440491AAEB000102E0411C51452F
:103FB00000DD8A460499401A401C01904FF00040F1
:103FC0000290200704D40198504501DBCDF804800D
:103FD00000208DF84F0002980DF14F07B0F1004F0F
:103FE00025D02B200E9002984FF0020800280CDA02
:103FF000404202902D200E9007E00A210298FCF723
:1040000026FA3031029007F8011DB8F10001A8F13D
:104010000108F2DC02980028EFD1791E0E98087092
:10402000307800F0200040F0450007F8020D12A89B
:10403000C01B00F107081498007800B1012000EBC4
:104040000A01019801EBE07105984144401A401EB5
:104050000590E00306D45B462146179A059800F0C8
:104060005DF805441498007818B15A46179990479E
:104070006D1CE00324D55B462146179A059800F095
:104080004DF805441CE00498002807DBDDE9030136
:10409000884203DD0098405C179901E017993020B1
:1040A0005A469047049805F10105401C0490019878
:1040B000401E019004D12E205A46179990476D1C3E
:1040C000BAF10001AAF1010ADDDC05E017F8010BE5
:1040D0005A46179990476D1CB8F10001A8F10108E4
:1040E000F4DC5B462146179A0598ABE62D000000EC
:1040F0002B000000200000002DE9F04104460025BF
:104100001E461746880404D405E039462020B047EF
:104110006D1C641EF9D52846BDE8F0812DE9F041FB
:10412000044600251E469046C80301D5302700E00E
:104130002027880404D505E041463846B0476D1C69
:10414000641EF9D52846BDE8F0814A68002A06D0E9
:104150000A68531C0B6010704868401E4860704726
:1041600010B504460D480E490860472048600021FC
:104170000B488160C460FDF70FFF0948FDF76AFF37
:104180006FF0010006490968086100BF0448006833
:10419000006900F001000028F8D010BD00040040C4
:1041A0005401002096B0FDF71BF9FEF765FFFEF7FE
:1041B00095FDFEF75FFEFEF757FDFEF7D5FDFEF716
:1041C00023FE4FF4967327221D491E48FEF7E0FC9C
:1041D0004FF4967326221C491A48FEF7D9FC012297
:1041E0001A491848FEF7D2FB04211948FEF7A8F92E
:1041F00000BF1C2217490FA8FBF7F0FF00210FA8F2
:1042000000F03CF8144908601C2212491C3108A82F
:10421000FBF7E4FF002108A800F030F80F49086020
:104220001C220C49383101A8FBF7D8FF002101A856
:1042300000F024F80A49086000F01BF800BFFEE710
:104240000C0000209C0100203400002033000020DE
:104250000C0100208C4F000800000020040000200A
:104260000800002001460020842901D0CA1C104407
:10427000704710B500F0B4FB002010BD7FB50446B8
:104280000D46606998B1A06988B1B4F90800FFF7DC
:10429000E9FF0646D4E90510CDE9006102902B46FE
:1042A0002269D4E9001000F0EFFC039013E0B4F9A8
:1042B0000800FFF7D7FF064603A8CDE90060238A70
:1042C0009AB22B46D4E9001000F0ACFC012802D0D1
:1042D000002004B070BD0398FBE7000010B5044651
:1042E00000F0D8FA23480068401C224908602248A0
:1042F000006840B9204804600846006801280DD1D4
:1043000000F03AF90AE01D48006838B91A48006818
:10431000C06AE16A884201D81748046018480068FA
:10432000401C1749086094F82C100120884015495A
:104330000968084313490860E16A01EB8101124AE8
:1043400002EB8100211D00F099FA00F0CDFA0B4834
:10435000006868B108480068C06AE16A884207D20C
:104360004FF0805009490860BFF34F8FBFF36F8F44
:1043700010BD00008C0000207C0000209800002070
:10438000A8000020940000206405002004ED00E057
:1043900010B516E000F07EFA0C48C068C468201D15
:1043A00000F03CFA0A480068401E094908600948C4
:1043B0000068401E0749086000F096FA204600F0A9
:1043C0000BF8044800680028E4D110BD2C0600203A
:1043D0008C0000208800002010B5044694F851009D
:1043E00030B9206B00F09EFA204600F09BFA1AE0EC
:1043F00094F85100012803D1204600F093FA12E00E
:1044000094F85100022801D1012000E0002050B9A9
:1044100000BF502080F31188BFF34F8FBFF36F8F21
:1044200000BF00BFFEE710BD30B54FF44063174832
:1044300000F007042CB1C01D20F00700134C041B32
:104440001B1B0246124C22600024114D6C60D018D8
:10445000083820F007000F4C206000240D4D2D6817
:104460006C600C4D2D682C601146441A4C60094C50
:1044700024680C60084D4C682C60084D4C682C601A
:104480004FF00044064D2C6030BD00005406002063
:10449000B8000020C0000020C8000020C400002098
:1044A000CC00002000BFFFF773FF0648006801281A
:1044B000F9D94FF0805004490860BFF34F8FBFF324
:1044C0006F8FF0E76405002004ED00E02DE9FF5F49
:1044D00081460F469246DDE90E6B109CAAF1010061
:1044E000216B01EB800828F0070808F0070008B9E5
:1044F000012000E0002050B900BF502080F3118857
:10450000BFF34F8FBFF36F8F00BF00BFFEE70025E3
:1045100007E0795D04F134004155785D00B902E0AF
:104520006D1C102DF5D300BF002143200155072E2F
:1045300000D30626E66266640020A064201D00F019
:104540009AF904F1180000F096F92461C6F1070009
:10455000A06164620020E06484F85000494640464F
:10456000039A00F049F92060BBF1000F01D0CBF8AD
:104570000040BDE8FF9F000010B5002407E004EBF9
:1045800084010F4A02EB810000F068F9641C072CDB
:10459000F5D30C4800F062F90B4800F05FF90B48C6
:1045A00000F05CF90A4800F059F90A4800F056F9A1
:1045B00004480949086004480849086010BD000023
:1045C00064050020F00500200406002018060020E5
:1045D0002C060020400600208000002084000020DF
:1045E00010B50146164800E0006803688B42FBD313
:1045F0000246436813448B4204D143684C68234409
:10460000436001460A464B6813440468A34211D133
:104610000C4C03682468A34208D04B6804686468A3
:1046200023444B6003681B680B6005E0054B1B6867
:104630000B6001E003680B60884200D0016010BD90
:10464000B8000020C00000200A490968096809B9BB
:10465000012100E0002121B14FF0FF31064A116035
:1046600006E004490968C968C868034A41681160DE
:104670007047000080000020AC0000200E48006859
:10468000401C08B9012000E0002050B900BF5020B4
:1046900080F31188BFF34F8FBFF36F8F00BF00BF50
:1046A000FEE700BF502080F31188BFF34F8FBFF3A8
:1046B0006F8F00BF00BFFEE7D00000202DE9F04162
:1046C00004464FF0000800F0E3F94648006808B9D6
:1046D000FFF7AAFE44480068204000286BD1D4B1FF
:1046E000083404F00700B0B104F00700C0F108007E
:1046F000044404F0070008B9012000E0002050B98C
:1047000000BF502080F31188BFF34F8FBFF36F8F2E
:1047100000BF00BFFEE7002C4DD034480068844243
:1047200049D8334E3046056801E02E462D6868684A
:10473000A04202D228680028F7D12A4800688542A2
:1047400039D0306800F10808286830606868001BBC
:10475000102819D92F1907F0070008B9012000E027
:10476000002050B900BF502080F31188BFF34F8F55
:10477000BFF36F8F00BF00BFFEE76868001B786063
:104780006C603846FFF72CFF184968680968081AFA
:10479000164908600846006816490968884203D22D
:1047A00012480068134908600F496868096808439F
:1047B00068600020286000F067FB08F0070008B977
:1047C000012000E0002050B900BF502080F3118884
:1047D000BFF34F8FBFF36F8F00BF00BFFEE74046B0
:1047E000BDE8F081C0000020CC000020C400002003
:1047F000B8000020C8000020001F4FF08073036045
:10480000001F21F001030360001F034B03601438F5
:1048100002602038704700007D46000801460A69A2
:10482000D1E901309860D1E90103586050688842AD
:1048300001D188685060002008611068401E106037
:1048400010687047034B0360034B0B6080231360B9
:1048500070470000C80200201C03002000F108017E
:1048600041604FF0FF31816000F10801C1600161DA
:1048700000210160704700210161704742684A6071
:1048800093688B60936859609160086103685B1C52
:104890000360704700BF502080F31188BFF34F8F33
:1048A000BFF36F8F00BF0E480068401C0C490860C2
:1048B00008460068012812D10A480068C0B208B949
:1048C000012000E0002050B900BF502080F3118883
:1048D000BFF34F8FBFF36F8F00BF00BFFEE770477E
:1048E000D000002004ED00E00D48006850B900BF82
:1048F000502080F31188BFF34F8FBFF36F8F00BF3D
:1049000000BFFEE706480068401E054908600846EB
:10491000006820B9002080F3118800BF00BF7047F5
:10492000D000002070B506463546002E3FD0083D29
:104930002C461F4960680968084008B1012000E062
:10494000002050B900BF502080F31188BFF34F8F73
:10495000BFF36F8F00BF00BFFEE7206808B90120DA
:1049600000E0002050B900BF502080F31188BFF351
:104970004F8FBFF36F8F00BF00BFFEE70C49606829
:104980000968084098B1206888B9094960680968D1
:104990008843606000F07CF8064960680968084454
:1049A000044908602046FFF71BFE00F06DFA70BD59
:1049B000CC000020C400002000204FF0E02108615E
:1049C0008861064800684FF47A71B0FBF1F0401E30
:1049D0004FF0E0214861072008617047780000200F
:1049E00010B586B000200590049003AA04A905A87C
:1049F000FFF728FF0022DDE904101346CDE900216E
:104A000002901CA11D48039A00F03EF91C49086061
:104A10000846006808B1012400E00024012C15D1EB
:104A200000BF502080F31188BFF34F8FBFF36F8F0B
:104A300000BF4FF0FF3013490860012012490860A1
:104A400000201249086000F071F810E0601C08B105
:104A5000012000E0002050B900BF502080F31188F1
:104A6000BFF34F8FBFF36F8F00BF00BFFEE706B0ED
:104A700010BD000049444C4500000000A54400085A
:104A8000B0000020AC000020980000209000002022
:104A900002480068401C014908607047B4000020CB
:104AA0001D48006818B101201C49086032E0002050
:104AB0001A4908601A480068B0FA80F0C0F11F0176
:104AC00001EB8100174A52F8200008B1012000E0F4
:104AD000002050B900BF502080F31188BFF34F8FE2
:104AE000BFF36F8F00BF00BFFEE701EB81020D4BEC
:104AF00003EB820042685268426000F1080243689A
:104B0000934202D14268526842604268D268064BC2
:104B10001A6000BF70470000B4000020A000002011
:104B200094000020640500207C0000201CB538495A
:104B3000084600780190FF200A4610700846007869
:104B400000909DF8000000F0F0009DF800209042D9
:104B500001D1012000E0002050B900BF502080F3B7
:104B60001188BFF34F8FBFF36F8F00BF00BFFEE709
:104B70009DF8000000F05000264A10700720264AD9
:104B8000106009E024480068401E234A10609DF828
:104B900000004006000E00909DF8000000F080002C
:104BA0008028EFD01C480068C0F10700042801D11C
:104BB000012000E0002050B900BF502080F3118890
:104BC000BFF34F8FBFF36F8F00BF00BFFEE71248E8
:104BD00000680002104A10601046008800F4E0608F
:104BE00010600B4A019810700C48006840F4700087
:104BF0000A4908600846006840F070400860FFF706
:104C0000DBFE002006490860FBF78CFA00201CBD83
:104C100000E400E0D4000020D800002020ED00E0F7
:104C2000D00000202DE9FF4F85B080468946174609
:104C3000DDE912ABB800FFF741FD064656B154203E
:104C4000FFF73CFD04460CB1266304E03046FFF755
:104C500069FE00E000248CB1002084F85100CDE909
:104C600000ABCDE902403A4649464046089BFFF773
:104C70002DFC2046FFF732FB012501E04FF0FF3508
:104C8000284609B0BDE8F08F2DE9F04F85B0074602
:104C9000884691469A46DDE90EB6109C0EB1012079
:104CA00000E0002050B900BF502080F31188BFF30E
:104CB0004F8FBFF36F8F00BF00BFFEE70CB1012025
:104CC00000E0002050B900BF502080F31188BFF3EE
:104CD0004F8FBFF36F8F00BF00BFFEE754200390DC
:104CE0000398542801D1012000E0002050B900BFF2
:104CF000502080F31188BFF34F8FBFF36F8F00BF39
:104D000000BFFEE7B4B1AEB125462C462E630220AB
:104D100085F85100002004A953464A46CDE900B168
:104D2000CDE9025041463846FFF7D0FB2846FFF751
:104D3000D5FA01E000200490049805B0BDE8F08F9A
:104D40002DE9F0414FF0000844480068002877D171
:104D500043480068451C4248056015BB414800684F
:104D6000006808B9012000E0002050B900BF5020C1
:104D700080F31188BFF34F8FBFF36F8F00BF00BF69
:104D8000FEE7384807683848006836490860364802
:104D9000076036480068401C34490860FFF754FC3F
:104DA00000BF3348006885423CD300BF2D480068EF
:104DB000006808B9012000E0002020B14FF0FF306A
:104DC0002B4908602DE027480068C068C468666801
:104DD000B54202D22648066023E0201DFFF71EFDE3
:104DE000A06A18B104F11800FFF718FD94F82C1010
:104DF000012088401F49096808431E490860E16A8C
:104E000001EB81011C4A02EB8100211DFFF736FDF9
:104E10001A49E06A0968C96A8842C7D34FF0010895
:104E2000C4E700BF15480068C06A00EB8000124963
:104E300051F82000012801D94FF0010805E0FFE7F3
:104E40000F480068401C0E4908600E48006808B111
:104E50004FF001084046BDE8F0810000B40000209A
:104E6000900000208000002084000020A40000208A
:104E7000AC00002094000020640500207C0000208D
:104E80009C000020A000002070B5002400263648B9
:104E9000006850B900BF502080F31188BFF34F8FD6
:104EA000BFF36F8F00BF00BFFEE7FFF7F3FC2E4894
:104EB0000068401E2C4908600846006800284FD151
:104EC0002A48006800284BD024E02948C068C468FC
:104ED00004F11800FFF7A2FC201DFFF79FFC94F8D7
:104EE0002C100120884023490968084321490860A3
:104EF000E16A01EB8101204A02EB8100211DFFF7ED
:104F0000BDFC1E49E06A0968C96A884202D30120D3
:104F10001B4908601648006808B9012000E000201D
:104F20000028D2D00CB1FFF78FFB1648056865B199
:104F300000BFFFF705FF10B10120114908606D1E89
:104F4000002DF6D100200F4908600D48006838B1E7
:104F5000012630070C490860BFF34F8FBFF36F8FF6
:104F6000FFF7C2FC304670BDB40000208C0000206A
:104F70001806002094000020640500207C0000201A
:104F8000A00000209C00002004ED00E0105000086C
:104F9000FD37000800000000000000008000000055
:104FA0000000000000000000F84F00086134000815
:104FB000FDFF000000000000800000000000000075
:104FC0000000000004500008D92E0008FDFF00007A
:104FD0000000000080000000000000000000000051
:104FE0000000000000000000010203040607080999
:104FF00000000000010203045461736B325F5541ED
:10500000525400005461736B335F506C75736500CC
:105010005461736B315F5472616E566F6C000000A7
:105020004050000800000020DC0000007838000834
:105030001C510008DC0000207C15000088380008A6
:105040000000000000000000000000005461736BCD
:10505000312E2044696575206B6869656E20646F28
:105060006E6720636F2062616E672072656C617984
:105070002E0A00005461736B322E2044756E672037
:1050800041444320646F6320676961207472692022
:105090006469656E2061702E0A0000000000000047
:1050A0000000000000000000000000000000000000
:1050B00010000000010000000024F40000000000C7
:1050C00000000000000000000000000000000000E0
:1050D00000000000000000000000000000000000D0
:1050E00000000000000000000000000000000000C0
:1050F00000000000000000000000000000000000B0
:10510000000000000000000000000000000000009F
:0C511000AAAAAAAA0000000000000000EB
:04000005080000ED02
:00000001FF
