:020000040800F2
:10000000E819002099010008093800086135000846
:1000100005380008211200088D410008000000008A
:1000200000000000000000000000000001010008C6
:10003000251200080000000045010008F139000801
:10004000B3010008B3010008B3010008B3010008C0
:10005000B3010008B3010008B3010008B3010008B0
:10006000B3010008B3010008B3010008B3010008A0
:10007000B3010008B3010008B3010008B301000890
:10008000B3010008B3010008B3010008B301000880
:10009000B3010008B3010008B3010008B301000870
:1000A000B3010008B3010008B3010008B301000860
:1000B000B3010008B3010008AD3A0008B30100081D
:1000C000B3010008B3010008B3010008B301000840
:1000D000B30100087D410008B3010008B301000826
:1000E000B3010008B3010008B3010008DFF80CD029
:1000F00000F036FE00480047BD4F0008E819002018
:10010000224B19680868B0E8F00F80F30988BFF344
:100110006F8F4FF0000080F311884EF00D0E704786
:100120000000000006480068006880F3088862B696
:1001300061B6BFF34F8FBFF36F8F00DF00BF00BF0B
:1001400008ED00E0EFF30980BFF36F8F0F4B1A68E3
:1001500020E9F00F106008B54FF0500080F31188CF
:10016000BFF34F8FBFF36F8F06F022F84FF0000000
:1001700080F31188BDE8084019680868B0E8F00FFE
:1001800080F30988BFF36F8F704700BF980000208D
:10019000EFF3058070470000064880470648004797
:1001A000FEE7FEE7FEE7FEE7FEE7FEE7FEE7FEE727
:1001B000FEE7FEE7A93A0008ED000008202A04DB6C
:1001C000203A21FA02F00021704721FA02F3D040D0
:1001D000C2F12002914008431946704740EA0103EA
:1001E0009B0703D009E008C9121F08C0042AFAD2ED
:1001F00003E011F8013B00F8013B521EF9D27047B1
:10020000D2B201E000F8012B491EFBD27047002258
:10021000F6E710B513460A4604461946FFF7F0FF05
:10022000204610BD421C10F8011B0029FBD1801A8A
:100230007047034611F8012B00F8012B002AF9D171
:10024000184670470FB400B58DB010A909900B90F7
:1002500000914FF0FF300A9000200C900548069066
:10026000054807906A4609A80F9900F093FC0DB065
:100270005DF814FBB10B0008CF0B00082DE9FF4F10
:10028000087883B09946FF2805D0491C2D2804D052
:100290000024002008E000200BE00124F9E700EB37
:1002A000800003EB4000491C0B78FF2BF7D104B111
:1002B000404200230293147819461D462D2C01D08C
:1002C0002B2C04D1521C2D2C13D000240294AA46AE
:1002D0001478FF2C0FD00A25A3FB057801FB0581BC
:1002E0004FF0000C03FB0C11521CE3194AEB010107
:1002F000EEE70124EAE7814453EA010002D019F550
:10030000C87F06DA03980021C0E9001107B0BDE8F4
:10031000F08F0025AE4E2F46DFF8B882184600F069
:10032000FBFCCDE90001B9F1000002DAC9F10004DB
:1003300000E004460023A74A1AEB030B42EB045AE1
:1003400012E0E00707D02A4633463846414600F01F
:100350005CFA074688462A4633461046194600F09E
:1003600054FA05460E466410002CEAD1DDE900017E
:10037000B9F1000F5A46534606DA00F0B8FA3A4689
:10038000434600F0B4FA05E000F03FFA3A4643462F
:1003900000F03BFA029A0AB181F00041039AC2E9E7
:1003A0000001B3E72DE9FF4F1F468DB0D7E90146A5
:1003B0004FF0FF382E2045464FF000090B90B969E9
:1003C0006D1C0E988847396A824688470028F6D106
:1003D000BAF1FF3F0AD024F4D064002E11DDBAF147
:1003E0002B0F08D0BAF12D0F0BD102E0404611B00F
:1003F0008DE744F48064B9696D1C0E988847824685
:10040000761E6946600501D52D2000E02B208DF871
:10041000000001F1010B0DF1200809E0B9696D1C24
:100420000E98884782460F9844F40074761E056043
:10043000002E02DDBAF1300FF0D00B998A453ED183
:1004400044F0800406E00F99681CA9F1010944F406
:1004500000740860B9696D1C761E0E988847824644
:100460003028F0D02BE00B998A4505D1200603D423
:1004700044F08004761E18E0504604F00FF808B3EC
:100480000DF11301761E44F400748B4508D2AAF1D5
:1004900030000BF8010B200607D5A9F1010003E09D
:1004A000200602D409F101008146A00502D50F996A
:1004B000681C0860B9696D1C0E9888478246002E3A
:1004C000D1DC53E0002E51DDBAF1650F02D0BAF154
:1004D000450F4BD1A00549D5B9696D1C24F4407472
:1004E000761E0E9888478246002E0CDD2B2804D0FD
:1004F000BAF12D0F07D144F48074B9696D1C0E98C0
:1005000088478246761EE00501D52D2100E02B218B
:1005100008F8011BCDF82C8021E00DF12901761E91
:1005200044F4007488450CD2AAF1300010F0FF00AA
:1005300088F8000002D10B99884509D908F1010813
:1005400006E0E00501D5244801E042F20F70814643
:10055000B9696D1C0E98884782460F980560002E79
:1005600004DD504603F09AFF0028D6D1F9690E98B1
:100570008847FF208BF8000088F8000000200690D4
:1005800007904B466A4608A906A8FFF777FEA00524
:1005900002D46FF001002AE714F0240F0AD0E0071C
:1005A00014D1DDE906123868031D3B600068C0E91C
:1005B00000120BE0DDE9060100F062FA0146E007F7
:1005C00004D13868021D3A600068016028460EE7D1
:1005D000000014400000F03FF1D8FFFF80EA010264
:1005E00010B502F00043400022D04A001FD0010E97
:1005F00001EB1261C0F35600C2F3560240F4000052
:1006000042F40002A0FB022000047F39140400D051
:10061000401C50EA124001D44000491EC2B20C06F0
:1006200004EBD010401C4008802A02D003E00020D8
:1006300010BD20F00100002900DA0020184310BD91
:1006400030B480EA010202F0004530F0004221F0AF
:10065000004013D090B1C30DD40DC2F31601C0F306
:100660001600E41A41F4000140F400027D34914286
:1006700001D3641C00E04900002C02DA30BC0020E9
:1006800070474FF400000023914201D3891A0343BD
:1006900040084FEA4101F7D151B1914202D14FF0E8
:1006A000004105E002D24FF0010101E06FF00101CD
:1006B00003EBC450284430BC00F09ABA2DE9FE4F39
:1006C000804681EA0300C00F0C46009021F00041F3
:1006D00023F00045B8EB0200A94105D2404621466F
:1006E00090461C460B46024623F00040104347D07C
:1006F000270DC7F30A00C3F30A510290401A019074
:1007000040286BDAC3F3130040F4801B0098924634
:1007100020B10023D2EB030A63EB0B0B019859467F
:10072000C0F14002504600F00EFA06460D46504613
:100730005946019A00F016FA10EB080061410024B6
:1007400087EA115284EAE7731A4340D0009A62B3F1
:10075000019A012A4FEA075215DC001B61EB0201E6
:100760004FF0004202EA0752CDE90042001C41F579
:10077000801132462B4600F081FA03B0BDE8F08FBD
:1007800040462146F9E7001B61EB0201001C41F5E0
:10079000801300185B412018A2F5001747EB0301F6
:1007A00040EAD570B6196D4111E06D084FEA360682
:1007B00045EAC0754FEA0752001B61EB0201001CBD
:1007C00041F5801149084FEA300000195141324685
:1007D0002B4603B0BDE8F04F00F041BA009801226B
:1007E00040000023D0EB020263EBE0730098214647
:1007F0004FEAE074B8EB000061EB0401E9E783F035
:1008000000435BE781F0004158E72DE9FE4F81EAA4
:10081000030404F0004421F0004100944FF0000B69
:1008200023F0004350EA01045ED052EA03045BD097
:10083000C3F30A54C1F30A552C44A4F2F3340194CF
:10084000A0FB0254C1F3130141F48011C3F313035D
:1008500043F4801301FB024400FB034E840A970A11
:1008600044EA815447EA8357A4FB076802958D0A3E
:1008700005FB07854FEA932C04FB0C542705029DCA
:100880004FEA065847EA1637B5EB08056EEB070C3A
:10089000870E920E47EA811742EA8312A7FB0201F4
:1008A000B6EB0B0164EB00042B0D43EA0C335E182E
:1008B00044EB1C50DA465146E7FB0201C5F3130432
:1008C0004FEA0B3343EA14534FEA0432019C43EAE4
:1008D0000603A4F10C040294009CCDE900B400F0DE
:1008E000CDF903B0BDE8F08F00200146F9E72DE90E
:1008F000F04D81EA030404F0004B21F0004514465A
:100900004FF0000A23F0004150EA050220D054EADB
:1009100001021DD0C5F30A570246C5F31303C1F304
:100920001300C1F30A5640F4801543F48013A7EB7B
:100930000608101BD64608F2FD3873EB050002D3FB
:1009400008F1010801E092185B41B8F1000F03DAE9
:1009500000200146BDE8F08D00204FF480110646CE
:1009600084460EE0171B73EB050705D3121B63EBE0
:10097000050306434CEA010C49084FEA300092187F
:100980005B4150EA0107EDD152EA030012D082EA3E
:10099000040083EA0501084305D0101BAB4106D2D1
:1009A0000122002306E000224FF0004302E06FF036
:1009B000010253101AEB06004CEB085110EB0A0031
:1009C00041EB0B01BDE8F04D00F049B99623002240
:1009D000114600F016B90EB5C10F80EAE070084468
:1009E000CA07002140F233438DE80E000A460B4649
:1009F00000F044F903B000BD00F0004230F00040C8
:100A00000AD0C10D01F56071C0F3160042EA015130
:100A1000C20840071143704700200146704700009C
:100A200030B5041E71F1000404DB4FF00044404275
:100A300064EB0101141E73F1000405DB1C464FF04A
:100A40000043524263EB04038B4208BF824230BD35
:100A500030B5041E71F1000404DB4FF00044404245
:100A600064EB0101141E73F1000405DB1C464FF01A
:100A70000043524263EB0403994208BF904230BDE9
:100A800001F0004330B421F0004150EA010206D0E9
:100A90000A0DA2F56072C1F31301002A02DC30BC1A
:100AA00000207047440F44EAC104C100E01830BC84
:100AB00000EBC25000F09CB830B50B460146002058
:100AC0002022012409E021FA02F59D4205D303FA10
:100AD00002F5491B04FA02F52844151EA2F1010291
:100AE000F1DC30BD2DE9F05F0546002092469B46C3
:100AF00088460646814640241BE028464146474634
:100B00002246FFF75BFB53465A46C01A914110D369
:100B100011461846224600F016F82D1A67EB010818
:100B20004F4622460120002100F00DF817EB000986
:100B30004E41201EA4F10104DFDC484631462A461E
:100B40004346BDE8F09F202A04DB203A00FA02F178
:100B5000002070479140C2F1200320FA03F31943AB
:100B600090407047202A06DBCB17203A41FA02F06A
:100B700043EAE07306E041FA02F3D040C2F12002FA
:100B80009140084319467047026811441378016088
:100B900018467047D160044951610449116200212F
:100BA0001161114600F0F4B8890B0008850D0008AA
:100BB000426842B1016811F8013B23B1521EC0E9FD
:100BC0000012184670470121C160881E70474268B4
:100BD0005AB1C368016843B983688B4205D0491E86
:100BE000521CC0E90012002070474FF0FF307047E0
:100BF0000029A8BF7047401C490008BF20F0010031
:100C0000704710B4B0FA80FC00FA0CF050EA01040E
:100C100004BF10BC704749B1CCF1200421FA04F4A0
:100C200011FA0CF118BF012121430843A3EB0C0179
:100C3000CB1D4FEA00614FEA102042BF002010BCDC
:100C4000704700EBC35010440029A4BF10BC70478C
:100C5000401C490008BF20F0010010BC704710B5CF
:100C6000141E73F1000408DA401C41F100019218CF
:100C70005B411A4301D120F0010010BD2DE9F04D78
:100C800092469B4611B1B1FA81F202E0B0FA80F2CD
:100C900020329046FFF757FF04460F4640EA0A000D
:100CA00041EA0B0153465A46084313D0114653EA12
:100CB000010019D0C8F140025046FFF77FFA0546FF
:100CC0000E46504659464246FFF73DFF084305D0C1
:100CD000012004E020463946BDE8F08D00200543A0
:100CE00046EAE0762C4337430A986305E40AA0EB12
:100CF00008000022FD0A44EA47540A3002D50020C9
:100D00000146E9E7010510196941DDE908450019C7
:100D10006941BDE8F04DA2E70EB540F233420292C0
:100D20000022CDE900221346FFF7A8FF03B000BD63
:100D3000C1F30A52C1F3130140F2FF3341F48011B1
:100D40009A4202DA00200146704740F233439A4249
:100D5000A2F2334202DC5242FFF730BAFFF7F3BE91
:100D6000064C074D06E0E06840F0010394E80700F8
:100D700098471034AC42F6D3FFF7BCF9706700080F
:100D800090670008C0B24FF4F05100F097B900002E
:100D90002DE9F34F8BB04FF0000801F10C000C4629
:100DA0004FF0010B46460DF1080A019062690121DE
:100DB00001989047051E2DD0252D2CD0216A8847FB
:100DC000C0B16269012101989047216A88470028D3
:100DD000F7D1411E62690198904700E0761CA16935
:100DE0000B988847216A88470028F7D1E1690B985A
:100DF0008847DBE7A1690B9888470746A84201D1DD
:100E0000761CD3E7E1690B9888477F1C02D1B8F1C3
:100E1000000F6FD046E1002762693D4639460198D0
:100E200090472A2804D16269012101989047012541
:100E3000DFF884926269012101989047A0F13001A6
:100E40000A290AD24F45E5DC07EB870100EB410791
:100E5000303FDFD445F01005ECE7E90601D46FF030
:100E600000476C280AD04C2814D0682815D06A286E
:100E70000DD074281CD07A281AD01DE06269012197
:100E8000019890476C2802D045F0040514E045F025
:100E900002050DE045F020050AE062690121019894
:100EA0009047682802D045F0080505E045F4006544
:100EB0006269012101989047C4E9015765283DD036
:100EC00019DC58287AD00CDC452837D004DC2528DA
:100ED00026D0412831D131E046282FD047282CD1C7
:100EE0002CE05B2877D0612828D063287CD0642848
:100EF00023D15AE0D0E06F2848D008DC66281DD006
:100F000067281BD0692821D06E2816D127E07028C9
:100F100045D0732868D0752847D078280DD14DE08A
:100F2000A1690B988847054625283FF469AFE16918
:100F30000B9888476D1C3FF46AAFB3E023466A46BE
:100F40006FF001000B99FFF72DFA9EE045F040008D
:100F50006060A80723464FF0000236D43EE0E80761
:100F60007FF447AF2068011D21600068290501D585
:100F700006701BE7290701D5068017E7A90703D5E7
:100F8000F117C0E9006111E706600FE745F0400086
:100F90006060A80723464FF0080216D41EE040F612
:100FA0000E0125EA0100606016E045F04000606037
:100FB000A80723464FF00A0207D40FE045F040008F
:100FC0006060A80708D5234610226FF001000B9936
:100FD000AFF3008059E007E0234610226FF00100D4
:100FE0000B99AFF3008050E04FF000094F464B469D
:100FF000632802D05B2806D040E0E80601D4012037
:10100000A06001273AE062690121019890475E28BB
:1010100005D14FF00109626949460198904721695D
:1010200039B900210A46534643F82120491C0829B2
:10103000FADBB0B3216969B9C11700EBD162531172
:101040000AEB830122F01F02821A01200B689040F4
:1010500003430B6062690121019890475D28E8D144
:10106000B9F1000F09D00020514651F82020D24399
:1010700041F82020401C0828F7DB02AB22460097ED
:101080006FF001000B99AFF3008000280CDA401CD0
:1010900008D1BBF1000F05D04FF0FF300DB0BDE817
:1010A000F08FFFE74046F9E7E90701D108F10108B1
:1010B00006444FF0000B79E6CCCCCC0C7F2801D94C
:1010C000002208E0064A02EB5002C007127800D165
:1010D000120902F00F020120904008407047000002
:1010E0000867000870B5044600252068806800F095
:1010F000010018B32068806820F001002168886032
:1011000000F0D4FD054613E000F0D0FD401B02289E
:101110000ED92068806800F0010048B1A06A40F054
:101120001000A062E06A40F00100E062012070BDA2
:101130002068806800F001000028E5D10020F6E773
:1011400038B504460025002000902068806800F033
:10115000010078BB2068806840F001002168886049
:10116000194800681949B0FBF1F0009002E00098BE
:10117000401E009000980028F9D100F097FD054628
:1011800019E000F093FD401B022814D92068806804
:1011900000F0010078B9A06A40F01000A062E06A97
:1011A00040F00100E06200BF002084F8240000BF8E
:1011B000012038BD05E02068806800F001000028AB
:1011C000DFD00020F5E700009400002040420F002F
:1011D0000EB5002000900190029000900120019037
:1011E000072002906946034800F02EF808B100F08D
:1011F00027F80EBD340100200EB5002000900190AC
:101200000290012000900190072002906946034857
:1012100000F01AF808B100F013F80EBD34010020F8
:1012200000BFFEE7704770B50446002505E04FF4A7
:101230007A7003F00DFE681C85B2A542F7DB70BD25
:1012400072B600BFFEE7000038B50246002300205A
:10125000009000BF92F82400012801D1022038BD7F
:10126000012082F8240000BF4868072812D21068C5
:10127000406B0C79641E04EB84051F24AC40A04332
:101280000D796D1E05EB85050C68AC402043146894
:10129000606327E048680D2812D21068006B0C7953
:1012A000E41F04EB84051F24AC40A0430D79ED1F1F
:1012B00005EB85050C68AC4020431468206311E001
:1012C0001068C06A0C790D3C04EB84051F24AC4007
:1012D000A0430D790D3D05EB85050C68AC4020431E
:1012E0001468E06208680A2812D31068C0680C7895
:1012F0000A3C04EB44050724AC40A0430D780A3DAA
:1013000005EB45058C68AC4020431468E0600FE0B5
:10131000106800690C7804EB44050724AC40A04336
:101320000D7805EB45058C68AC40204314682061BE
:101330000868102802D00868112827D1174C1068B7
:10134000A0421ED11068806800F40000F0B9106857
:10135000806840F400001468A0600868102815D167
:101360000F4800680F4CB0FBF4F000EB8000400029
:10137000009002E00098401E009000980028F9D1EB
:1013800004E0906A40F020009062012300BF00203A
:1013900082F8240000BF184661E7000000240140E5
:1013A0009400002040420F0001460868C06C70475E
:1013B0002DE9F0410446002700250026A84614B96F
:1013C0000120BDE8F081A06810B1207D00B100BF10
:1013D000A06A30B90020E06284F82400204600F0C2
:1013E00089F82046FFF77EFE0746A06A00F010004D
:1013F000002873D1002F71D1A06A20F4885040F0EA
:101400000200A062E16960680843217B40EA410074
:101410000643A068B0F5807F02D0A068012802D101
:101420004FF4807000E000200543207D012811D199
:10143000207B38B9A069401E4FF4006141EA40307A
:10144000054307E0A06A40F02000A062E06A40F097
:101450000100E0622068406820F469402843216868
:1014600048602068806821490840304321688860CE
:10147000A068B0F5807F02D0A068012802D14FF4A7
:10148000807000E00020B0F5807F03D1208A401EEC
:101490004FEA00582068C06A20F4700040EA080053
:1014A0002168C8622068806811490840B04208D1AC
:1014B0000020E062A06A20F0020040F00100A0627B
:1014C00011E0A06A20F0020040F01000A062E06A83
:1014D00040F00100E062012705E0FFE7A06A40F06C
:1014E0001000A062012738466BE70000FDF7E1FF1E
:1014F000FE0E1FFF10B586B0044600200290039038
:10150000049005901C49206888420DD100BF1B48FB
:10151000806940F40070194988610846806900F4C8
:101520000070019000BF25E015492068884221D154
:1015300000BF1248806940F4806010498861084605
:10154000806900F48060019000BF00BF00BF0846C2
:10155000806940F0040088610846806900F004005A
:10156000019000BF00BF03200290039002A905482C
:1015700000F006FA06B010BD002401400010024041
:101580000028014000080140F8B504460D46002639
:1015900000200090002700F089FB06462068806844
:1015A00000F4807050B1A06A40F02000A06200BF3B
:1015B000002084F8240000BF0120F8BD20684068A6
:1015C00000F4807020BB2068C06A00F47000F8B995
:1015D00017E0681CA8B125B100F068FB801BA84289
:1015E0000FD92068006800F0020050B9A06A40F0EE
:1015F0000400A06200BF002084F8240000BF032084
:10160000DBE72068006800F002000028E1D053E02A
:10161000022000F047FC38490968B1FBF0F021686E
:101620000969364A114091B92168C968921111407F
:1016300069B921680969324A114031B92168C9681C
:101640009211114009B9142117E0292115E02168F0
:1016500009692B4A114021B92168C96892111140CA
:1016600041B121680969274A114029B92168C9682F
:10167000114009B9542100E0FC2100FB01F718E0FA
:10168000681C98B125B100F011FB801BA8420DD950
:101690000098B8420AD2A06A40F00400A06200BFDD
:1016A000002084F8240000BF032086E70098401C37
:1016B00000900098B842E3D36FF0120021680860F0
:1016C000A06A40F40070A0622068806800F4602086
:1016D000B0F5602F0DD1207B58B9A06A20F480703E
:1016E000A062A06A00F4805018B9A06A40F001001E
:1016F000A062002061E700009400002024499224A9
:10170000922449124992240070B50446002500BF76
:1017100094F82400012801D1022070BD012084F832
:10172000240000BF2046FFF70BFD0546002D77D1B2
:10173000A06A40F20121884340F48070A0623C49D5
:101740002068884208D13B48006800F4702008B93E
:10175000012002E0002000E0012078B1A06A20F41E
:101760008010A0622068406800F4806000B3A06A26
:1017700020F4005040F48050A06219E0A06A40F4C8
:101780008010A0622B49091F2068884203D0284995
:101790002068884204D12748006800F4806000E097
:1017A000002028B1A06A20F4005040F48050A062CC
:1017B000A06A00F4805020B1E06A20F00600E062E8
:1017C00001E00020E06200BF002084F8240000BF98
:1017D000C01E216808602068806800F46020B0F5B1
:1017E000602F16D112492068884208D1114800683C
:1017F00000F4702008B9012002E0002000E0012080
:1018000038B12068806840F4A000216888600CE04E
:1018100006E02068806840F480102168886004E059
:1018200000BF002084F8240000BF284675E70000B0
:10183000002801400424014070B50446002500BF83
:1018400094F82400012801D1022070BD012084F801
:10185000240000BF2046FFF745FC05462DB9A06ACD
:1018600020F4885040F00100A06200BF002084F8FE
:10187000240000BF2846E8E70146002291F8210035
:10188000022808D00420886300BF002081F82000CF
:1018900000BF012070470868006820F00E000B6848
:1018A00018600868006820F001000B68186091F863
:1018B000403001209840CB6B5860012081F8210016
:1018C00000BF002081F8200000BF1046E2E70000C2
:1018D00070B50446002594F82100022803D00420A6
:1018E000A063012548E02068006820F00E00216810
:1018F00008602068006820F00100216808601F4926
:101900002068884201D1012026E01C49143120685A
:10191000884201D110201FE01849283120688842F0
:1019200001D1801518E015493C312068884201D169
:10193000801411E0114950312068884202D14FF4DF
:10194000803009E00D4964312068884202D14FF4AB
:10195000801001E04FF0807008490839486001208C
:1019600084F8210000BF002084F8200000BF606BD5
:1019700010B12046616B8847284670BD08000240C0
:101980002DE9F8470346002294466EE14FF0010826
:1019900008FA02F4D1F8008008EA0400A0427DD1E0
:1019A000DFF8DCA2D1F80480A8EB0A09D0453AD0D0
:1019B00014DCB8F1030F50D009DCB8F1000F31D0BE
:1019C000B8F1010F1CD0B8F1020F49D120E0B8F1F5
:1019D000110F18D0B8F1120F42D11EE0B9F5881FCF
:1019E00025D006DCB9F5803F20D0B9F5801F37D16E
:1019F0001AE0B9F5001F18D0B9F5041F30D117E06F
:101A0000D1F80CC02DE0D1F80C8008F1040C28E0CE
:101A1000D1F80C8008F1080C23E0D1F80C8008F113
:101A20000C0C1EE000BF00BF00BF00BF00BF00BF26
:101A3000D1F80880B8F1000F02D14FF0040C0BE090
:101A4000D1F80880B8F1010F03D14FF0080C1C61E8
:101A500002E04FF0080C5C6103E04FF0000C00E086
:101A600000BF00BFFF2801D8984601E003F1040839
:101A70004646FF2802D84FEA820803E0A2F1080890
:101A80004FEA88084746D6F800804FF00F0909FA58
:101A900007F928EA09080CFA07F900E088E048EAA3
:101AA0000908C6F80080D1F8048008F08058B8F121
:101AB000805F7DD100BFDFF8CC81D8F8188048F076
:101AC0000108DFF8C091C9F81880C846D8F8188016
:101AD00008F00108CDF8008000BF00BF4FEAB93818
:101AE0004FEA920958F829504FEA82784FEA18795C
:101AF0004FF00F0808FA09F825EA0805DFF8888191
:101B0000434502D14FF0000816E0DFF880814345DD
:101B100002D14FF001080FE0DFF87481434502D194
:101B20004FF0020808E0DFF86C81434502D14FF026
:101B3000030801E04FF004084FEA82794FEA19796F
:101B400008FA09F848EA0505DFF84C814FEA9209DE
:101B500048F82950D1F8048008F48038B8F5803F5F
:101B60000AD1DFF83881D8F8008048EA0008DFF8A9
:101B70002C91C9F8008009E0DFF82081D8F80080B6
:101B800028EA0008DFF81491C9F80080D1F8048031
:101B900008F40038B8F5003F10D1DFF8008108F1F3
:101BA0000408D8F8008048EA0008DFF8F09000E068
:101BB0005AE009F10409C9F800800DE0DFF8DC8083
:101BC00008F10408D8F8008028EA0008DFF8CC9073
:101BD00009F10409C9F80080D1F8048008F48018DC
:101BE000B8F5801F0ED1DFF8B48008F10808D8F8E6
:101BF000008048EA0008DFF8A49009F10809C9F854
:101C000000800DE0DFF8948008F10808D8F8008023
:101C100028EA0008DFF8849009F10809C9F8008073
:101C2000D1F8048008F40018B8F5001F0ED1DFF8D1
:101C30006C8008F10C08D8F8008048EA0008DFF84A
:101C40005C9009F10C09C9F800800DE0DFF84C80C8
:101C500008F10C08D8F8008028EA0008DFF83C906A
:101C600009F10C09C9F80080521CD1F8008028FA4B
:101C700002F8B8F1000F7FF489AEBDE8F8870000E4
:101C8000000011100010024000080140000C01404B
:101C90000010014000140140080001400004014010
:101CA0000AB1016101E00B0403617047014800685B
:101CB0007047000088000020034800680349097845
:101CC0000844014908607047880000209000002007
:101CD00010B50848006840F010000649086003206D
:101CE00000F0CCF8002000F007F800F049F80020E0
:101CF00010BD00000020024070B588B004460025E9
:101D00000026002221461E2000F07AF81E2000F056
:101D100067F800BF1648C06940F004001449C86164
:101D20000846C06900F00400019000BF00BF02A98E
:101D300003A800F0A1FA00F0C7FA45000D48B5FB72
:101D4000F0F0461E0C480D49086040F2E7310B48A0
:101D5000C160466000210161816000F095FD20B9FD
:101D6000064800F0EFFD08B070BD0120FBE7000061
:101D70000010024040420F0000080040AC06002066
:101D800008B500BF1448806940F00100124988611D
:101D90000846806900F00100009000BF00BF00BF4E
:101DA0000846C06940F08050C8610846C06900F02C
:101DB0008050009000BF00BF00220F21901E00F055
:101DC0001FF800BF0549486820F0E06040F000704F
:101DD000486000BF08BD0000001002400000014044
:101DE00001460846002809DB00F01F0301229A4043
:101DF00043099B0003F1E023C3F8002100BF7047B3
:101E00002DE9F05F80460D461646002702F002FAE3
:101E1000074639462A46334601F00700C0F1070A53
:101E2000BAF1040F02D94FF0040A01E0C0F1070A29
:101E3000D14600F1040ABAF1070F02D24FF0000AAE
:101E400001E0A0F1030AD4464FF0010A0AFA09FAA8
:101E5000AAF1010A0AEA020A0AFA0CFA4FF0010B87
:101E60000BFA0CFBABF1010B0BEA030B4AEA0B0478
:101E70002146404602F0D6F9BDE8F09F00BF00F0D1
:101E80000702064B19684FF6FF031940044B0B433A
:101E900043EA0221014B196000BF70470CED00E0DE
:101EA0000000FA052DE9F04385B006463BA30FCBB1
:101EB00001AC0FC43DA0006800904FF00008002561
:101EC00000270024A146012E30D0022E55D0102E1E
:101ED0005ED137484468006800F0807000B301A804
:101EE000C4F38341475C04F4803070B130484068EB
:101EF000C0F340401DF8008004F4803040B12D480C
:101F0000B0FBF8F000FB07F502E02B4807FB00F5FB
:101F10002748406800F48000B0F5800F01D1A94641
:101F200003E068000321B0FBF1F932E02048046AC5
:101F300004F44070B0F5807F05D104F0020010B1C8
:101F40004FF4004918E004F44070B0F5007F07D169
:101F50001748406A00F0020010B149F640490BE012
:101F600004F44070B0F5407F06D11148006800F4D9
:101F7000003008B14FF224490BE000F0B5F90C49EC
:101F80004968C1F38131491C4900B0FBF1F900E017
:101F900000BF00BF484605B0BDE8F083020304055A
:101FA000060708090A0B0C0D0E0F101001020000A5
:101FB0000010024000127A0000093D00F8B5044606
:101FC00000260025207800F0010000286BD00027B3
:101FD0004348C06900F0805070B900BF4048C069F4
:101FE00040F080503E49C8610846C06900F080500A
:101FF000009000BF00BF01273A48006800F48070DD
:10200000B0B93848006840F4807036490860FFF77E
:102010004DFE064606E0FFF749FE801B642801D905
:102020000320F8BD2F48006800F480700028F2D02B
:102030002B48006A00F440752DB3A08800F440706E
:10204000A84220D02648006A20F440750120264985
:102050000860002008602248056205F0010090B188
:10206000FFF724FE064608E0FFF720FE801B41F242
:102070008831884201D90320D3E71948006A00F06B
:1020800002000028F0D01648006A20F44070616811
:10209000084313490862012F04D10846C06920F0A3
:1020A0008050C86100BF207800F00200022807D1EC
:1020B0000B48406820F44040A16808430849486044
:1020C000207800F01000102807D10548406820F45F
:1020D0008000E1680843024948600020A1E7000051
:1020E00000100240007000404004424270B50446B7
:1020F0000D460CB9012070BD5A48006800F0070079
:10210000A8420ED25748006820F0070028435549DE
:1021100008600846006800F00700A84201D00120CE
:10212000E9E7207800F0020002281DD1207800F0B5
:102130000400042805D14C48406840F4E0604A4956
:102140004860207800F00800082805D1464840681B
:1021500040F46050444948604348406820F0F00033
:10216000A168084340494860207800F0010078B336
:102170006068012806D13C48006800F4003090B93E
:102180000120B8E76068022806D13748006800F0EF
:10219000007040B90120AEE73348006800F002004B
:1021A00008B90120A7E73048406820F003006168C3
:1021B00008432D494860FFF779FD064609E0FFF71F
:1021C00075FD801B41F28831884202D9032092E7D5
:1021D00007E02548406800F00C006168B0EB810F13
:1021E000EDD12048006800F00700A8420ED91D4834
:1021F000006820F0070028431A4908600846006874
:1022000000F00700A84201D0012074E7207800F018
:102210000400042807D11448406820F4E060E16815
:10222000084311494860207800F00800082808D1C8
:102230000D48406820F46050216940EAC1000A4915
:10224000486000F061F808494968C1F30311074A82
:10225000515CC8400649086006480068FFF74CFD1D
:10226000002048E70020024000100240F06600080D
:10227000940000208C0000200F2202600D4A52685A
:1022800002F0030242600B4A526802F0F0028260E0
:10229000084A526802F4E062C260064A526802F4D8
:1022A0006052D2080261044A126802F007020A6012
:1022B0007047000000100240002002400148006802
:1022C000704700009400002000B5FFF7F7FF0449B5
:1022D0004968C1F30221034A515CC84000BD0000B7
:1022E000001002400067000800B5FFF7E7FF04494F
:1022F0004968C1F3C221034A515CC84000BD0000D7
:102300000010024000670008F0B585B00FF26C0CB9
:102310009CE8E01001A8A0E8E0101CA52D6800953D
:1023200000210022002300240020194D696801F0DB
:102330000C05F5B1042D02D0082D19D101E0154886
:1023400019E001ADC1F38346AC5D01F4803555B1B0
:102350000F4D6D68C5F340451DF805200D4D6543D3
:10236000B5FBF2F302E00C4D04FB05F3184602E066
:1023700000BF084800BF00BF05B0F0BD0203040560
:10238000060708090A0B0C0D0E0F101001020000C1
:102390000010024000127A0000093D00F8B5044622
:1023A0000CB90120F8BD207800F00100002878D099
:1023B000F848406800F00C0004280CD0F54840684C
:1023C00000F00C00082811D1F248406800F4803079
:1023D000B0F5803F0AD1EF48006800F400300028D3
:1023E0005FD0606800285CD10120DBE700BF606837
:1023F000B0F5803F06D1E748006840F48030E549F9
:10240000086028E0606858B9E248006820F480302D
:10241000E04908600846006820F4802008601AE05F
:102420006068B0F5A02F0BD1DA48006840F4802036
:10243000D84908600846006840F4803008600AE027
:10244000D448006820F48030D2490860084600680B
:1024500020F48020086000BF606888B1FFF726FC88
:10246000054606E0FFF722FC401B642801D9032043
:1024700098E7C848006800F400300028F2D010E067
:10248000FFF714FC054606E0FFF710FC401B64282C
:1024900001D9032086E7BF48006800F40030002817
:1024A000F2D1207800F00200022857D1B9484068E4
:1024B00000F00C0050B1B748406800F00C0008284C
:1024C00018D1B448406800F4803098B9B148006829
:1024D00000F0020020B12069012801D0012061E74D
:1024E000AC48006820F0F800616940EAC100A949E1
:1024F000086033E02069E8B10120A7490860FFF7D0
:10250000D5FB054606E0FFF7D1FB401B022801D9A9
:10251000032047E79F48006800F002000028F2D03F
:102520009C48006820F0F800616940EAC1009949C0
:10253000086013E0002098490860FFF7B7FB0546E4
:1025400006E0FFF7B3FB401B022801D9032029E76F
:102550009048006800F002000028F2D1207800F0D6
:10256000080008282DD1A069B8B101208B49086066
:10257000FFF79CFB054606E0FFF798FB401B02288F
:1025800001D903200EE78348406A00F002000028CA
:10259000F2D0012001F052F913E000207F490860D9
:1025A000FFF784FB054606E0FFF780FB401B02288F
:1025B00001D90320F6E67748406A00F002000028BF
:1025C000F2D1207800F00400042873D1002771486C
:1025D000C06900F0805070B900BF6E48C06940F01B
:1025E00080506C49C8610846C06900F08050009076
:1025F00000BF00BF01276A48006800F48070B0B9CE
:102600006748006840F4807065490860FFF74EFB3A
:10261000054606E0FFF74AFB401B642801D903206A
:10262000C0E65F48006800F480700028F2D000BF68
:10263000E068012806D15748006A40F0010055497A
:10264000086227E0E06858B95248006A20F00100AB
:10265000504908620846006A20F00400086219E048
:10266000E06805280BD14B48006A40F00400494956
:1026700008620846006A40F0010008620AE0454826
:10268000006A20F00100434908620846006A20F011
:102690000400086200BFE068A0B1FFF707FB054631
:1026A00009E0FFF703FB401B41F28831884202D961
:1026B000032077E622E03748006A00F00200002895
:1026C000EFD012E0FFF7F2FA054608E0FFF7EEFA66
:1026D000401B41F28831884201D9032062E62D482F
:1026E000006A00F002000028F0D1012F05D129482E
:1026F000C06920F080502749C86100BFE069C8B3B5
:102700002448406800F00C00082860D0E0690228E6
:1027100048D1002020490866FFF7C8FA054606E0C0
:10272000FFF7C4FA401B022801D903203AE61948F2
:10273000006800F000700028F2D1206AB0F5803FF8
:1027400007D11448406820F40030A16808431149BB
:102750004860D4E9080108430E49496821F474111E
:1027600008430C49486001200B490866FFF79EFAB0
:10277000054607E03DE0FFF799FA401B022801D922
:1027800003200FE60348006800F000700028F2D034
:102790002FE000000010024000004242800442424C
:1027A00000700040002014490866FFF77FFA0546D4
:1027B00006E0FFF77BFA401B022801D90320F1E570
:1027C0000E48006800F000700028F2D111E0E069C6
:1027D000012800D1E6E50948466806F48031206A00
:1027E000814204D106F47011606A814201D0012057
:1027F000D8E50020D6E5000000004242001002406B
:102800007047704730B502460B4600BF92F83C0057
:10281000012801D1022030BD012082F83C0000BF18
:10282000022082F83D00106844681068816824F036
:1028300070041868044310684460104D1068A84282
:102840000BD01068B0F1804F07D00D4D1068A84232
:1028500003D00C4D1068A84205D121F080015868C2
:10286000014310688160012082F83D0000BF002014
:1028700082F83C0000BF00BFCDE70000002C014003
:10288000000400400008004010B504460CB90120C7
:1028900010BD94F83D0028B9002084F83C00204683
:1028A00000F026F8022084F83D00211D206801F088
:1028B00005F9012084F8460000BF84F83E0001219C
:1028C0003F200155402001554120015500BF00BF68
:1028D000012084F842004320015544200155452041
:1028E000015500BF012084F83D000020D0E7000022
:1028F00008B50168B1F1804F0DD100BF0F49C9691A
:1029000041F001010D4AD1611146C96901F001018F
:10291000009100BF11E00A4A016891420DD100BF49
:102920000649C96941F00201044AD1611146C969E9
:1029300001F00201009100BF00BF08BD001002407D
:1029400000040040014691F83D00012801D001201B
:102950007047022081F83D000868C06840F001001F
:102960000B68D860124B086898420BD00868B0F129
:10297000804F07D00F4B0868984203D00E4B086871
:1029800098420CD10868806800F00702062A0CD033
:102990000868006840F001000B68186005E00868EE
:1029A000006840F001000B6818600020D0E70000CC
:1029B000002C014000040040000800402DE9F041D7
:1029C00004460D4600BF94F83C00012802D10220C5
:1029D000BDE8F081012084F83C0000BF022084F8AB
:1029E0003D002068866826F0770626F47F4620683A
:1029F00086602868502833D00CDC202850D004DCB6
:102A000000284BD0102851D149E0302849D0402827
:102A10004CD139E060282DD0702807D0B0F5805F08
:102A200003D0B0F5005F41D10DE040E0D5E90213DD
:102A30006A68206801F08DF82068866846F077069D
:102A40002068866033E0D5E902136A68206801F0E7
:102A500080F82068806840F480402168886026E023
:102A6000EA686968206801F045F95021206801F0A2
:102A70007BF81CE0EA686968206801F04EF9602183
:102A8000206801F071F812E0EA686968206801F0D6
:102A900031F94021206801F067F808E000BF00BF6D
:102AA00000BF2968206801F05FF800E000BF00BFA8
:102AB000012084F83D0000BF002084F83C0000BFE6
:102AC00000BF85E7704710B5044620680069C0F371
:102AD0004000D8B12068C068C0F34000B0B16FF0CA
:102AE000020021680861012020772068806900F0D9
:102AF000030018B12046FFF7E5FF05E0204600F08F
:102B0000E3F8204600F093F9002020772068006960
:102B1000C0F38000D8B12068C068C0F38000B0B1B5
:102B20006FF0040021680861022020772068806926
:102B300000F4407018B12046FFF7C4FF05E02046BE
:102B400000F0C2F8204600F072F9002020772068DB
:102B50000069C0F3C000D8B12068C068C0F3C000ED
:102B6000B0B16FF008002168086104202077206868
:102B7000C06900F0030018B12046FFF7A3FF05E08D
:102B8000204600F0A1F8204600F051F900202077FF
:102B900020680069C0F30010D8B12068C068C0F395
:102BA0000010B0B16FF01000216808610820207794
:102BB0002068C06900F4407018B12046FFF782FF1A
:102BC00005E0204600F080F8204600F030F90020B3
:102BD00020772068006900F0010058B12068C068C3
:102BE00000F0010030B16FF001002168086120465B
:102BF00000F088F920680069C0F3C01058B120685F
:102C0000C068C0F3C01030B16FF080002168086167
:102C10002046FFF7F5FD20680069C0F3801058B129
:102C20002068C068C0F3801030B16FF040002168A8
:102C30000861204600F072F920680069C0F3401076
:102C400058B12068C068C0F3401030B16FF0200068
:102C5000216808612046FFF7D4FD10BD10B586B08D
:102C60000446002002900390049005902068B0F183
:102C7000804F21D100BF1148806940F008000F4902
:102C800088610846806900F00800019000BF00BF1D
:102C90000820029002200390059002A90848FEF740
:102CA0006FFE00BF0749486820F4407040F0E060C4
:102CB00040F48070486000BF06B010BD00100240B4
:102CC000000C014000000140704770B504460D46FD
:102CD000164600BF94F83C00012801D1022070BDC7
:102CE000012084F83C0000BF36B1042E1BD0082E12
:102CF00031D00C2E5ED145E02946206800F03EFF21
:102D00002068806940F00800216888612068806937
:102D100020F00400216888612068806929690843DF
:102D20002168886147E02946206800F057FF206845
:102D3000806940F40060216888612068806920F41F
:102D400080602168886120688069296940EA0120E3
:102D5000216888612FE02946206800F073FF206811
:102D6000C06940F008002168C8612068C06920F08F
:102D700004002168C8612068C06929690843216886
:102D8000C86118E02946206800F090FF2068C069FB
:102D900040F400602168C8612068C06920F4806048
:102DA0002168C8612068C069296940EA012021685A
:102DB000C86100E000BF00BF00BF002084F83C00F5
:102DC00000BF00BF8BE710B504460CB9012010BD51
:102DD00094F83D0028B9002084F83C00204600F01B
:102DE00025F8022084F83D00211D206800F066FED1
:102DF000012084F8460000BF84F83E0001213F20F6
:102E00000155402001554120015500BF00BF012060
:102E100084F84200432001554420015545200155C6
:102E200000BF012084F83D000020D0E770477047C4
:102E300070B504460D4615B994F83E000BE0042D1C
:102E400002D13F20005D06E0082D02D14020005D48
:102E500001E04120005D012801D0012070BD1DB9B5
:102E6000022084F83E000EE0042D03D102213F2011
:102E7000015508E0082D03D102214020015502E050
:102E800002214120015501222946206800F050FE10
:102E900019492068884201D1012000E0002028B1B2
:102EA0002068406C40F40040216848641249206862
:102EB00088420BD02068B0F1804F07D00F492068BE
:102EC000884203D00E49206888420CD1206880686F
:102ED00000F00706062E0CD02068006840F00100C4
:102EE0002168086005E02068006840F00100216862
:102EF00008600020B2E70000002C01400004004000
:102F00000008004010B5044603492068884201D1FA
:102F1000FEF7D2FE10BD0000000800407047704769
:102F2000704700002DE9F84F0446206805682068C6
:102F3000C668206847694FF00009CA4605F00F09C6
:102F4000B9F1000F0AD105F0200038B106F02000D9
:102F500020B1204600F098FFBDE8F88FB9F1000FCE
:102F600071D007F0010018B906F4907000286AD0FB
:102F700005F0010030B106F4807018B1206C40F00B
:102F80000100206405F0040030B107F0010018B121
:102F9000206C40F00200206405F0020030B107F020
:102FA000010018B1206C40F00400206405F0080016
:102FB00048B106F0200010B907F0010018B1206CEC
:102FC00040F008002064206C68B305F0200028B1B0
:102FD00006F0200010B1204600F056FF206840693E
:102FE000C0F3801A206C00F0080010B9BAF1000F8D
:102FF00022D0204600F01DFF2068406900F040000C
:10300000B0B12068406920F0400021684861A06BA1
:1030100050B15648A16B4863A06BFEF759FC10B144
:10302000A06B416B88470CE02046FFF779FF08E072
:103030002046FFF775FF04E02046FFF771FF0020F0
:10304000206489E7FFE7206B012878D105F01000A4
:10305000002874D006F01000002870D000BF0020B7
:10306000009020680068009020684068009000BFD1
:1030700000BF2068406900F04000C0B3A06B00684A
:1030800040681FFA80F8B8F1000F2FD0A08D40459E
:103090002CDDA4F82E80A06B806920281FD020682A
:1030A000C06820F480702168C8602068406920F002
:1030B0000100216848612068406920F040002168D3
:1030C0004861202084F83E00002020632068C0680A
:1030D00020F010002168C860A06BFEF7CDFBA08D2A
:1030E000E28D801A81B22046FFF719FF34E7FFE72F
:1030F000A08DE18D401A1FFA80F8E08DE8B1B8F19B
:10310000000F1AD02068C06820F490702168C86051
:103110002068406920F0010021684861202084F87F
:103120003E00002020632068C06820F01000216865
:10313000C86041462046FFF7F2FE0DE7FFE705F0C5
:10314000800030B106F0800018B1204600F0AFFFDB
:1031500002E705F0400030B106F0400018B120460B
:1031600000F082FEF8E600BFF6E600001F3E000811
:1031700010B504460CB9012010BDA06900B100E0F3
:1031800000BF94F83D0028B9002084F83C00204698
:1031900000F028F8242084F83D002068C06820F45E
:1031A00000502168C860204600F0E0FE20680069F9
:1031B00020F49040216808612068406920F02A00CE
:1031C000216848612068C06840F400502168C860E8
:1031D00000202064202084F83D0084F83E00002078
:1031E000CAE7000010B586B00446002002900390A4
:1031F000049005901E492068884236D100BF1D48C2
:10320000806940F480401B4988610846806900F469
:103210008040019000BF00BF00BF0846806940F0B9
:10322000040088610846806900F00400019000BF36
:1032300000BF48150290022003900320059002A9C8
:103240000D48FEF79DFB4FF4806002900020039034
:10325000049002A90848FEF793FB002205212520CF
:10326000FEF7CEFD2520FEF7BBFD06B010BD000029
:1032700000380140001002400008014070B50446CB
:103280000D46164694F83E00202816D105B10EB919
:10329000012070BD00BF94F83C00012801D102203C
:1032A000F7E7012084F83C0000BF0020206332468D
:1032B0002946204600F0D8FEEBE70220E9E70000AF
:1032C00010B504464C48007831280BD14FF4967362
:1032D0000F224AA14D4800F0D9F8012210214C4894
:1032E000FEF7DEFC4448007832280BD14FF4967389
:1032F0000F2248A1454800F0C9F801222021444886
:10330000FEF7CEFC3C48007833280BD14FF496737F
:103310000F2244A13D4800F0B9F8012240213C4869
:10332000FEF7BEFC3448007861280BD14FF4967349
:103330000E2240A1354800F0A9F80022102134489F
:10334000FEF7AEFC2C48007862280BD14FF4967340
:103350000E223CA12D4800F099F8002220212C4893
:10336000FEF79EFC2448007863280BD14FF4967337
:103370000E2238A1254800F089F800224021244877
:10338000FEF78EFC1C480078302815D14FF4967358
:10339000152234A11D4800F079F8002210211C48A4
:1033A000FEF77EFC002220211948FEF779FC00225E
:1033B00040211748FEF774FC0F48007870280FD1A1
:1033C0004FF4967306222DA1104800F05FF800F02C
:1033D0001DFA4FF4967304222AA10C4800F056F807
:1033E00005480078642801D102F012FD012202494B
:1033F0000648FFF743FF10BD3300002052656C61A3
:1034000079203120646F6E672E0A0000F4010020DD
:10341000000C014052656C6179203220646F6E6748
:103420002E0A000052656C6179203320646F6E674C
:103430002E0A000052656C61792031206361742E80
:103440000A00000052656C61792032206361742E9D
:103450000A00000052656C61792033206361742E8C
:103460000A000000436120332052656C61792063BB
:10347000756E67206361742E0A00000053746172D8
:10348000740A0000456E640A000000002DE9F84F40
:1034900004460E46174699464FF0000A94F83D0040
:1034A00020285AD106B117B90120BDE8F88F00BF16
:1034B00094F83C00012801D10220F6E7012084F8AD
:1034C0003C0000BF00202064212084F83D00FEF76E
:1034D000EDFB8246A784E784A068B0F5805F04D145
:1034E000206910B90025B04602E035464FF00008CB
:1034F00000BF002084F83C0000BF1BE053460022C0
:1035000080212046CDF8009000F001FE08B1032094
:10351000CBE745B9B8F80000C0F30800216848605F
:1035200008F1020803E02878216848606D1CE08CEF
:10353000401EE084E08C0028E0D153460022402168
:103540002046CDF8009000F0E2FD08B10320ACE782
:10355000202084F83D000020A7E70220A5E770475F
:1035600000BFFEE70EB500200090019002901248C7
:1035700012490860002111488160017301754FF400
:103580006021C16100200D49486001210B480161A3
:10359000FDF70EFF08B1FDF753FE1120009001204A
:1035A00001900020029069460448FDF74DFE08B1E5
:1035B000FDF746FE0EBD000000240140040100207E
:1035C0000EB500200090019002901848184908603C
:1035D00081151748816001210173002101754FF4A5
:1035E0006021C16100201249486002211048016138
:1035F000FDF7DEFE08B1FDF723FE0020009001205C
:1036000001900720029069460948FDF71DFE08B1A8
:10361000FDF716FE01200090022001906946044843
:10362000FDF712FE08B1FDF70BFE0EBD00280140AC
:103630003401002000B585B0002001900290039075
:10364000049000BF1C48806940F020001A4988613E
:103650000846806900F02000009000BF00BF00BF56
:103660000846806940F0040088610846806900F0DF
:103670000400009000BF00BF00BF0846806940F012
:10368000080088610846806900F00800009000BFCB
:1036900000BF002270210948FEF702FB7020019054
:1036A00001200290002003900220049001A9034809
:1036B000FEF766F905B000BD00100240000C0140A5
:1036C00000B58DB0002009900A900B900C900790E7
:1036D00008901C216846FCF79AFD4FF080401F4976
:1036E00008604720486000211C48816042F20F7149
:1036F000C160002101618161FFF7C6F808B1FDF7E3
:103700009FFD4FF48050099009A91448FFF756F91E
:1037100008B1FDF795FD1148FFF755FB08B1FDF71E
:103720008FFD00200790089007A90C48FFF76AF862
:1037300008B1FDF785FD70200090002001900290F7
:103740000490042269460548FFF7BFFA08B1FDF767
:1037500077FD0248FFF782FA0DB000BD640100203A
:1037600000B587B00020039004900590069001906A
:10377000029014481449086047204860002112480C
:1037800081604FF6FF71C160002101618161FFF727
:103790007BF808B1FDF754FD4FF48050039003A966
:1037A0000948FFF70BF908B1FDF74AFD0020019029
:1037B000029001A90448FFF725F808B1FDF740FD84
:1037C00007B000BD00040040AC01002010B50B485C
:1037D0000B4908604FF4165048600021084881608A
:1037E000C16001610C21416100218161C161FFF76C
:1037F000BFFC08B1FDF724FD10BD000000380140FA
:10380000F401002000BFFEE700BFFEE710B541F263
:1038100088300649096888634FF47A70FDF703FD24
:10382000002002490968886310BD0000640100207F
:1038300000BF012001F02BFCFBE7000008B50849A0
:103840000968C9084FF47A72B1FBF2F14143009163
:1038500000BF00BF00994A1E00920029F9D108BD9F
:10386000940000202DE9FC41FDF7B2FC1F48FDF754
:103870004BFF4FF496711D48FDF786FE1B48FDF780
:1038800093FD0446FDF7A2F8194948601748FDF773
:10389000D3FF1749486817490968FCF79FFE04469B
:1038A0001549FCF7CDFE1549086015491348006815
:1038B000FCF794FE8046FDF79FF806464FF066320F
:1038C000104BFDF714F80446FDF7DAF80B490860D1
:1038D00008460068FDF790F80BA2CDE900016321CE
:1038E0000B4800F06BFCBDE8FC81000034010020B7
:1038F000840300206400002000F07F455C0000206D
:103900000000A04066660A40252E326600000000D6
:10391000560200207CB5FDF76FFC1548FDF7F4FE5C
:103920004FF496711248FDF72FFE1148FDF73CFD4C
:103930000446FDF74BF80F49886088680E4909680E
:10394000FCF74CFE04460D49FCF77AFE0C49086072
:103950000748FDF771FF0A480068FDF74DF809A216
:10396000CDE900016321094800F028FC7CBD00007E
:1039700034010020840300206400002000F07F4513
:1039800060000020252E326600000000BA020020F0
:103990002DE9F0411148FDF7B7FE4FF496710F483D
:1039A000FDF7F2FD0D48FDF7FFFC0446FDF70EF8AC
:1039B0000B4908600868FDF71FF8064632460B46BB
:1039C00008480949FCF793FF0446FDF759F80749F1
:1039D00008600248FDF730FFBDE8F08104010020D7
:1039E00084030020703D0AD72363B34064000020A5
:1039F00010B500BF502080F31188BFF34F8FBFF385
:103A00006F8F00BF02F024FD18B14FF080500449C1
:103A1000086000BF002080F3118800BF10BD0000C7
:103A200004ED00E000B593B0282109A8FCF7EFFBF6
:103A3000142104A8FCF7EBFB0020009001900290F9
:103A400003900120099000040A9000200B900120AF
:103A50000D9002201090C10311914FF4E0111291CA
:103A600009A8FEF79BFC08B1FDF7EAFB0F200490C4
:103A700002200590002006904FF4806007900020FF
:103A80000890022104A8FEF731FB08B1FDF7D8FB2E
:103A900002200090800302906846FEF78FFA08B17A
:103AA000FDF7CEFB13B000BD7047000010B5024813
:103AB000FFF709F810BD0000AC06002010B5026841
:103AC000184B984208D0B0F1804F05D0164B984261
:103AD00002D0164B984203D122F070024B681A4371
:103AE000104B984208D0B0F1804F05D00E4B984251
:103AF00002D00E4B984203D122F44072CB681A4395
:103B000022F080034C6943EA040202608B68C362BE
:103B10000B688362034B984201D10B690363012355
:103B2000436110BD002C014000040040000800402B
:103B300030B501F01F05012404FA05F3046A9C4323
:103B40000462046A01F01F0502FA05F52C430462C1
:103B500030BD30B50C46816821F47F4142EA03252F
:103B600025432943816030BD0A46816821F07001F8
:103B700042F00703194381607047000030B5056AC1
:103B800025F001050562026A4368846924F0700427
:103B900024F003040D682C4322F002028D682A43AE
:103BA0000D4DA84206D100BF22F00802CD682A437D
:103BB00022F00402084DA84207D123F4807323F4B5
:103BC00000734D692B438D692B43436084614D68BD
:103BD0004563026230BD0000002C014030B5056A2B
:103BE00025F010050562026A4368846924F4E04404
:103BF00024F440740D6844EA052422F020028D6804
:103C000042EA05120E4DA84207D100BF22F0800201
:103C1000CD6842EA051222F04002094DA84209D1BE
:103C200023F4806323F400634D6943EA85038D69BF
:103C300043EA8503436084614D688563026230BD59
:103C4000002C014030B5056A25F480750562026AD2
:103C50004368C46924F0700424F003040D682C4305
:103C600022F400728D6842EA05220F4DA84207D166
:103C700000BF22F40062CD6842EA052222F480628D
:103C8000094DA84209D123F4805323F400534D6910
:103C900043EA05138D6943EA05134360C4614D6827
:103CA000C563026230BD0000002C014030B5056ADA
:103CB00025F480550562036A4468C26922F4E04233
:103CC00022F440720D6842EA052223F400538D6805
:103CD00043EA0533064DA84204D124F480444D69DB
:103CE00044EA85144460C2614D680564036230BDD6
:103CF000002C014030B50B461446026A056A25F0D7
:103D000001050562816921F0F00141EA041122F008
:103D10000A021A438161026230BD30B50B46144677
:103D2000056A25F0100505628169026A21F4704177
:103D300041EA043122F0A00242EA031281610262E8
:103D400030BD000070B5FFF78DFD0A480068FCF734
:103D500053FE04460022084BFCF762FE04D207A182
:103D60000C48FCF766FA03E00B490A48FCF761FAD5
:103D700070BD00005C000020000008404368616ED8
:103D8000205041302064616E6720746861206E6F3E
:103D9000692E0000900300205602002070B5FFF746
:103DA000B9FD0A480068FCF727FE04460022084BCC
:103DB000FCF736FE04D207A10C48FCF73AFA03E000
:103DC0000B490A48FCF735FA70BD0000600000207E
:103DD000000004404368616E205041312064616EF0
:103DE0006720746861206E6F692E0A00F40300205A
:103DF000BA02002010B5FFF7CBFD4FF49673642292
:103E000002490348FFF742FB10BD00001E030020DB
:103E1000F401002000BF012001F039F9FBE770B583
:103E200005466C6A0020E085E0842046FFF778F8BC
:103E300070BD0168C96821F490710268D1600168A1
:103E4000496921F0010102685161016B012905D125
:103E50000168C96821F010010268D160202180F852
:103E60003E1000210163704710B504462068C06809
:103E700020F040002168C860202084F83D002046E2
:103E8000FFF76DFB002010BDF8B5044694F83E0026
:103E9000222869D1A068B0F5805F0CD1206950B9A3
:103EA0000025A66A20684068C0F308003080A06A38
:103EB000801CA06215E0A56A0026A068B0F5805FAE
:103EC00003D0A06828B9206918B920684068287014
:103ED00004E02068406800F07F002870A06A401C61
:103EE000A062E08D401E80B2E085A8BB2068C0685B
:103EF00020F020002168C8602068C06820F480702D
:103F00002168C8602068406920F00100216848618C
:103F1000202084F83E00206B01281ED10020206361
:103F20002068C06820F010002168C8602068006820
:103F300000F0100010280AD100BF00200090206877
:103F40000068009020684068009000BF00BFA18D0D
:103F50002046FEF7E4FF03E004E02046FFF7B0F957
:103F60000020F8BD0020FCE70220FAE770B5044607
:103F70002168096921F44051E26811432268116106
:103F80002269A1681143626941EA02052168C96892
:103F900041F20C62914329432268D160216849694A
:103FA00021F44071A2691143226851612D4A2168B0
:103FB000914202D1FEF798F901E0FEF785F900EB96
:103FC000C00101EB001162689200B1FBF2F100EB5D
:103FD000C00202EB001263689B00B2FBF3F26423A1
:103FE000B2FBF3F202EBC20303EB0212A1EB82017C
:103FF000322202EB01116422B1FBF2F101F0F00177
:1040000000EBC00202EB001263689B00B2FBF3F20C
:104010006423B2FBF3F201EB021200EBC00101EBEF
:10402000001163689B00B1FBF3F100EBC00303EBED
:1040300000136668B600B3FBF6F36426B3FBF6F331
:1040400003EBC30606EB0313A1EB8301322303EB5F
:1040500001116423B1FBF3F101F00F011144226857
:10406000916070BD0038014010B5034699629A8591
:10407000DA8500201864222083F83E0000BF00206B
:1040800083F83C0000BF1868C06840F480701C686A
:10409000E0601868406940F001001C6860611868C1
:1040A000C06840F020001C68E060002010BD0146A0
:1040B00091F83D00212828D18868B0F5805F0BD1A8
:1040C000086948B90A6A1088C0F308000B6858608C
:1040D000086A801C086205E00B6A581C08621878A0
:1040E0000B685860C88C401E80B2C88458B90868F4
:1040F000C06820F080000B68D8600868C06840F095
:1041000040000B68D860002070470220FCE72DE9D2
:10411000F04104460D4617469846069E21E0701C65
:10412000F8B12EB1FDF7C2FDA0EB0800B04218D9DE
:104130002068C06820F4D0702168C8602068406999
:1041400020F0010021684861202084F83D0084F8B7
:104150003E0000BF002084F83C0000BF0320BDE803
:10416000F081206800682840A84201D1012000E0C9
:104170000020B842D3D00020F1E7000010B502487B
:10418000FEF7D0FE10BD0000F401002000BFFEE7E6
:1041900000BF012000F07BFFFBE700000FB4054BE0
:1041A00010B503A9044A029800F080F910BC5DF82C
:1041B00014FB00004D4F0008F80000200FB41CB5A0
:1041C0000246002007AC00290BD0491ECDE9002192
:1041D000054B6A462146069800F068F9009A0021CE
:1041E00011701CBC5DF814FBDB4B00080FB4084BCE
:1041F00010B504A902AA039800F058F9044602A9D0
:10420000002000F0F5FC204610BC5DF814FB000017
:10421000F14B000802480068C0F30220704700001C
:104220000CED00E010B5002804DB0A07130E054A68
:10423000135406E00A07140E034A00F00F031B1F75
:10424000D45410BD00E400E018ED00E030B528B112
:10425000144C031F002021680A4605E0084630BDC3
:104260009A4203D810465268002AF9D1002800D09B
:1042700041680BD00468A3EB0005A54204D11B687C
:104280001C440346046002E0436000E023603AB14E
:104290001C68D51AA54203D115682C441C605268CD
:1042A0005A6030BDFC0000202DE9F04782460F4CDB
:1042B00010480D4E0E4F001B4FF0000820F0070570
:1042C0004FF0010900221146504600F04FFE002831
:1042D00002D1306810B10020BDE8F0873C60C4E92D
:1042E0000058C6F80090EDE700010020EC13002014
:1042F000FC000020E815002002E008C8121F08C1D9
:10430000002AFAD170477047002001E001C1121F56
:10431000002AFBD1704700002DE9FF5F82B0002129
:10432000DDE90430020DDDF840B0034318D044F657
:104330001050A2F2FF3242431514119801281FD0E9
:10434000A5EB0B00401C5FEA000A4FF000064E4F41
:10435000DFF83891B046504615D5CAF1000413E095
:10436000119801244AA3012801D16FEA0B01029898
:10437000119AC0E90031C0E9024206B0BDE8F09FE1
:10438000CBF10000DFE704460021404A491842EB28
:104390000450CDE9001012E0E00707D032463B465A
:1043A00040464946FCF731FA8046894632463B464C
:1043B00010461946FCF729FA06460F466410002CF1
:1043C000EAD1DDE90401DDE90023BAF1000F06DAE4
:1043D000FCF71BFA42464B46FCF717FA05E0FCF7E0
:1043E00086FA42464B46FCF782FA04460E46002205
:1043F000284BFCF72DFB03D84FF0FF30014607E0B8
:104400000022254B20463146FCF758F9FCF790FC7A
:10441000102409E0002C0ADB0A220023FCF762FBCF
:10442000039B30321A55641E50EA0102F2D1641C1B
:10443000039AC4F111031444119A012A03D00122F2
:1044400008430DD10AE0084304D000204FF0110BBF
:10445000119072E7A3EB0B056D1E0DE05B4504DDCB
:104460004FF0000205F1010504E003DA4FF000020D
:10447000A5F10105002AECD002981199C0E902319A
:10448000C0E9004579E70000000014400000F03F5B
:10449000300000000000F0430000E03F30380A2800
:1044A00001D2012070470020704700002DE9FF4F26
:1044B00095B09B468946064600250FE2252877D110
:1044C00000242746F84A0121059400E0044316F829
:1044D000013F203B01FA03F01042F7D130782A283F
:1044E00011D06FF02F033078A0F13002092A16D8CE
:1044F000059A44F0020402EB820203EB42021044EC
:10450000761C0590EFE759F8042B0592002A03DA90
:10451000504244F40054059044F00204761C307874
:104520002E2816D116F8010F44F004042A280DD0C5
:104530006FF02F023078A0F13003092B09D807EB78
:10454000870302EB4303C718761CF3E759F8047B93
:10455000761C30786C280FD006DC4C2817D06828E1
:104560000DD06A2814D104E0742810D07A280FD115
:104570000DE044F400140AE044F4801401E044F433
:1045800040147278824202D104F58014761C761CA5
:10459000307866280BD013DC582877D009DC002847
:1045A00075D04528F6D04628F4D047281AD19DE189
:1045B00018E0632835D0642879D0652812D195E1B8
:1045C000702873D008DC6728F1D069286FD06E2876
:1045D0000DD06F2806D1B5E073282CD0752875D082
:1045E000782874D05A46179990476D1C75E1C4F32A
:1045F0000250022809D003280DD0D9F80010042851
:104600000DD00D6009F1040967E1D9F80010EA172F
:10461000C1E90052F6E7D9F800100D80F2E70D70FD
:10462000F0E719F8041B8DF8001000208DF8010048
:10463000EA46012003E059F804AB4FF0FF30610770
:104640004FF0000102D40DE008F101018846B942A3
:104650000FDA8045F8DB1AF808100029F4D108E0D9
:1046600008F1010188468142FADB1AF80810002996
:10467000F6D105985B46A0EB080721463846179A05
:1046800000F094FA284400EB080507E04DE029E12A
:104690000DE01AF8010B5A4617999047B8F1010836
:1046A000F7D25B4621463846179A13E142E00A22C8
:1046B0000092C4F302524FF0000A022A08D059F8BF
:1046C00004CB032A4FEAEC710AD00DE029E02AE07E
:1046D00009F1070121F00702F2E802C1914609E061
:1046E0000FFA8CFC4FEAEC71042A03D14FFA8CFCD0
:1046F0004FEAEC71002907DA0A460021DCF1000CD0
:1047000061EB02012D2202E0220504D52B228DF857
:104710000420012203E0E20701D02022F7E79046BF
:1047200059E00A2102E010220DE010214FF0000AAA
:1047300000910BE010224FF0000A44F00404082717
:10474000009203E008224FF0000A0092C4F30252E4
:10475000022A05D059F804CB0021032A08D009E029
:1047600009F1070121F00702F2E802C1914605E0D4
:104770001FFA8CFC042A01D10CF0FF0C4FF000084A
:10478000220728D5702806D0009B83F0100353EA37
:104790000A0305D00EE040228DF80420012208E033
:1047A0005CEA010206D030228DF804208DF8050065
:1047B00002229046009B83F0080353EA0A030AD1C1
:1047C0005CEA010201D1620705D530228DF8042090
:1047D0004FF001087F1E582804D034A003900EA883
:1047E00002900DE036A0F9E753466046009AFCF7C8
:1047F00079F984460398825C0298401E0290027008
:104800005CEA0100F0D1029806A9081A00F1200A1A
:10481000600702D524F4803400E00127574502DD0B
:10482000A7EB0A0000E0002000EB0A0100900598C9
:104830004144401A0590E00306D45B462146179A8E
:10484000059800F0B3F90544002706E001A85A4690
:10485000C05D179990476D1C7F1C4745F6DBE00350
:104860000CD55B462146179A059800F09FF9054440
:1048700004E030205A46179990476D1C0099481E55
:1048800000900029F5DC08E0029802995A46007869
:10489000491C0291179990476D1CBAF10001AAF1C9
:1048A000010AF1DC65E100000928010030313233F2
:1048B000343536373839616263646566000000005C
:1048C0003031323334353637383941424344454646
:1048D0000000000000F058F90544761C30780028EC
:1048E0007FF4ECAD19B02846BDE8F08F620700D424
:1048F000062709F1070222F0070CFCE80223E14633
:1049000003F000485FEA080C02D00FF2702C0DE0B3
:104910005FEA045C02D50FF2682C07E05FEAC47C12
:1049200002D00FF2602C01E0AFF2700C4FF0FF38B4
:1049300023F00043CDF850C065280CD006DC452894
:1049400009D046281DD047283DD13DE0662818D023
:1049500067287ED138E00021112F01DB112000E013
:10496000781CCDE9000106A90EA8FFF7D5FCDDE90A
:104970000F010E9A03910021009207F1010A0491A0
:104980004DE04FF000400097CDE9011006A90EA8B8
:10499000FFF7C2FCDDE90F0203920E9B1199002282
:1049A000DDF80CA00093049211B9791C00EB010A08
:1049B000B7EB0A0004D4C0F1FF3007F1010A0490FC
:1049C000AAEB0700019044E0012F00DA0127002143
:1049D000112F01DD112000E03846CDE9000106A9C4
:1049E0000EA8FFF799FCDDE90F010E9A0391002153
:1049F00004910092BA4621070CD40399514500DA7C
:104A00008A46BAF1010F05DD009AAAF10101515C55
:104A1000302908D0B84202DA10F1040F06DA012179
:104A2000CDE9011015E0AAF10101E9E7002805DC54
:104A3000049901440491AAEB000102E0411C514594
:104A400000DD8A460499401A401C01904FF0004056
:104A50000290200704D40198504501DBCDF8048072
:104A600000208DF84F0002980DF14F07B0F1004F74
:104A700025D02B200E9002984FF0020800280CDA67
:104A8000404202902D200E9007E00A210298FCF788
:104A900013F83031029007F8011DB8F10001A8F1B8
:104AA0000108F2DC02980028EFD1791E0E980870F8
:104AB000307800F0200040F0450007F8020D12A801
:104AC000C01B00F107081498007800B1012000EB2A
:104AD0000A01019801EBE07105984144401A401E1B
:104AE0000590E00306D45B462146179A059800F02E
:104AF0005DF805441498007818B15A461799904704
:104B00006D1CE00324D55B462146179A059800F0FA
:104B10004DF805441CE00498002807DBDDE903019B
:104B2000884203DD0098405C179901E01799302016
:104B30005A469047049805F10105401C04900198DD
:104B4000401E019004D12E205A46179990476D1CA3
:104B5000BAF10001AAF1010ADDDC05E017F8010B4A
:104B60005A46179990476D1CB8F10001A8F1010849
:104B7000F4DC5B462146179A0598ABE62D00000051
:104B80002B000000200000002DE9F0410446002524
:104B90001E461746880404D405E039462020B04755
:104BA0006D1C641EF9D52846BDE8F0812DE9F04161
:104BB000044600251E469046C80301D5302700E074
:104BC0002027880404D505E041463846B0476D1CCF
:104BD000641EF9D52846BDE8F0814A68002A06D04F
:104BE0000A68531C0B6010704868401E486070478C
:104BF0000A68531C0B601070704770B505460C4670
:104C0000002614B10DB1A54201D1002070BDAE68DF
:104C100026B9AC6064600020206007E0706828B1AD
:104C20002146706801F0F0F8A86844600120EDE7C3
:104C30002DE9F04705460E4614461F46DDF8209044
:104C40004FF00008C2461DB116B10CB1A54202D109
:104C50000020BDE8F087B9F1000F07D0304600F022
:104C6000BBF88046E06840F4007A0CE039463046F4
:104C700000F096F88046B8F1000F01D10020E8E777
:104C8000E06820F4007AA08900F4007020B9206A5E
:104C900010B1206A79688847C4F82080C4F80CA055
:104CA00021462846FFF7A9FFD3E70000F8B50446E0
:104CB0000D4616460020044B3246294600902046F9
:104CC000FFF7B6FFF8BD00007C00002010B50448D7
:104CD00000F04EF804460CB14020E060204610BDC4
:104CE0007C00002070B505460A4800F041F80446F3
:104CF0006CB11020E0600749284600F051F82061AF
:104D0000206920B9204600F007F8002070BD204639
:104D1000FCE700007C00002070B50446002522E07E
:104D20002568A08900F4807020B9A06810B1A0683F
:104D3000FFF7F2FFA08900F4807028B9206918B14C
:104D40000A4A206951688847A08900F4007028B990
:104D5000206A18B1054A206A5168884703484168AB
:104D6000204688472C46002CDAD170BD7C000020FC
:104D700070B5044628202168884705461DB12821C2
:104D80002846FBF744FA284670BD000010B50446DB
:104D9000024A0121204600F0BAF910BD7C00002033
:104DA0002DE9F04104460D460026002714B90020E5
:104DB000BDE8F0812046FBF735FA461C30462968ED
:104DC000884707460FB90020F2E7324621463846A9
:104DD000FBF704FA3846EBE7704700002DE9FC5F6B
:104DE00004460D4616461F4627F00043B24625F0FE
:104DF00000405246CDE9004020460199FBF728FECD
:104E000003D225F00041204602E027F00041304661
:104E10008046894600220D4B40464946FBF7F5FC8B
:104E200082468B4632463B4620462946FBF7E7FC46
:104E300021F0004152465B46CDE90001FBF7F0FD51
:104E400002D80120BDE8FC9F0020FBE70000B03C39
:104E500010B504460D480E490860472048600021FF
:104E60000B488160C460FDF70FFD0948FDF76AFD3E
:104E70006FF0010006490968086100BF0448006836
:104E8000006900F001000028F8D010BD00040040C7
:104E9000AC0100202DE9F04104460D460026002714
:104EA0000CB1206810B90020BDE8F081606828B11D
:104EB000D4E90110884201D30020F5E7B5F1004F95
:104EC00001D30020F0E7A068401C05446068A842B8
:104ED00003D3A16820680844E6E7206908B10020F0
:104EE000E2E7B5F1804F07D3B5F1004F02D26FF082
:104EF000004702E00020D7E76F00206A60B1394622
:104F0000226A206890470646DEB9E1692068884732
:104F1000002060602060C7E73846A16988470646E0
:104F200036B9E16920688847002060602060BBE7EF
:104F3000A068421C30462168FBF750F9E1692068FF
:104F4000884767602660A0683044ADE713B50C461B
:104F50004FF0FF33012269460248FEF797FA0098A6
:104F60001CBD0000F40100202E2070472DE9F04107
:104F70000B3020F00706104D19E02068B04215D321
:104F8000B0420AD9871B201DD4F80480FBF726F90C
:104F9000A019C0E90078286004E060682860201D3E
:104FA000FBF71CF9201D2660BDE8F081251D2C684B
:104FB000002CE2D10020F7E7FC00002096B0FCF7BF
:104FC00087FEFEF72FFDFEF735FBFEF7FFFBFEF732
:104FD000C9FAFEF775FBFEF7C3FBFEF7F1FA4FF4D3
:104FE000967327221D491E48FEF750FA4FF4967318
:104FF00026221C491A48FEF749FA01221A49184884
:10500000FEF73CF904211948FDF712FF1C2218494C
:105010000FA8FBF7E3F800210FA800F049F81549A5
:1050200008601C2212491C3108A8FBF7D7F80021A0
:1050300008A800F03DF8104908601C220C493831DE
:1050400001A8FBF7CBF8002101A800F031F80B49CB
:10505000086000F028F800BFFEE700000C00002008
:10506000F4010020340000203300002064010020FF
:105070009C660008000000200400002008000020BA
:1050800001460020842901D0CA1C1044704770B525
:10509000044625460DB1294600E00121084600F0EE
:1050A000F9FF002070BD10B501F022F8002010BDFE
:1050B0007FB504460D46606998B1A06988B1B4F91E
:1050C0000800FFF7DDFF0646D4E90510CDE90061D1
:1050D00002902B462269D4E9001001F05DF903909B
:1050E00013E0B4F90800FFF7CBFF064603A8CDE9AB
:1050F0000060238A9AB22B46D4E9001001F01AF915
:10510000012802D0002004B070BD0398FBE7F0B581
:1051100089B007460E461446002524216846FBF751
:1051200076F84FF480702168884700904FF48070C3
:105130000190059694E8070006AB07C3009800B9F4
:1051400033E06946384600F0BBFA00B92DE0684606
:1051500000F092FEA06850B1029B591C0098A26812
:105160009047054605B920E0002000901AE0029A19
:10517000501C21688847054605B916E0DDE9013075
:10518000401C834201D2019801E00298401C024673
:1051900028460099FBF722F80020029968540098ED
:1051A00061688847284609B0F0BD009810B10098A2
:1051B0006168884715B12846616888470020F2E792
:1051C0002DE9F04107460C460025A846BE6814B9F3
:1051D0000020BDE8F08101212046FFF75BFE054677
:1051E0000DB90020F5E75B202870A068401CA06086
:1051F000E068401CE06028E02146304600F060FA9C
:1052000008B90020E5E7204600F036FE3068D8B146
:10521000606908B1022000E00120804608F1010128
:105220002046FFF737FE05460DB90020D1E72C20B8
:1052300005F8010B606910B1202005F8010B002072
:105240002870A0684044A0603668002ED4D10221A6
:105250002046FFF71FFE05460DB90020B9E75D2087
:1052600005F8010B00202870E068401EE060012076
:10527000AFE700002DE9F04F8BB081460F464FF0AD
:10528000000AD9E90645D04600261C2104A8FAF7F1
:10529000BEFFFFF769FE834600200290039017B916
:1052A0000BB0BDE8F08FCDE90045DDE900210AB182
:1052B000012200E0002241EA020020F00041394AC8
:1052C000511AC90F61B9CDE9004551000198B1EB00
:1052D000400F03D1009808B9012000E0002028B158
:1052E00031A104A8FEF782FF80462EE0D9F8140011
:1052F000FBF771FB22462B46CDE90001FBF790FB43
:1053000007D12BA104A8D9F81420FEF76FFF80461F
:105310001BE022462B4627A104A8FEF767FF804624
:1053200002AA26A104A8FAF78DFF012806D1224679
:105330002B46DDE90201FFF751FD30B922462B462D
:105340001FA104A8FEF752FF8046B8F1000F02DB50
:10535000B8F1190F01DD0020A2E708F1010138467C
:10536000FFF798FD8246BAF1000F01D1002097E7C0
:1053700000260DE004A8805D584503D12E200AF8D0
:10538000060004E004A8805D0AF8060000BF761C51
:105390004645EFD300200AF80600B8684044B860DC
:1053A00001207DE70000F07F6E756C6C000000004E
:1053B0002564000025312E3135670000256C67001B
:1053C00025312E31376700002DE9F04781460C4624
:1053D00000250026D9F8087014B90020BDE8F08730
:1053E000606908B1022000E001200646711C2046D9
:1053F000FFF750FD05460DB90020EFE77B2005F8CB
:10540000010BE068401CE060606910B10A2005F8FB
:10541000010BA0683044A06069E06069B8B1204623
:10542000E168FFF737FD05460DB90020D6E74FF0DC
:10543000000804E0092005F8010B08F10108E06804
:105440004045F7D8D4E902010844A06000BF2146D6
:10545000386A00F07BF808B90020BFE7204600F06A
:105460000BFD606908B1022000E0012006463146CC
:105470002046FFF70FFD05460DB90020AEE73A20A4
:1054800005F8010B606910B1092005F8010BA0684F
:105490003044A0602146384600F012F908B90020D7
:1054A0009CE7204600F0E8FC606908B1012000E0BC
:1054B0000020396809B1012100E000214618711C63
:1054C0002046FFF7E7FC05460DB9002086E738685F
:1054D00010B12C2005F8010B606910B10A2005F805
:1054E000010B00202870A0683044A0603F68002FA6
:1054F00093D1606910B1E068401C00E002200146D1
:105500002046FFF7C7FC05460DB9002066E7606935
:1055100050B1002003E0092105F8011B401CE1689F
:10552000491E8142F7D800BF7D2005F8010B0020FD
:105530002870E068401EE06001204FE770B5044627
:105540000D462946206900F001F870BD2DE9F047AD
:1055500007468A46002400260025A046A146BAF147
:10556000000F02D10020BDE8F0876FB9032150463B
:10557000FFF790FC06460EB90020F4E74DA1304637
:10558000FAF757FE0120EEE73C4622E020780C288F
:1055900011D006DC08280DD009280FD00A2810D118
:1055A0000AE00D2809D0222802D05C2809D100E0A9
:1055B00000BF00BF00BF00BF00BF00BF09F101096D
:1055C00005E02078202801DA09F1050900BF00BFB5
:1055D000641C20780028D9D1E01B00EB090808F1F1
:1055E00003015046FFF756FC06460EB90020BAE705
:1055F000B9F1000F0FD12220307042463946701C9D
:10560000FAF7ECFD222108F1010031540021401C81
:1056100031540120A7E722203070751C3C463DE044
:1056200020781F2808DD2078222805D020785C28E3
:1056300002D0207828702FE05C2005F8010B20783C
:105640000C2815D006DC08280FD0092819D00A2804
:105650001AD110E00D2811D0222803D05C2813D1D4
:10566000287018E02220287015E06220287012E0CF
:10567000662028700FE06E2028700CE072202870E1
:1056800009E07420287006E022780BA12846FEF776
:10569000ADFD2D1D00BF00BF641C6D1C20780028CF
:1056A000BED1222108F1010031540021401C3154A7
:1056B000012058E7222200007525303478000000D0
:1056C0002DE9F04104460E46002504B116B900202C
:1056D000BDE8F081207B102857D008DC01281BD0C2
:1056E000022827D0042809D008285DD130E02028DE
:1056F00050D0402853D0802856D12EE00521304686
:10570000FFF7C8FB05460DB90020E1E727A12846B1
:10571000FAF78FFD0120DBE706213046FFF7BAFBE1
:1057200005460DB90020D3E722A12846FAF781FDEE
:105730000120CDE705213046FFF7ACFB05460DB94A
:105740000020C5E71DA12846FAF773FD0120BFE739
:1057500031462046FFF78EFDBAE70027206908B9D9
:105760000020B5E72069FAF75DFD471C3946304651
:10577000FFF790FB05460DB90020A9E73A462846F9
:105780002169FAF72BFD0120A2E731462046FFF7F9
:10579000D5FE9DE731462046FFF712FD98E73146DA
:1057A0002046FFF711FE93E7002091E76E756C6CC1
:1057B0000000000066616C7365000000747275651E
:1057C000000000002DE9F04105460E461C48076820
:1057D0001C480068001D00F061FB50B919480068C2
:1057E00090F82C1001208840174909688143164819
:1057F0000160681C38B936B112480168091D1348A8
:1058000000F096FB1AE07C190E4800684460BC4228
:1058100007D20C480168091D0D48006800F06EFBB6
:105820000CE008480168091D0A48006800F066FBA2
:1058300009480068844201D207480460BDE8F0814D
:10584000AC00002098000020B0000020D00700200D
:10585000A00000209C000020C800002010B50446D5
:1058600000F072FB23480068401C2249086022486F
:10587000006840B9204804600846006801280DD13E
:1058800000F03AF90AE01D48006838B91A48006883
:10589000C06AE16A884201D8174804601848006865
:1058A000401C1749086094F82C10012088401549C5
:1058B0000968084313490860E16A01EB8101124A53
:1058C00002EB8100211D00F033FB00F067FB0B4869
:1058D000006868B108480068C06AE16A884207D277
:1058E0004FF0805009490860BFF34F8FBFF36F8FAF
:1058F00010BD0000A800002098000020B400002087
:10590000C4000020B0000020F406002004ED00E0F8
:1059100010B516E000F018FB0C48C068C468201DE4
:1059200000F0BCFA0A480068401E094908600948AE
:105930000068401E0749086000F030FB204600F078
:105940000BF8044800680028E4D110BDBC07002013
:10595000A8000020A400002010B5044694F85100CF
:1059600030B9206B00F038FB204600F035FB1AE020
:1059700094F85100012803D1204600F02DFB12E0DD
:1059800094F85100022801D1012000E0002050B914
:1059900000BF502080F31188BFF34F8FBFF36F8F8C
:1059A00000BF00BFFEE710BD30B54FF4406317489D
:1059B00000F007042CB1C01D20F00700134C041B9D
:1059C0001B1B0246124C22600024114D6C60D01843
:1059D000083820F007000F4C206000240D4D2D6882
:1059E0006C600C4D2D682C601146441A4C60094CBB
:1059F00024680C60084D4C682C60084D4C682C6085
:105A00004FF00044064D2C6030BD0000E40700203C
:105A1000D4000020DC000020E4000020E000002092
:105A2000E800002000BFFFF773FF06480068012868
:105A3000F9D94FF0805004490860BFF34F8FBFF38E
:105A40006F8FF0E7F406002004ED00E02DE9FF5F22
:105A500081460F469246DDE90E6B109CAAF10100CB
:105A6000216B01EB800828F0070808F0070008B94F
:105A7000012000E0002050B900BF502080F31188C1
:105A8000BFF34F8FBFF36F8F00BF00BFFEE700254E
:105A900007E0795D04F134004155785D00B902E01A
:105AA0006D1C102DF5D300BF002143200155072E9A
:105AB00000D30626E66266640020A064201D00F084
:105AC0001AFA04F1180000F016FA2461C6F1070072
:105AD000A06164620020E06484F8500049464046BA
